:020000040800F2
:10000000585300208102000815360008813000088E
:100010006D3500084D0A00081B4300080000000071
:10002000000000000000000000000000C101000806
:1000300085100008000000001D020008613A000859
:100040009B0200089B0200089B0200089B0200081C
:100050009B0200089B0200089B0200089B0200080C
:100060009B0200089B0200089B0200089B020008FC
:100070009B0200089B0200089B0200089B020008EC
:100080006D0E0008890E00089B0200085D0A00083A
:10009000510A00089B0200089B0200089B0200080E
:1000A0009B0200089B0200089B0200089B020008BC
:1000B0009B0200089B0200084D3B00089B020008C1
:1000C0009B0200089B0200089B0200089B0200089C
:1000D0009B02000855420008614200087542000872
:1000E0009B0200089B0200089B020008653B000879
:1000F000893B00087D3B0008713B00089B0200081B
:100100009B0200089B020008593B00089B02000864
:100110009B0200089B0200089B0200089B0200084B
:100120009B020008950E00089B0200089B02000835
:100130009B0200089B0200089B020008750A000849
:10014000690A00089B0200089B0200089B02000845
:100150009B020008B10E0008BD0E00088142000895
:100160009B0200089B0200089B0200089B020008FB
:100170009B0200089B0200089B0200080000000090
:100180009B0200089B0200089B0200089B020008DB
:100190009B0200089B0200089B0200089B020008CB
:1001A00000000000000000009B020008DFF80CD0F7
:1001B00000F010FC004800471D6A0008585300205A
:1001C0002C4B19680868B0E8F04F80F30988BFF33A
:1001D0006F8F4FF0000080F311887047000000001F
:1001E00008480068006880F308884FF0000080F33A
:1001F000148862B661B6BFF34F8FBFF36F8F00DF15
:1002000000BF00BF08ED00E0DFF80C00016841F41A
:1002100070010160704700BF88ED00E0EFF30980D6
:10022000BFF36F8F134B1A681EF0100F08BF20ED3D
:10023000108A20E9F04F106009B44FF0500080F3AD
:100240001188BFF34F8FBFF36F8F07F087F94FF01F
:10025000000080F3118809BC19680868B0E8F04F05
:100260001EF0100F08BFB0EC108A80F30988BFF3AE
:100270006F8F704730000020EFF30580704700005B
:100280000648804706480047FEE7FEE7FEE7FEE730
:10029000FEE7FEE7FEE7FEE7FEE7FEE7F93A0008C5
:1002A000AD0100082DE9F05F0546002092469B460F
:1002B00088460646814640241BE02846414647467C
:1002C000224600F050FA53465A46C01A914110D3C4
:1002D00011461846224600F037FA2D1A67EB01083E
:1002E0004F4622460120002100F02EFA17EB0009AC
:1002F0004E41201EA4F10104DFDC484631462A4667
:100300004346BDE8F09F40EA01039B0703D009E0A4
:1003100008C9121F08C0042AFAD203E011F8013BF1
:1003200000F8013B521EF9D27047D2B201E000F84A
:10033000012B491EFBD270470022F6E710B5134689
:100340000A4604461946FFF7F0FF204610BD2DE986
:10035000FE4F804681EA0300C00F0C46009021F05A
:10036000004123F00045B8EB0200A94105D2404608
:10037000214690461C460B46024623F0004010439F
:1003800047D0270DC7F30A00C3F30A510290401A61
:10039000019040286BDAC3F3130040F4801B0098EF
:1003A000924620B10023D2EB030A63EB0B0B0198BA
:1003B0005946C0F14002504600F0C6F906460D46C7
:1003C00050465946019A00F0DEF910EB08006141F1
:1003D000002487EA115284EAE7731A4340D0009A56
:1003E00062B3019A012A4FEA075215DC001B61EB48
:1003F00002014FF0004202EA0752CDE90042001C20
:1004000041F5801132462B4600F015FA03B0BDE8E5
:10041000F08F40462146F9E7001B61EB0201001C0A
:1004200041F5801300185B412018A2F5001747EB37
:10043000030140EAD570B6196D4111E06D084FEA2D
:10044000360645EAC0754FEA0752001B61EB020110
:10045000001C41F5801149084FEA30000019514154
:1004600032462B4603B0BDE8F04F00F0D5B90098F6
:10047000012240000023D0EB020263EBE0730098FE
:1004800021464FEAE074B8EB000061EB0401E9E7B4
:1004900083F000435BE781F0004158E72DE9FE4F10
:1004A00081EA030404F0004421F0004100944FF07D
:1004B000000B23F0004350EA01045ED052EA03042B
:1004C0005BD0C3F30A54C1F30A552C44A4F2F334AD
:1004D0000194A0FB0254C1F3130141F48011C3F352
:1004E000130343F4801301FB024400FB034E840A10
:1004F000970A44EA815447EA8357A4FB07680295A8
:100500008D0A05FB07854FEA932C04FB0C54270545
:10051000029D4FEA065847EA1637B5EB08056EEB21
:10052000070C870E920E47EA811742EA8312A7FB57
:100530000201B6EB0B0164EB00042B0D43EA0C3314
:100540005E1844EB1C50DA465146E7FB0201C5F346
:1005500013044FEA0B3343EA14534FEA0432019C6D
:1005600043EA0603A4F10C040294009CCDE900B414
:1005700000F061F903B0BDE8F08F00200146F9E713
:100580002DE9F04D81EA030404F0004B21F0004511
:1005900014464FF0000A23F0004150EA050220D033
:1005A00054EA01021DD0C5F30A570246C5F31303EE
:1005B000C1F31300C1F30A5640F4801543F48013CD
:1005C000A7EB0608101BD64608F2FD3873EB0500B2
:1005D00002D308F1010801E092185B41B8F1000F65
:1005E00003DA00200146BDE8F08D00204FF48011B1
:1005F000064684460EE0171B73EB050705D3121B56
:1006000063EB050306434CEA010C49084FEA30004E
:1006100092185B4150EA0107EDD152EA030012D073
:1006200082EA040083EA0501084305D0101BAB41B0
:1006300006D20122002306E000224FF0004302E030
:100640006FF0010253101AEB06004CEB085110EB4F
:100650000A0041EB0B01BDE8F04D00F0DDB80EB52E
:10066000C10F80EAE0700844CA07002140F233431A
:100670008DE80E000A460B4600F0DDF803B000BD21
:1006800070B5C1F30A5201F000450024C1F3130113
:1006900040F2FF3341F480119A4201DA002070BD2C
:1006A00040F233439A42A2F2334203DC524200F05A
:1006B0005AF800E090402C43F1D0404270BD00F069
:1006C000004230F000400AD0C10D01F56071C0F366
:1006D000160042EA0151C20840071143704700204A
:1006E0000146704701F0004330B421F0004150EA68
:1006F000010206D00A0DA2F56072C1F31301002AAF
:1007000002DC30BC00207047440F44EAC104C10041
:10071000E01830BC00EBC25000F047B830B50B46D3
:10072000014600202022012409E021FA02F59D4221
:1007300005D303FA02F5491B04FA02F52844151EF5
:10074000A2F10102F1DC30BD202A04DB203A00FADC
:1007500002F1002070479140C2F1200320FA03F318
:10076000194390407047202A04DB203A21FA02F016
:100770000021704721FA02F3D040C2F120029140DB
:10078000084319467047202A06DBCB17203A41FA66
:1007900002F043EAE07306E041FA02F3D040C2F10E
:1007A000200291400843194670470029A8BF7047AE
:1007B000401C490008BF20F00100704710B4B0FA97
:1007C00080FC00FA0CF050EA010404BF10BC704732
:1007D00049B1CCF1200421FA04F411FA0CF118BF4C
:1007E000012121430843A3EB0C01CB1D4FEA00611B
:1007F0004FEA102042BF002010BC704700EBC350EE
:1008000010440029A4BF10BC7047401C490008BF19
:1008100020F0010010BC704710B5141E73F10004E5
:1008200008DA401C41F1000192185B411A4301D1E2
:1008300020F0010010BD2DE9F04D92469B4611B10C
:10084000B1FA81F202E0B0FA80F220329046FFF76E
:100850007BFF04460F4640EA0A0041EA0B0153467B
:100860005A46084313D0114653EA010019D0C8F183
:1008700040025046FFF777FF05460E465046594660
:100880004246FFF761FF084305D0012004E02046FF
:100890003946BDE8F08D0020054346EAE0762C435A
:1008A00037430A986305E40AA0EB08000022FD0A1A
:1008B00044EA47540A3002D500200146E9E7010521
:1008C00010196941DDE9084500196941BDE8F04D9D
:1008D000A2E72DE9F04D00231A461B1A8A4103DBDB
:1008E00000200146BDE8F08DC1F30A52C1F31301A7
:1008F00041F480154FF0000BD10702D100186D4173
:10090000521E0027044640F2FF11384601EB620AEE
:100910003E468046024600204FF48011FFF723FF39
:10092000C2197141BB1846EB0100B4EB030C75EB27
:10093000000C04D3E41A65EB000517460E46241993
:1009400008F101006D4180463428E3DDF91946EBDA
:100950000600091BA84103D24FF0FF32134601E005
:10096000002213461BEB070046EB0A51BDE8F04D91
:10097000FFF752BFC1F30A52C1F3130140F2FF3334
:1009800041F480119A4202DA00200146704740F299
:1009900033439A42A2F2334202DC5242FFF7E3BEF3
:1009A000FFF7D2BE30B5041E71F1000404DB4FF036
:1009B0000044404264EB0101141E73F1000405DBA6
:1009C0001C464FF00043524263EB0403994208BFB8
:1009D000904230BD064C074D06E0E06840F0010350
:1009E00094E8070098471034AC42F6D3FFF7E2FBD7
:1009F0005C7B00087C7B00080EB540F2334102911D
:100A00000021CDE900110A460B46FFF714FF03B0A1
:100A100000BD30B58C1810F8012B12F00F0301D176
:100A200010F8013B120906D110F8012B03E010F871
:100A3000015B01F8015B5B1EF9D101E001F8013BAC
:100A4000521EFBD1A142E6D3002030BDFEE70000DC
:100A5000014800F096BC000080010020014800F031
:100A600090BC000080010020014800F08ABC00001A
:100A7000A8010020014800F084BC0000A80100206B
:100A8000F0B5074600681449002401250E2695B0EC
:100A900088420DD10494CDE908560594019402943E
:100AA000009469460D480394CDE9064500F06EFBBD
:100AB0000B49386888420DD1CDE90E4612950B944A
:100AC0000C940A940AA9074813960D94CDE9104591
:100AD00000F05CFB15B0F0BD006400408001002018
:100AE00000680040A801002010B5044600F0BCFEDC
:100AF0000221204600F0D4FA2046BDE81040FFF75E
:100B0000BFBF70B588B00826DDE90C5406960026F4
:100B100002910596110A8DF800108DF80120190A2E
:100B20008DF80210290A8DF804108DF80550210A5D
:100B30008DF806108DF8033004968DF807400123D8
:100B40006A4602A900F0BEFA08B070BD30EE600A35
:100B50000849DFED090A10EE100A884201DD30EE87
:100B6000600A064910EE100A884201D930EE200AC8
:100B700070470000000034430000B443000034C359
:100B800010B52DED088BB0EE409AF0EE619AB0EE04
:100B900042AAB0EE62BADFED1CAAB0EE608A21EE86
:100BA0002A0A10EE100AFFF78AFD41EC100B03F041
:100BB00033FE51EC100BFFF795FD2BEE2A0A08EEE1
:100BC000900A10EE100AFFF77AFD41EC100B03F0CB
:100BD00023FE51EC100BFFF785FDF0EE480A00EE06
:100BE000100A59EE280A38EEC01A49EEC00A70EE13
:100BF0008A0A80EE810AF0EE480A30EE491A48EE81
:100C0000810ABDEC088B10BD98F98E3C70B50C467E
:100C1000054664A100F006F918B1204605F056FF1C
:100C2000B9E061A1284600F0FDF818B1204605F0B2
:100C300081FFB0E05DA1284600F0F4F818B120462D
:100C400005F0ACFFA7E05AA1284600F0EBF818B178
:100C5000204605F0D5FF9EE056A1284600F0E2F8B8
:100C60000028DDD154A1284600F0DCF80028D7D1B7
:100C700052A1284600F0D6F80028D1D150A128462C
:100C800000F0D0F80028CBD14EA1284600F0CAF8D9
:100C90000028C5D14CA1284600F0C4F800287AD11C
:100CA0004AA1284600F0BEF8002874D148A1284681
:100CB00000F0B8F800286ED146A1284600F0B2F83E
:100CC000002868D144A1284600F0ACF8002862D181
:100CD00042A1284600F0A6F800285CD140A1284691
:100CE00000F0A0F8002856D13EA1284600F09AF85E
:100CF000002850D13CA1284600F094F800284AD1A1
:100D00003AA1284600F08EF8002844D138A12846A0
:100D100000F088F800283ED136A1284600F082F87D
:100D2000C8BB35A1284600F07DF8A0BB33A12846FA
:100D300000F078F878BB32A1284600F073F850BB79
:100D400030A1284600F06EF810B105F05FFE22E0F9
:100D50002DA1284600F066F8E8B92CA1284600F03D
:100D600061F8C0B92AA1284600F05CF898B929A119
:100D7000284600F057F870B927A1284600F052F82D
:100D800048B926A1284600F04DF820B924A12846EC
:100D900000F048F808B1002070BD2146284605F053
:100DA00053F9F8E72A3100002A3200002A33000004
:100DB0002A3400002A3500002A3600002A370000B5
:100DC0002A3800002A3900002331000023320000B5
:100DD00023330000233400002335000023360000B5
:100DE0004031000040320000403300004034000039
:100DF0004035000040360000403700004038000019
:100E00004039000024310000243200002433000067
:100E10002434000024360000243700002438000069
:100E20002439000030B50C46054602F0FDFD0346AE
:100E3000204602F0F9FD83420AD1002004E0295C3B
:100E4000225C914204D1401C9842F8DB012030BD65
:100E5000002030BD0022835C23B18B54521C642AD5
:100E6000F9DB00E08B5401207047000010B5044806
:100E700000F086FDBDE81040024805F04BBA0000C6
:100E8000F00300201C430020014800F079BD000061
:100E90005004002010B5044800F072FDBDE8104079
:100EA000024805F083BD0000B0040020E4430020A8
:100EB000014800F065BD000010050020014800F069
:100EC0005FBD00009003002001681823CAB2103AE9
:100ED000B2FBF3F2054B6FF30901032A9B5CC36578
:100EE00000D9091D81650846704700006479000833
:100EF00010B5014600208B698A6A4FF0C07453B167
:100F0000B3F5005F15D072B1012A0CD0022A0AD0C5
:100F1000032A09D104E01AB1012A06D0022A03D11A
:100F2000C96AC90100D5012010BDC96AA142FAD021
:100F300010BD002AF7D0012AF2D0022AF3D0032AEA
:100F4000F3D010BD30B50468256825F480252560F0
:100F5000046863608368402B036803D0996000686D
:100F6000C26030BD9A600068C16030BD2DE9F047B5
:100F700081460027012602F057FD051E34D00024CB
:100F8000DFF868802DE0621C2146484602F054FDDF
:100F900017A1FFF747FF88B122463946484602F0BD
:100FA0004BFD02F0A7FC10EE100AFFF788FB08EBE0
:100FB000C602671CC2E90001761C11E0281B01284B
:100FC0000ED12A463946484602F036FD02F092FC20
:100FD00010EE100AFFF773FB08EBC602C2E900012E
:100FE000641CAC42CFDB3046BDE8F087B84500203A
:100FF0002000000070B52149214B28280A780BD029
:1010000012B19854521C0A7029280BD10024D0B276
:1010100025461C540C700BE0002AF2D128201870D1
:101020000120087070BD5819407858556D1CEDB2FC
:10103000134802F0F9FC401EA842F4DC104802F00C
:10104000F3FC18440E4A00F8024C503AA2F1140185
:101050000B4802F0E0FA0A485038FFF787FF0146D4
:1010600007486438FFF7D2FD0549002050390C5479
:10107000401CC0B26428FAD370BD0000C00000203C
:10108000EC4400207047704702460020431E115C6C
:10109000202904D011B1401C6428F8DB18467047A1
:1010A00090F82020012A07D0022A05D0416A41F495
:1010B0008021416201207047006842690A43426111
:1010C00000207047F0B590F820500468A468012D06
:1010D00005D0022D03D0416A41F4802153E014F081
:1010E000406F01D1E5004BD5C4F30164022C03D954
:1010F000416A41F4000146E00125A5401D608D686C
:101100004FF4C0739DB1CE6835434E6845EAC605BD
:10111000066803EB0417F5514FF4C275076805EB39
:1011200004150E697E51097D012905D009E00E885C
:10113000CD6845EA4655EBE701684E5946F480769E
:101140004E511179D2F805504FF4C67641EA052583
:10115000016806EB04168D511178D2F801204FF486
:10116000C47541EA0221026805EB0415515100687B
:1011700003EB0411425842F0010242500020F0BD3E
:10118000416A41F4001141620120F0BD10B590F8B0
:101190002020012A07D0022A05D0416A41F480218B
:1011A0004162012010BD3B48D0F8002242F001020C
:1011B000C0F80022D0F8002222F47C52C0F80022AD
:1011C000D0F800224B6A42EA0322C0F800220A7DCE
:1011D00002F01F0301229A40D0F81C329343C0F85A
:1011E0001C32CB69B3B9D0F80C329343C0F80C323F
:1011F0008C894B6864F31F434C6900EBC404C4F84A
:1012000040320C890B6864F31F434C6900EBC40443
:10121000C4F84432CB69012B16D1D0F80C321343F9
:10122000C0F80C320C884B6864F31F434C6900EB28
:10123000C404C4F840320C89CB6864F31F434C6982
:1012400000EBC404C4F844328B69002BD0F804329C
:101250000ED01343C0F804320B69002BD0F81432BF
:1012600008D01343C0F81432096A012904D008E0F9
:101270009343EFE79343F5E7D0F81C121143C0F80E
:101280001C12D0F8001221F00101C0F80012002059
:1012900010BD000000640040704730B590F8204059
:1012A000012C05D0022C03D0416A41F480215DE07D
:1012B0000468002955D02469A40754D04FF4D87489
:1012C000056804EB01142D5915F0040595600568B7
:1012D0002D594ED0ED08556005682C59C4F34004D3
:1012E000D4604FF4DA74056804EB01142D5905F04D
:1012F0000F05156105682D59C5F30725956105682A
:101300002C59240C54614FF4DC72046802EB011276
:10131000A4581C700468A458240A5C700468A4587B
:10132000240C9C700468A258120EDA704FF4DE721E
:10133000046802EB0112A4581C710468A458240A22
:101340005C710468A458240C9C710468A258120EA5
:10135000DA71006881B1016941F02001016100206A
:1013600030BDE468A8E7416A41F400114162012000
:1013700030BD6D0D1560AFE7C16841F02001C1605F
:10138000EDE72DE9F05F0546006800244669D0F8D6
:1013900004908768D0F80CB0D0F810A0D0F818806E
:1013A000F10748D0F90714D001218160B80703D5AF
:1013B000284600F086FA0CE0780702D54FF4006466
:1013C00007E0380702D54FF4805402E0284600F0C9
:1013D00077FAF80516D529684FF480708860B8054B
:1013E00003D5284600F06FFA0CE0780502D544F4E6
:1013F000005407E0380502D544F4804402E0284652
:1014000000F060FAF80316D529684FF48030886040
:10141000B80303D5284600F058FA0CE0780302D54B
:1014200044F4004407E0380302D544F4803402E079
:10143000284600F049FA300707D55FEACB6004D5AB
:101440002968102044F40074C86070074FF0080742
:1014500007D55FEA0B7004D52868C760284600F0FE
:10146000A9F9B00706D52868C068800702D02846C9
:1014700000F0A2F9700607D55FEACA6004D52968B2
:10148000102044F480640861B00607D55FEA0A7052
:1014900004D528680761284600F0E2F9F00606D571
:1014A00028680069800702D0284600F0DAF9B00306
:1014B00008D55FEAC96005D529681020486028462C
:1014C00000F0D0F9F00307D55FEA097004D5286869
:1014D0004760284600F0FAF9300446D55FEA4970C3
:1014E00040D5F00504D55FEAC87001D044F001048E
:1014F000B00504D55FEA887001D544F00204700598
:1015000004D55FEA487001D544F00404300529D5BC
:1015100018F0700F26D008F07000402815D006DCB7
:10152000102809D020280AD0302816D10AE05028E7
:101530000ED0602811D10EE044F008040DE044F014
:1015400010040AE044F0200407E044F0400404E002
:1015500044F0800401E044F480742868816921F03B
:1015600070018161296804204860002C05D0686AF8
:10157000204368622846FFF78FFEBDE8F09F70B5F4
:10158000040003D094F8200010B104E0012070BDE5
:10159000204600F081F82068016821F00201016016
:1015A00000F07AFC0546052604E000F075FC401BBF
:1015B0000A2811D8206840688007F6D4206801689E
:1015C00041F00101016000F067FC05460BE000F00E
:1015D00063FC401B0A2806D9606A40F40030606250
:1015E00084F82060D2E720684068C007EFD0207EF2
:1015F0000128206801683DD021F080010160607EF3
:1016000001282068016838D021F040010160A07EE7
:1016100001282068016833D021F020010160E07EBC
:101620000128206801682ED041F010010160207F60
:1016300001282068016829D021F008010160607F3D
:1016400001282068016824D021F004010160D4E958
:1016500002010843D4E90412114308436168491E9A
:1016600008432168C86100206062012084F82000DE
:10167000002070BD41F08001C0E741F04001C5E7A6
:1016800041F02001CAE721F01001CFE741F0080145
:10169000D4E741F00401D9E7F0B587B0044614213E
:1016A0006846FEF749FE3E4B3E48DFF8F0E0196819
:1016B000D4F800C03B4A0325022609271030002435
:1016C000491CF4452AD11960012907D1016841F06C
:1016D00000710160006800F000700590106840F033
:1016E000080010601068CDE9005600F00800CDE950
:1016F000047069462C48CDE9024500F0DBFA00226F
:101700000621132000F056FC132000F045FC0022B7
:101710000621142000F04EFC14203BE0DFF88CE0A2
:10172000F44539D1D0F800C04CF0806CC0F800C04E
:10173000D0F800C001290CF0806CCDF814C01960FD
:1017400007D1016841F000710160006800F000708D
:101750000590106840F002001060106802AB00F0C5
:10176000020005904FF44050CDE9000683E8B00038
:1017700069460F4800F09EFA002207213F2000F042
:1017800019FC3F2000F008FC00220721402000F057
:1017900011FC402000F000FC07B0F0BD00640040E8
:1017A0000000002030380240000C02400068004079
:1017B000000402407047000010B50446006820494C
:1017C0008EB088422ED11F4B6A4600211E48FFF77B
:1017D00064FD009800221B49A0F50070013804D078
:1017E00001280AD002281DD113E0088843BA1748FF
:1017F00006E0052916DC028014E0088843BA144884
:101800004380498849BA09B201800029F1DA494286
:10181000EFE71048428882800A8852BA428049889D
:1018200049BA01800C492068884206D1054B07AAB5
:10183000083300210948FFF730FD0EB010BD00004D
:10184000006400409000002080010020004900203A
:1018500028490020D848002000680040A801002046
:10186000704770477047000070B5044690F820003C
:10187000012804D0606A40F40020606218E0022071
:1018800084F820002068016821F00101016000F067
:1018900003FB05460EE000BF00F0FEFA401B0A28DD
:1018A00008D9606A40F400306062052084F82000A6
:1018B000012070BD20684068C007EDD1606270BD36
:1018C00070477047704770477047704770472DE901
:1018D000F0410446876D00F0DFFA064694F83500C3
:1018E0000025022806D08020606584F8345001204D
:1018F000BDE8F0812068016821F0160101602068D0
:10190000416921F080014161206C08B9A06C20B1CF
:101910002068016821F0080101602068016821F059
:10192000010101600BE000F0B7FA801B052806D921
:101930002020606504F8345F03206070D8E72068D9
:101940000068C007EFD194F85C103F208840B86071
:1019500004F8345F012060700020C9E790F835106A
:10196000022903D08021416501207047052180F8BC
:1019700035100068016821F0010101600020704706
:101980002DE9F84304464FF00009CDF80090634874
:101990004FF41651A56D0068B0FBF1F72E6894F86E
:1019A0005C10082000FA01F131420FD021680A686A
:1019B00052070BD50A6822F004020A6094F85C1002
:1019C0008840A860606D40F00100606594F85C108C
:1019D0004FF0010808FA01F0304208D02168496947
:1019E000090604D5A860606D40F00200606594F8B7
:1019F0005C1004208840304208D0216809688907BB
:101A000004D5A860606D40F00400606594F85C1037
:101A100010208840304218D021680968090714D581
:101A2000A86020680168490304D50068000308D550
:101A3000A16C07E00168C90503D4016821F0080121
:101A40000160216C09B12046884794F85C10202081
:101A50008840304231D021680968C9062DD5A86078
:101A600094F8350005282068016806D0490347D559
:101A7000006800031DD4616C1CE021F016010160B8
:101A80002068416921F080014161206C08B9A06C97
:101A900020B12068016821F00801016094F85C1011
:101AA0003F208840A86084F8349084F83580216D08
:101AB0001FE0E16B09B120468847606D00282BD0FC
:101AC000606DC00714D0052084F8350020680168D7
:101AD00021F0010101600098401C0090B84203D839
:101AE00020680068C007F6D184F8349084F8358007
:101AF000E16C002910D001B02046BDE8F043084752
:101B00000168C905D5D4016821F01001016084F88D
:101B1000349084F83580CCE7BDE8F8832C000020B1
:101B20002DE9F041044600F0B7F906465CB1002506
:101B300084F83450022084F835002068016821F0D0
:101B4000010101600DE00120BDE8F08100F0A4F981
:101B5000801B052805D920206065032084F8350006
:101B6000F2E720680068C007F0D1226811682048B9
:101B70000140D4E901031843D4E903363343184341
:101B800063691843A3691843E3691843236A184338
:101B90000843616A042903D1D4E90B1319430843AC
:101BA000106020684069666A20F0070130460E43E5
:101BB000012704280CD1A06A0643E06A40B1204600
:101BC000FFF796F920B14020606584F83570BAE7D8
:101BD000206846612046FFF777F994F85C203F21A2
:101BE00091408160656584F835700020ACE70000A5
:101BF0003F8010F070B5044690F8340000250128AD
:101C00000CD0012084F8340094F835600020012EB7
:101C100006D084F834000225284670BD022070BD2D
:101C2000022684F8356060652046FFF78BF920684E
:101C3000016841F001010160EEE72DE9F041044641
:101C4000866D90F83400002501280DD0012084F81D
:101C5000340094F835700020012F07D084F8340048
:101C600002252846BDE8F0810220FBE7022784F820
:101C7000357060652046FFF765F994F85C103F20E9
:101C80008840B0602068016841F01601016020685A
:101C9000416941F080014161206C20B120680168F8
:101CA00041F0080101602068016841F00101016014
:101CB000D7E700002DE9F84FDFF890B100224FF090
:101CC00001084FF0030A4FF00F090BF1040E00BF9B
:101CD0000B6808FA02F42340A3426ED14D68022D2E
:101CE00001D0122D0ED1D50800EB850CDCF8205068
:101CF0005607F70E09FA07F6B5430E69BE402E43A4
:101D0000CCF82060066855000F790AFA05FC07F048
:101D1000030726EA0C06AF40374307604E68012EE2
:101D200005D0022E03D0112E01D0122E0ED18768BD
:101D3000CE6827EA0C07AE403E4386604668A6435D
:101D40000C79C4F30014944034434460C4688E6832
:101D500024EA0C04AE402643C6604C68E4006FD50C
:101D60003B4C256845F480452560246822F0030536
:101D700004F480440094374C2E19D6F8084895078F
:101D80002F0F09FA07F5AC43334DA84201D10025C6
:101D90002EE0324DA84201D1012529E0304DA84264
:101DA00001D1022524E02F4DA84201D103251FE0D7
:101DB0002D4DA84202D104251AE041E02B4DA84246
:101DC00001D1052514E02A4DA84201D106250FE0D6
:101DD000284DA84201D107250AE0274DA84201D18C
:101DE000082505E0254DA84201D1092500E00A2576
:101DF000BD402543C6F80858DBF800405D464E68F4
:101E00009C43F60300D51C432C60DEF80040754669
:101E10004E689C43B60300D51C432C600B4D08351F
:101E20002C684E689C43F60200D51C432C60074D7D
:101E30000C352C684E689C43B60200D51C432C60C0
:101E4000521C102AFFF444AFBDE8F88F003C01405B
:101E500044380240003001400000024000040240CB
:101E600000080240000C0240001002400014024032
:101E700000180240001C02400020024000240240E2
:101E8000426931EA020200D10904816170470AB156
:101E9000816170470904FBE70148806870470000D2
:101EA0002000002002488168027811448160704758
:101EB000200000200B4810B5016841F4007101605A
:101EC000016841F480610160016841F48071016042
:101ED000032000F08FF80F2000F006F800F040F823
:101EE000002010BD003C024010B500220146541EE7
:101EF00088B0204600F05EF8204600F04DF8144807
:101F00000024016841F010010160006805A900F09B
:101F100010000690684600F017F900F035F90D49F9
:101F20004000B0FBF1F10D480B4A491E026040F23F
:101F3000E732C0E90324C0E9011400F028FB10B126
:101F4000012008B010BD054800F03DFBF9E7000096
:101F50004038024040420F00001000407005002051
:101F60000C4882B0016841F480410160006800F4CF
:101F7000804000900748001F016841F080510160D7
:101F80000068002200F0805000900F21901E02B0E7
:101F900000F010B844380240002809DB00F01F02AE
:101FA000012191404009800000F1E020C0F80011BB
:101FB00070470000F0B40E4B1B680C46C3F30223BD
:101FC000C3F10705042D00D90425191D072901D2E5
:101FD000002300E0DB1E012606FA05F1491E214020
:101FE00099409E40761E16403143F0BC02F0D1B9B4
:101FF0000CED00E0064900F0070208684FF6FF0309
:10200000184040EA0220034A10430860704700006D
:102010000CED00E00000FA052DE9F0470E46050042
:1020200065D0DFF81481D8F80000F7B200F00F0097
:10203000B04207D288F80070D8F8000000F00F0016
:10204000B04254D128683D4C810712D5400703D5D2
:10205000206840F4E05020602878000703D520680D
:1020600040F4604020602068A96820F0F000084338
:1020700020602878C0072DD03049686808390128C9
:1020800012D0022813D0032811D00968890700292B
:102090002DDA216821F0030101432160FFF7FCFEE6
:1020A000814641F2883A0EE009688903EFE7096842
:1020B0008901ECE7FFF7F0FEA0EB0901514502D9D9
:1020C0000320BDE8F0872068696800F00C00B0EBE1
:1020D000810FEFD1D8F80010404601F00F01B14256
:1020E00007D90770006800F00F00B04201D001204E
:1020F000E7E72878400705D52068E96820F4E05034
:10210000084320602878000706D52068296920F454
:10211000604040EAC100206000F056F82168084A9B
:10212000C1F30311515CC840064908600F20FFF756
:10213000DBFE0020C5E70000003C024008380240FA
:102140006C7900082C0000200F2202600C4A1368F2
:1021500003F003034360136803F0F0038360136824
:1021600003F4E053C36012684FF4E05303EAD20271
:1021700002610448006800F00F000860704700002A
:1021800008380240003C02400448054900680968DC
:10219000044AC1F38221515CC84070472C000020E2
:1021A000083802407C79000804480549006809683D
:1021B000044AC1F34231515CC84070472C000020F2
:1021C000083802407C790008154810B5006810F006
:1021D0000C02144813D01449042A0FD0082A0ED137
:1021E0000F4C241F2268236802F03F025B0207D5D0
:1021F0002068C0F38810A0FB010106E0084610BD6E
:102200002168C1F38811A1FB00010023FEF74AF801
:102210002168C1F30141491C4900B0FBF1F010BD38
:10222000083802400024F400001BB7002DE9F84FE5
:10223000050076D02878DFF8F8B2BE4CC00749D048
:10224000DBF800105846C1F38101012908D000686D
:10225000C0F3810002280AD1201D0068400206D583
:102260002068800336D568680028E2D032E06868CC
:10227000B0F5803F10D0B0F5A02F206810D020F42A
:1022800080302060206820F4802020606868A0B141
:10229000FFF702FE06460CE0206840F48030F4E7C9
:1022A00040F480202060F7E7FFF7F6FD801B6428EC
:1022B00073D820688003F7D50CE0FFF7EDFD0646E4
:1022C00005E000BFFFF7E8FD801B6428F0D8206818
:1022D0008003F7D42878DFF8608280074FF0000988
:1022E0003ED5DBF80010584611F00C0F09D00068FD
:1022F000C0F3810002280BD18D48001F0068400206
:1023000006D42068800715D5E868012809D111E0B6
:10231000E868B8B10120C8F80000FFF7BDFD064627
:1023200005E002E1FFF7B8FD801B0228C0D8206855
:102330008007F7D52068296920F0F80040EAC1003D
:1023400020600DE0C8F80090FFF7A6FD064604E007
:10235000FFF7A2FD801B02281FD820688007F7D452
:102360002878000722D5724E744869696C3671B1BD
:1023700001210160FFF790FD074604E0FFF78CFDA7
:10238000C01B022809D830688007F7D50EE0C0F8D6
:102390000090FFF781FD074605E083E0FFF77CFD35
:1023A000C01B02287ED830688007F7D42878400701
:1023B00068D5DFF87CA100270AF1380ADAF80000B6
:1023C000C0000BD4DAF8001041F08051CAF80010B8
:1023D000DAF80000012700F080500090584E306875
:1023E000C00510D4306840F480703060FFF754FDB1
:1023F000009005E0FFF750FD0099401A022851D8DF
:102400003068C005F6D54A4EA868683601280FD056
:102410000528306810D020F001003060306820F0CE
:1024200004003060A868B8B1FFF736FD00900FE0F7
:10243000306840F00100F4E740F004003060F7E756
:10244000FFF72AFD0099411A41F28830814264D891
:1024500030688007F4D50EE0FFF71EFD009007E01E
:10246000FFF71AFD0099411A41F28830814254D891
:1024700030688007F4D42FB1DAF8001021F08051D1
:10248000CAF80010A869C0B3DBF80010C1F38101DD
:1024900002294AD00228484607D0C8F86000FFF752
:1024A000FBFC00E039E005463AE04746C8F860002A
:1024B000FFF7F2FC064604E0FFF7EEFC801B022863
:1024C0002BD820688001F7D4D5E907010843A96A11
:1024D0001C4A490802EB01416A6A41EA8211084339
:1024E00095F82C1040EA01611148001F016001209D
:1024F0003866FFF7D1FC054605E014E0FFF7CCFC99
:10250000401B022809D820688001F7D50BE000BFE6
:10251000FFF7C2FC401B022802D90320BDE8F88F58
:1025200020688001F4D40020F8E70120F6E70000DD
:10253000083802400038024000004742800E4742FF
:10254000007000400000FFFF7047704770B590F8C2
:102550003C20012A19D0012400F83C4F022242708D
:1025600050F83C3C5A689D6822F070060A68496839
:10257000324325F0800529435A6050F83C2C916085
:10258000447000210170084670BD022070BD10B576
:10259000040003D094F83D0010B107E0012010BD05
:1025A000002084F83C00204600F00CF8022084F85B
:1025B0003D00211D206801F0EDFA012084F83D0066
:1025C000002010BD70470168CA6842F00102CA606D
:1025D0000068816801F00701062903D0016841F015
:1025E00001010160002070472DE9F0410D46040013
:1025F00003D094F83D0018B108E00120BDE8F08157
:10260000002084F83C00204600F03AF8022084F8CC
:102610003D002068816844F2070291438160211DDA
:10262000206801F0B7FA226890689169166A2B68F1
:10263000AF69034340F20330814341EA0721A868B0
:10264000EF6908434FF6FC418843E96840EA0720F8
:10265000014328692F6A000140EA0730084369688E
:102660006D6926F0AA0646EA05152943936022689B
:10267000906120680162012084F83D000020BDE7E0
:1026800010B586B0044614216846FDF755FE226851
:10269000354C002135480223A24223D1334A10325F
:1026A000146844F008041460126802F008020592ED
:1026B000026842F080020260006800F0800005902D
:1026C0004FF440600090CDE90131CDE90313694634
:1026D0002748FFF7EFFA002205213220FFF76AFCB6
:1026E00032203DE0234CA2423CD1204A14321468EF
:1026F00044F002041460126802F0020205920268BB
:1027000042F480720260006800F4807005906020DE
:102710000090CDE901310320CDE903106946164848
:10272000FFF7C8FA002205212B20FFF743FC2B20DE
:10273000FFF732FC002205212C20FFF73BFC2C2068
:10274000FFF72AFC002205212D20FFF733FC2D2066
:10275000FFF722FC002205212E20FFF72BFC2E2064
:10276000FFF71AFC06B010BD000C004030380240E4
:10277000001C02400004014000200240704770B578
:102780000446006801694FF00005C943890715D464
:10279000C168C943890711D4E91E0161012020776E
:1027A000206880698007204602D0FFF7E7FF04E039
:1027B00000F0C2F8204600F061F925772068016931
:1027C000C943490717D4C168C943490713D46FF0F7
:1027D00004010161022020772068806910F4407FA5
:1027E000204602D0FFF7CAFF04E000F0A5F820461B
:1027F00000F044F9257720680169C943090716D418
:10280000C168C943090712D46FF0080101610420AF
:1028100020772068C0698007204602D0FFF7AEFF0E
:1028200004E000F089F8204600F028F925772068B8
:102830000169C943C90617D4C168C943C90613D47D
:102840006FF010010161082020772068C06910F442
:10285000407F204602D0FFF791FF04E000F06CF8C3
:10286000204600F00BF9257720680169C943C907A4
:1028700008D1C168C943C90704D1891E0161204636
:1028800000F0FEF820680169C943090609D4C1684F
:10289000C943090605D46FF0800101612046FFF7A6
:1028A00053FE20680169C943490609D4C168C94378
:1028B000490605D46FF040010161204600F0EAF8B6
:1028C00020680169C94389060BD4C168C9438906D8
:1028D00007D46FF0200101612046BDE87040FFF78A
:1028E00034BE70BD10B586B0044614216846FDF7AD
:1028F00023FD0E492068884215D10D480021026849
:1029000042F008020260006800F0080005904FF4F1
:10291000704000900220CDE90101CDE90310694625
:102920000448FFF7C7F906B010BD000000080040DA
:1029300030380240000C0240704770B5044690F8F1
:102940003C000D4601280DD0012684F83C60022091
:1029500084F83D0042B1042A18D0082A2AD00C2A53
:102960004DD139E0022070BD206801F077F9206870
:10297000816941F0080181612068816921F00401C9
:102980008161206881692A69114311E0206801F0A2
:1029900095F92068816941F400618161206881694D
:1029A00021F480618161206881692A6941EA0221FC
:1029B000816124E0206801F0B7F92068C16941F025
:1029C0000801C1612068C16921F00401C16120686A
:1029D000C1692A69114311E0206801F0D9F9206822
:1029E000C16941F40061C1612068C16921F480615D
:1029F000C1612068C1692A6941EA0221C16184F884
:102A00003D60002084F83C0070BD10B5040003D088
:102A100094F83D0010B107E0012010BD002084F8BB
:102A20003C00204600F00CF8022084F83D00211DF7
:102A3000206801F0AFF8012084F83D00002010BDAF
:102A400008B500680B49884212D10B48016841F073
:102A5000040101600068002200F0040000900621DB
:102A60001E20FFF7A7FABDE808401E20FFF794BA22
:102A700008BD0000000800404038024070470000D8
:102A800000680349884201D1FFF70CBA7047000083
:102A900000100040704710B504460068416994F882
:102AA0003920C1F3C011212A0BD151B1416921F064
:102AB00080014161206B08B1FEF709FF204601F05B
:102AC000EDF92068416994F83A20C1F38011222A77
:102AD0000BD151B1416921F040014161606B08B1F6
:102AE000FEF7F5FE204601F0CBF9002010BD08B539
:102AF000C16B082903D1006801684068009008BDD7
:102B000070B5026804461068D168536910F00F0F61
:102B100051D003F0010501F4907635435DD0C20732
:102B200005D0CA0503D5E26B42F00102E263420719
:102B300005D5DA0703D0E26B42F00202E2638207B6
:102B400005D5DA0703D0E26B42F00402E263020724
:102B500005D5DA0703D0E26B42F00802E263E26BCC
:102B6000002A34D0800604D5880602D5204601F01C
:102B70009EF920684069E16BC0F3801001F0080104
:102B80000143204624D001F07BF9206841694906C1
:102B90001AD5416921F040014161606BA0B11B4928
:102BA0000165606BFEF7DAFE002810D0606B016DE6
:102BB000BDE87040084783060FD58B060DD520462B
:102BC000BDE8704001F073B92046FFF790FF70BD7B
:102BD000FFF78DFF0020E06370BD030606D50B06EE
:102BE00004D52046BDE8704001F002BB4006F3D595
:102BF0004806F1D5D168204621F04001D16020215E
:102C000084F8391000F03BFA70BD0000E13D000887
:102C100070B5040004D094F83900002510B106E026
:102C2000012070BD84F83850204600F023F824209D
:102C300084F839002068C16821F40051C160204641
:102C400001F080F92068016921F490410161206858
:102C5000416921F02A0141612068C16841F40051B5
:102C6000C160E563202084F8390084F83A00002030
:102C700070BD00002DE9F04F87B00446142168466E
:102C8000FDF75AFBA848DFF89C821438D4F800C03E
:102C9000DFF894A20221012203270723002506154D
:102CA0004FF04009C44555D1DAF8008048F01008CB
:102CB000CAF80080DAF800C00CF0100CCDF814C08F
:102CC000D0F800C04CF0020CC0F800C0D0F800C032
:102CD0000CF0020CCDF814C0D0F800C04CF0010C80
:102CE000C0F800C000688B4600F00100059080200D
:102CF000CDE9000BCDE9022790469A466946049338
:102D00008A48FEF7D7FF7010CDE9000BCDE90287A6
:102D10006946CDF810A08648FEF7CCFF864F85485F
:102D20003860C7E903567D61BD61FD613D62700495
:102D30007D62C7E901093846FEF7F2FE08B1FEF7E9
:102D4000A2F92763002206212520BC63FFF732F990
:102D5000252067E0DFF8E481DFF8CCB1DFF8E0E1BF
:102D6000ABF1040BC44562D1DBF80080AA4648F4FD
:102D70000038CBF80080DBF800C00CF4003CCDF844
:102D800014C0D0F800C04CF0080CC0F800C00068B7
:102D9000049300F00800059060208DE887006946E4
:102DA0007046FEF787FFDFF89081664908F16008FA
:102DB00040464FF00067C8F80010C0E90175C0E94F
:102DC0000356C8F814504FF4003BC8F81850C8E92F
:102DD000075BC8F82450FEF7A3FE08B1FEF753F9CD
:102DE000554D5848C4F83480C0351830C8F83840BC
:102DF00085E88102C5E903A6C5F814A0C5F818A0A6
:102E0000C5E907AB2846C5F824A0FEF789FE08B13E
:102E1000FEF739F92563002206212620AC63FFF76F
:102E2000C9F82620FFF7B8F807B0BDE8F08FDFF843
:102E30001881C44522D1DBF8005045F48025CBF839
:102E40000050DBF8004004F480240594046844F04A
:102E5000080404600068049300F0080005904FF433
:102E600040708DE8870069467046FEF723FF002218
:102E700005212720FFF79EF82720D3E7334B9C45F9
:102E8000D2D1DAF800C04CF0200CCAF800C0DAF851
:102E9000003003F020030593036843F04003036010
:102EA000006800F0400005904FF484408DE88700F2
:102EB0000820049069462648FEF7FCFE1D48254F71
:102EC00090384FF020683860C7E90185C7E903569C
:102ED0007D61BD61FD613D6238467D62FEF720FE89
:102EE00008B1FEF7D0F86763BC631A4F114860372A
:102EF0001838C7E903567D61BD61FD613D627D62A1
:102F000087E801033846FEF70BFE08B1FEF7BBF871
:102F10002763002206214720BC63FFF74BF84720B8
:102F200080E70000001001404438024000040240E5
:102F300000000240B86402409003002000440040BA
:102F4000000C02408860024000480040001401402C
:102F500000180240B0040020F8B5044690F83A008A
:102F600020283CD1C1B3BAB394F83800012836D038
:102F7000012084F83800A162A2850025E5632220A3
:102F800084F83A00636B1748D863636B164818647B
:102F9000636B1648D864606B134605650846666B1C
:102FA000216802463046091DFEF747FE2068016889
:102FB0004168009184F83850C16841F48071C16063
:102FC0002068416941F0010141612068416941F097
:102FD000400141610020F8BDFFE70120FBE702202E
:102FE000F9E700003B3E0008773E0008F13D00088D
:102FF00090F83A30202B22D1F9B1F2B190F8383064
:10300000012B1CD081628285C2850021C1632222EE
:1030100080F83A2080F838100168CA6842F480725B
:10302000CA6001684A6942F001024A610068C168E9
:1030300041F02001C160002070470120704702204C
:103040007047000008B50068094988420FD1094857
:103050000078FDF7CFFF08480068016840680090DD
:10306000BDE80840012203490348FFF7C1BF08BD7E
:103070000048004080430020100300207047704744
:10308000FEE70000104810B50E49016003214160C1
:1030900000214FF400228160C0E903124FF4401276
:1030A00042610122027641768276C17601774277CB
:1030B000FEF765FA002803D0BDE81040FDF7E3BF36
:1030C00010BD00000064004080010020104810B5D1
:1030D0000E4901600321416000214FF4002281600C
:1030E000C0E903124FF44012426101220276417698
:1030F0008276C17601774277FEF741FA002803D045
:10310000BDE81040FDF7BFBF10BD000000680040E3
:10311000A80100201D4808B5016841F400110160B4
:10312000016801F400110091016841F4800101601F
:103130000068002200F48000009005211020FEF7B6
:1031400039FF1020FEF728FF002205211120FEF78D
:1031500031FF1120FEF720FF002205213920FEF764
:1031600029FF3920FEF718FF002205214520FEF730
:1031700021FF4520FEF710FF002206214620FEF722
:1031800019FFBDE808404620FEF706BF3038024070
:1031900010B5A4B0142227496846FDF7B4F8002101
:1031A000684603F077FD244C224914222060143134
:1031B00005A8FDF7A8F8002105A803F06BFD1D493F
:1031C0006060142228310AA8FDF79DF800210AA8A2
:1031D00003F060FD1749A06014223C310FA8FDF7F1
:1031E00092F800210FA803F055FD1249E060142267
:1031F000503114A8FDF787F8002114A803F04AFD08
:103200000C4920611422643119A8FDF77CF80021D3
:1032100019A803F03FFD07496061142278311EA808
:10322000FDF771F800211EA803F034FDA06124B061
:1032300010BD0000D878000804000020F0B587B069
:1032400014216846FDF778F831480024016841F000
:1032500040010160016801F040010591016841F001
:1032600001010160016801F001010591016841F06F
:1032700002010160016801F002010591016841F05D
:1032800008010160016801F008010591016841F43D
:1032900080710160016801F480710591016841F05D
:1032A00080010160016801F080010591016841F031
:1032B00020010160016801F020010591016841F0E1
:1032C000100101600068134E00F010004FF48045BB
:1032D0000590002229463046FEF7D9FD0E4F002208
:1032E00080213846FEF7D3FD00950125CDE9015434
:1032F000694630460394FEF7DDFC80200090CDE95E
:103300000154694638460394FEF7D4FC07B0F0BD7B
:1033100030380240001402400010024010B58AB05C
:10332000002407941C2168460894FDF705F82348FB
:10333000214901605921C0E9011440F6C311C0E9D7
:1033400003148461FFF761FB08B1FDF79CFE07944D
:1033500007A91A480894FFF7F9F808B1FDF793FE9A
:10336000602000904FF47A70CDE901040022694694
:1033700012480494FFF7E1FA08B1FDF784FE042235
:1033800069460E48FFF7D9FA08B1FDF77CFE08221E
:1033900069460A48FFF7D1FA08B1FDF774FE0C221E
:1033A00069460648FFF7C9FA08B1FDF76CFE034805
:1033B000FFF798FA0AB010BD00080040D0010020C5
:1033C00010B58CB024216846FCF7B6FF00241448E1
:1033D000099412490A94C0E900148460C46004612D
:1033E00084610120CDE90004CDE902040494CDE913
:1033F0000540079469460A480894FFF7F5F808B1B4
:10340000FDF741FE099409A905480A94FFF79EF8C3
:10341000002801D0FDF737FE0CB010BD000C0040B5
:103420001002002010B58CB024216846FCF784FF00
:1034300000241548099413490A94C0E900148460D3
:10344000C4600461446184610120CDE90004CDE9D8
:1034500002040494CDE90540079469460A4808949B
:10346000FFF7C2F808B1FDF70EFE099409A9064856
:103470000A94FFF76BF8002801D0FDF704FE0CB0AA
:1034800010BD000000040140500200200C4810B59F
:103490000A4901604FF4E1314160002181600C2252
:1034A000C160C0E904128161C161FFF7B1FB00286E
:1034B00003D0BDE81040FDF7E6BD10BD001001408F
:1034C000900200200C4810B50A4901604FF4E13128
:1034D0004160002181600C22C160C0E90412816159
:1034E000C161FFF795FB002803D0BDE81040FDF750
:1034F000CABD10BD00440040D00200200C4810B5E9
:103500000A4901604FF4E1314160002181600C22E1
:10351000C160C0E904128161C161FFF779FB002835
:1035200003D0BDE81040FDF7AEBD10BD004800401F
:10353000100300200C4810B50A4901604FF4E13136
:103540004160002181600C22C160C0E904128161E8
:10355000C161FFF75DFB002803D0BDE81040FDF717
:1035600092BD10BD0014014050030020FEE7000092
:1035700010B5B0EE621A2DED048BB0EE408AB0EEBD
:10358000613A9FED1F0A1F49F0EE423A71EE002AA0
:103590009FED1D0AF0EE608A12EE900A884201DD6E
:1035A00072EEC02A194912EE900A884201D972EED1
:1035B000802AF0EE630AB0EE430AF0EE481AB0EE4D
:1035C000682AB0EE609AF0EE409AFDF7D9FAB0EEB4
:1035D000601A70EE290A31EE091AB6EE000A60EEA2
:1035E000800A21EE000A70EEC80A30EE680A00F088
:1035F000E1FEDFED070ABDEC048B20EE200A10BDD2
:103600000000B442000034430000B443000034C35F
:10361000E62E65427047F0B514460E460746FDF7A4
:1036200033FD0346384600F0FFF90146002002E072
:103630003A5C3254401C9842FADB0025F554581C81
:1036400006E0A0EB030C3A5CA444401C0CF8012CEF
:103650008842F6DB65545B1C04D131463846FDF7E1
:10366000F9FB2570F0BD012003F0FEFAFBE7000036
:10367000494C4A4D4A4E88B06069002853D02068B2
:10368000002850D06068012802D002287FD15BE07A
:10369000A069E8B3434FA1684FF4FA60CDE9000197
:1036A00097ED010A3C494148BDEEC00A0C3110EECD
:1036B000103A97ED000ABDEEC00A10EE102A9FEDF9
:1036C0003A0A03F0B5FD4FF4C87041F27071CDE9CC
:1036D0000310CDE90565D7ED000A3448E16897EDA0
:1036E000010A00EB8102FDEEE00ABDEEC00AD2F84D
:1036F00090310093CDED010A8DED020A50F8213092
:1037000092EDC80AD7ED020A294A2A492A4800E060
:103710000AE002F00DFB00BFD4E90201814236DB72
:103720006068401C606032E04FF4617140F21450F8
:10373000CDE900014FF4C86300211C48A26802F0E3
:10374000FBFD0120A061E7E70020F060E860B6F92A
:103750000000DFED1A0A00EE100A1748B8EEC00AA2
:1037600003F0B0FABDEEC00A86ED080A95ED030A33
:10377000B5F90000F8EEC00A00EE100A0D48B8EEE8
:10378000C00A03F09FFABDEEC00A85ED080A0220C8
:1037900003F06AFA70E70000A0000020284900202A
:1037A000004900204844002000009643504A002071
:1037B000184F0020904900205049002000000000D0
:1037C0001CB50B4D0B4E0C4F00244FF40078A8692C
:1037D00048B100940194308C414603B2388C02B257
:1037E0000648FDF78EF9022003F03EFAEFE70000ED
:1037F000A00000202849002000490020800100206E
:10380000094C4FF4C8760125606948B902F0C8FB3D
:1038100003F0F6FC2069411C2161B04200DB6561C8
:10382000322003F021FAEFE7A00000201FB5DFF8F7
:103830006C904C46D9F8140000282BD080211848F1
:10384000FEF71EFB4FF480411648FEF719FB16A049
:10385000E16800F063FD18A0616800F05FFDDFF82B
:103860006480D8F80400FCF72AFF06460F46D8F813
:103870000000FCF724FF04460D46D8F80800FCF7CA
:103880001EFF8DE8F00041EC100B0FA053EC102B45
:1038900000F044FDC82003F0E7F9CAE7A0000020CB
:1038A00000100240001402406E6F775F706F696E07
:1038B000742025640D0A0000737465702025640D62
:1038C0000A00000048440020616E6720252E326601
:1038D000207820252E3266207920252E3266200D74
:1038E0000A000000012003F0BFF9FBE7012003F00C
:1038F000BBF9FBE72DE9F04106462DED088B4FF0B3
:1039000000089FED438B4446B0EE489AF0EE689A6B
:10391000305D58B1A0F130010A2903D32E2801D01F
:103920002D2803D1641CE4B20A2CF1D3002504E055
:10393000705D2E2803D06D1CEDB2A542F8D3002790
:103940009FED35AB15E0F05D2D2818D03038FCF731
:1039500086FE41EC1B0B53EC1A2B51EC190BFCF7B8
:103960009DFD53EC1B2BFCF7F2FC41EC190B7F1C6B
:10397000FFB2AF42E7D37F1CFDB22F4618E04FF0F5
:103980000108F4E7705D30380A2813D2FCF767FEAF
:1039900041EC1B0B53EC1A2B51EC180BFCF77EFD82
:1039A00053EC1B2BFCF7D3FC41EC180B6D1CEDB258
:1039B000A542E7D300259FED1AABE41B0AE000BF48
:1039C00053EC1A2B51EC180BFCF768FD41EC180B6B
:1039D0006D1CEDB2AC42F3DC53EC182B51EC190B1F
:1039E000FCF7B5FC41EC100BB8F1000F05D051EC21
:1039F000100B81F0004141EC100B51EC100BFCF767
:103A000071FEBDEC088B00EE100ABDE8F0810000ED
:103A10000000000000000000000000000000244042
:103A20009A9999999999B93F014600200A5C401CDE
:103A3000002AFBD1401E704770B50B46074C04E0CE
:103A4000E618C55C761A5B1C35709342F8DB0020E3
:103A50002244511A0870014870BD000050450020F2
:103A600010B5FEF71FFABDE8104003F009B90000D9
:103A700030B593B030216846FCF75EFC14210CA8E9
:103A8000FCF75AFC1A480025016841F0805101609A
:103A9000006800F0805011901648016821F4404100
:103AA00041F4804101600068022400F4404011901C
:103AB00001200090000401908001CDE9064006201D
:103AC0000890A820CDE9090404200B906846FEF771
:103AD000ADFB0F20CDE90C0480200E904001CDE914
:103AE0000F0502210CA8FEF797FA13B030BD0000B5
:103AF00040380240007000401048016841F47001F5
:103B000001600F48016841F0010101600C4A002189
:103B10000832116002680B4B1A400260031D0A4A0A
:103B20001A60026822F48022026005480C300160AD
:103B300002495806803908607047000088ED00E0AF
:103B400000380240FFFFF6FE103000240148FEF767
:103B500016BE0000D00100200148FEF710BE000094
:103B6000100200200148FEF70ABE000050020020AB
:103B70000148FEF704BE0000500200200148FEF795
:103B8000FEBD0000500200200148FEF7F8BD000015
:103B900050020020F0B50268254C264D264E274FD6
:103BA000274B4FF0804CA04209D0604507D0A84277
:103BB00005D0B04203D0B84201D0984204D122F0DF
:103BC000700E4A6842EA0E02A0421BD0604519D02E
:103BD000A84217D0B04215D0B84213D0984211D0A5
:103BE000184DA8420ED0184DA8420BD0174DA84230
:103BF00008D0174DA84205D0164DA84202D0164D48
:103C0000A84203D122F44075CA682A434D6922F0C4
:103C100080022A4302608A68C2620A688262A04205
:103C200001D0984201D10969016301214161F0BDD0
:103C3000000001400004004000080040000C00406B
:103C400000040140004001400044014000480140A0
:103C500000180040001C004000200040F0B5026A3F
:103C600022F001020262036A42688469124E24F063
:103C700073050C682C4323F002058B682B430D4D14
:103C8000A84201D0B04205D123F00807CB683B43DE
:103C900023F00403A84201D0B04205D14D6922F4BB
:103CA000407215438A692A434260846149684163CE
:103CB0000362F0BD0000014000040140F0B5026A5B
:103CC00022F010020262026A436884690D6824F4DB
:103CD000E64444EA05248D6822F0200242EA0512F7
:103CE0000F4D104EA84201D0B04206D1CF6822F04D
:103CF000800242EA071222F04002A84201D0B042FC
:103D000007D14D6923F4406343EA85038D6943EA93
:103D1000850343608461496881630262F0BD0000ED
:103D20000000014000040140F0B5026A22F48072F4
:103D30000262026A4368C46922F4007224F07305C7
:103D40000C68124E2C438D6842EA05220E4DA842A3
:103D500001D0B04206D1CF6822F4006242EA0722C5
:103D600022F48062A84201D0B04207D14D6923F409
:103D7000405343EA05138D6943EA05134360C46168
:103D80004968C1630262F0BD0000014000040140C7
:103D900030B5026A22F480520262046A4268C36942
:103DA0000D6823F4E64343EA05238D6824F40054A8
:103DB00044EA0534084DA84202D0084DA84204D177
:103DC0004D6922F4804242EA85124260C36149682B
:103DD0000164046230BD00000000014000040140A5
:103DE00010B5806B0021C185C184FEF780FE10BD37
:103DF00070B5846B2068406994F83910C0F3C01026
:103E00000025212904D118B1E584204600F046F8A8
:103E10002068406994F83A10C0F38010222904D138
:103E200018B1E585204600F02BF8E06B40F010005B
:103E3000E0632046FEF75BFE70BD10B50146806B67
:103E400009680968C90513D40021C1850168CA68D9
:103E500022F48072CA6001684A6922F001024A6154
:103E600001684A6922F040024A61202180F83A1034
:103E7000FFF7E8F810BD10B5806BFFF7FFF810BD35
:103E80000168CA6822F49072CA6001684A6922F027
:103E900001024A61202180F83A1070470168CA681F
:103EA00022F0C002CA60202180F83910704710B596
:103EB00090F83A10222901D0022010BD8168B1F596
:103EC000805F11D00169002901681FD0496801F0A5
:103ED0007F03816A4A1C82620B70C18D491E0904EE
:103EE000090CC18518D02BE00269816A002A02689A
:103EF000526805D0D2B20A80816A491C8162ECE71F
:103F0000C2F308020A80816A891CF7E74A68816A5D
:103F10004B1C83620A70E0E70168CA6822F0200245
:103F2000CA600168CA6822F48072CA6001684A697E
:103F300022F001024A61202180F83A10FFF782F84E
:103F4000002010BD2DE9F041044600680169E268D7
:103F500021F44051114301612169A068E2690843DD
:103F60006169114322680843D16849F20C6399439F
:103F70000143D16020684169A26921F44071114375
:103F80004161E2696425B2F5004F9748974922687C
:103F90004FF032083FD08A4201D082427CD1FEF7F6
:103FA00003F900EBC00101EB001061688900B0FB70
:103FB000F1F6FEF7F9F800EBC00101EB00106168C3
:103FC0008900B0FBF1F0B0FBF5F06FF01801484349
:103FD00006EB800108EB0110B0FBF5F000F0F006F5
:103FE000FEF7E2F800EBC00101EB00106168890008
:103FF000B0FBF1F0B0FBF5F006EB0016FEF7D4F8DD
:1040000000EBC00101EB001061688900B0FBF1F723
:10401000FEF7CAF8D2E08A4201D082423DD1FEF7D3
:10402000C3F800EBC00101EB001061684900B0FB70
:10403000F1F0B0FBF5F00601FEF7B6F800EBC001B9
:1040400001EB001061684900B0FBF1F7FEF7ACF836
:1040500000EBC00101EB001061684900B0FBF1F01A
:10406000B0FBF5F06FF01801484307EB800108EB57
:10407000C100B0FBF5F000F0F80006EB4006FEF7DB
:1040800093F800EBC00101EB001061684900B0FB40
:10409000F1F7FEF789F83CE055E0FEF775F800EB24
:1040A000C00101EB001061684900B0FBF1F0B0FB0A
:1040B000F5F00601FEF768F800EBC00101EB001017
:1040C00061684900B0FBF1F7FEF75EF800EBC00154
:1040D00001EB001061684900B0FBF1F0B0FBF5F0B6
:1040E0006FF01801484307EB800108EBC100B0FBFB
:1040F000F5F000F0F80006EB4006FEF745F800EB9F
:10410000C00101EB001061684900B0FBF1F7FEF758
:104110003BF800EBC00101EB001061684900B0FB07
:10412000F1F0B0FBF5F06FF01801484307EB8001A8
:1041300008EBC100B0FBF5F000F007002168304447
:104140008860BDE8F081FEF71FF800EBC00101EBCD
:10415000001061688900B0FBF1F6FEF715F800EB7E
:10416000C00101EB001061688900B0FBF1F0B0FB09
:10417000F5F06FF01801484306EB800108EB0110E1
:10418000B0FBF5F000F0F006FDF7FEFF00EBC0011C
:1041900001EB001061688900B0FBF1F0B0FBF5F0B5
:1041A00006EB0016FDF7F0FF00EBC00101EB00107D
:1041B00061688900B0FBF1F7FDF7E6FF00EBC00195
:1041C00001EB001061688900B0FBF1F0B0FBF5F085
:1041D0006FF01801484307EB800108EB0110B0FBBA
:1041E000F5F000F00F00A9E70014014000100140B5
:1041F00090F83910212901D0022070478168B1F56B
:10420000805F016A0BD04A1C026202680978516023
:10421000C18C491E0904090CC1840ED017E009881D
:104220000268C1F30801516001690029016A02D0E6
:10423000491C0162ECE7891CFBE70168CA6822F0AF
:104240008002CA600068C16841F04001C16000207E
:10425000704700000148FEF753BC000090020020A8
:104260000B220249024800F041B800001C43002024
:10427000D00200200148FEF743BC000010030020DC
:104280001C220249024800F031B80000E44300203B
:10429000500300202DE9F041044600680F461D46FA
:1042A000416816463846FDF7A5FC2068416941F093
:1042B000400141612068C16841F01001C1602A4697
:1042C00031462046FEF748FE2068416941F0010171
:1042D0004161BDE8F08110B504460122FEF788FE79
:1042E0002068416941F00101416110BDF8B50368E2
:1042F0000446154618680E46C043C0060CD418681C
:10430000586800902046FEF7C6FB2A4631462046F4
:10431000BDE8F840FEF720BEF8BDFEE70FB4054B40
:1043200010B503A9044A029801F056F910BC5DF8D3
:1043300014FB0000956900087801002003B401987F
:104340004100009850EAC12018BF04204A0D18BF50
:1043500040F0010040F2FF72B2EB515F08BF40F045
:104360000200012808BF052002B070474100080282
:1043700018BF04200A0E18BF40F001004FF07F4222
:1043800032EA010108BF40F00200012808BF052001
:1043900070470907090E002804DB00F1E02080F8CF
:1043A0000014704700F00F0000F1E02080F8141DA9
:1043B0007047000010EE100A10B510EE901A4FF082
:1043C000684202EB40032DED028BB3F1654F3CBF19
:1043D00002EB4102B2F1654F7CD200BFC0F3C7537C
:1043E000C1F3C7529A1A1B2A09DD10F0004F14BFFF
:1043F0009FED6E0A9FED6E0ABDEC028B10BD12F1AF
:104400001A0F1BDA11F0004F09D010F0004F0CBF4B
:104410009FED680A9FED680ABDEC028B10BD80EE2F
:10442000208A18EE100AFFF7A1FF042808BF00F049
:10443000F3FFB0EE480ABDEC028B10BD4200B2EBB8
:10444000410F37D910F0004F19BFDFED5C1A9FED17
:104450005C1ADFED5C1A9FED5C1AB0EE602A0A462A
:10446000F1EE400A80F00041B0EE420A10460A1A0E
:104470005200B2F1807F34D2484010F0004FDFED9F
:10448000532A9FED533A1DBFBEEE002A71EEE21A89
:1044900031EE431AB6EE002A04BF71EEA21A31EED5
:1044A000031AF0EE402A42EE602A40EE020A82EE43
:1044B000A02A18E011F0004F04BF9FED461AF0EE5D
:1044C000411AD4D010F0004F1CBFDFED431A9FED0E
:1044D000431A00E026E004BFDFED411A9FED411AC8
:1044E000C5E780EE202A22EE020ADFED3F0ADFED6B
:1044F0003F2ABDEC028B40EE202ADFED3D0A40EE64
:10450000220ADFED3C2A40EE202ADFED3B0A40EE96
:10451000220A22EE000A00EE201A31EE020A30EEE4
:10452000210A10BD4FF07F42B2EB400F28BFB2EB23
:10453000410F05D2BDEC028BBDE8104000F068BF12
:1045400040EA01035B0008BF41F0FF410BD0B2EB32
:10455000400F08BFB2EB410F08D120F0804000EEC1
:10456000100A21F0804100EE901A37E7B2EB400FBD
:1045700012BF5FEA410240F0FF4001F000413FF40A
:104580002DAF4A0092EA40033FF528AF002AACBFA6
:104590009FED1A1A9FED1A1A20EE010A60EE810AA9
:1045A00010EE100A10EE901A18E70000DB0FC9BFDA
:1045B000DB0FC93FDB0F4940DB0F49C00000C9BF1B
:1045C00022AAFDB90000C93F22AAFD390060ED3ED4
:1045D000C30ACE3700000000000049C022AA7DBAFD
:1045E0000000494022AA7D3A2DAD65BD8FB8D53D6A
:1045F0000FB511BE61C84C3EA8AAAABE0000804FEC
:104600000000802F0000000010B52F499FED2C1BEB
:104610002DED020B84B0059820F000408842D8BFF1
:104620009DED040B2DDD2949884209D1049840B93C
:104630004FF0010000F008FF00F0CAFE06B010BD08
:1046400005DB9DED040B00F0B7FE06B010BD68461B
:104650009DED040B00F020F910F0030004BF9DED68
:10466000021B9DED000B0CD001280ED09DED021B0E
:104670009DED000B022817D0012000F05DFC06B074
:1046800010BD00F025FB06B010BD9DED021B9DED99
:10469000000B012000F050FC51EC100B81F00041A8
:1046A00006B041EC100B10BD00F012FB51EC100BEA
:1046B00081F0004106B041EC100B10BD000000007D
:1046C0000000000000000000FB21E93F0000F07F37
:1046D00010B52F499FED2C1B2DED020B84B00598D2
:1046E00020F000408842DCBF00209DED040B32DD4D
:1046F0002849884209D1049840B94FF0010000F0E0
:10470000A3FE00F065FE06B010BD05DB9DED040BB9
:1047100000F052FE06B010BD68469DED040B00F09F
:10472000BBF810F0030011D0012818D09DED021B3A
:104730009DED000B02281AD000F0CAFA51EC100BC4
:1047400081F0004106B041EC100B10BD9DED021B45
:104750009DED000B012000F0EFFB06B010BD9DEDBC
:10476000021B9DED000B00F0B3FA06B010BD012056
:1047700000F0E2FB51EC100B81F0004106B041EC7F
:10478000100B10BD00000000000000000000000041
:10479000FB21E93F0000F07F00B52DED048BB0EE6A
:1047A000409AF0EE609A83B051EC190BFCF791F847
:1047B00041EC180B18EE100A18EE901A8DED008BD4
:1047C000002818BF0120084320F00040C0F17F609E
:1047D00000F1E040C00F14D019EE101A19EE900A43
:1047E0008DED009B002918BF0121084320F00040F7
:1047F000C0F17F6000F1E040C00F04BF012000F075
:1048000023FEB0EE480A03B0F0EE680ABDEC048B5C
:1048100000BD00000000000010B51D499FED1A1BEF
:104820002DED020B84B0059820F000408842DCBFDB
:1048300001209DED040B21DD1649884209D1049821
:1048400040B94FF0010000F0FFFD00F0C1FD06B0DF
:1048500010BD05DB9DED040B00F0AEFD06B010BDF4
:1048600068469DED040B00F017F800F001000121EF
:10487000A1EB40009DED021B9DED000B00F0F4FB51
:1048800006B010BD000000000000000000000000A5
:10489000FB21E93F0000F07F2DE9F14F04462DEDAB
:1048A000020B2DED088B8AB09FEDE70B80ED020B1C
:1048B000139EE74826F0004585420ADC9DED120B69
:1048C000002084ED000B0AB0BDEC088B03B0BDE8FE
:1048D000F08FE0489FEDE0AB9FEDE1BBA84247DDE4
:1048E000E14F9FEDE39B9FEDE48B9DED120B53ECAD
:1048F0001A2B51EC100B002E1CDDFBF7C9FD41EC0F
:10490000100BBD4208D053EC1B2B51EC100BFBF7E6
:10491000BFFDC4E900010BE053EC192B51EC100B67
:10492000FBF7B6FD53EC182BFBF7B2FDC4E9000111
:104930000120C8E7FBF70BFD41EC100BBD4208D08E
:1049400053EC1B2B51EC100BFBF701FDC4E90001EC
:104950000BE053EC192B51EC100BFBF7F8FC53EC6C
:10496000182BFBF7F4FCC4E900014FF0FF30AAE775
:10497000C348A84279DB9DED120B51EC100B01F0FE
:10498000FDFF41EC180B9FEDC00B53EC102BFBF718
:1049900085FD9FEDBF1B53EC112BFBF7D8FCFBF7FC
:1049A0006FFE0746FBF75BFE41EC190B53EC1A2B2D
:1049B000FBF774FD53EC182BFBF76DFD41EC180B66
:1049C00053EC1B2B51EC190BFBF768FDDFF8C8A269
:1049D00041EC100B4FEA15580125FA4453EC102B0B
:1049E00051EC180BFBF754FD032DC4E900013DD039
:1049F000C1F30A5005EB4511A8EB000011398142C3
:104A000034DA0AEB051BB0EE48AA9BED000BF0EE82
:104A100068AA53EC102B51EC190BFBF73FFD41EC4E
:104A20001B0B51EC1A0B53EC1B2BFBF731FD41EC2C
:104A3000180B51EC1A0B53EC182BFBF729FD53EC18
:104A40001B2BFBF725FD9BED020B41EC1A0B53ECE6
:104A5000102B51EC190BFBF721FD53EC1A2BFBF734
:104A600017FD41EC100B6D1CB8E70EE0002EA8BF3F
:104A70003846BFF628AF94ED000B51EC100B81F0D7
:104A80000041C4E9000178421DE7C6F3130040F479
:104A9000801EC6F30A50A0F2F530471100F01F0542
:104AA000C5F12000DDF848B008900020069007907E
:104AB0000520EC467949002D07EB0002794408BF38
:104AC00051F8221009D051F8223001EB8201AB409D
:104AD0004A68089922FA01F11943A1FB0E26A1FBAD
:104AE0000B131A449A4234BF0123002303EB060838
:104AF0000CEB8003D3E901A60E448E4234BF0121A2
:104B0000002192448A4411B1924502D903E09245B2
:104B100001D2012100E00021C3E901A641444CF883
:104B20002010011EA0F10100C4DC029800F1005029
:104B3000850F0298DDE903678000DDF81480FBF73C
:104B40008EFD41EC1A0B3046FBF756FF9FED541BD0
:104B500053EC112BFBF7A2FC41EC1B0B3846FBF787
:104B60004BFF9FED511B53EC112BFBF797FC41ECD6
:104B7000180B4046FBF740FF9FED4D1B53EC112BEC
:104B8000FBF78CFC41EC190B51EC180B53EC192B77
:104B9000FBF7DDFB53EC1B2BFBF7D9FB53EC1A2B7C
:104BA000FBF7D5FBCDE90801002008909DED080B2F
:104BB00053EC1A2B51EC100BFBF76AFC53EC1B2B3C
:104BC000FBF766FC53EC182BFBF762FC53EC192B3C
:104BD000FBF761FC9FED381B53EC112BFBF75EFCE0
:104BE0009FED370B41EC180B53EC102B9DED080B90
:104BF00051EC100BFBF752FC53EC182BFBF7A7FB07
:104C00009FED310B41EC180B53EC102B9DED080B75
:104C100051EC100BFBF742FC53EC182BFBF797FB06
:104C200041EC100B139810F0004F06D06D4251EC80
:104C3000100B81F0004141EC100B284684ED000B75
:104C400041E600000000000000000000000000003D
:104C5000FB21E93F7CD9024000004054FB21F93F91
:104C60003163621A61B4D03DFB21F93F00000000BE
:104C70000000601A61B4D03D7370032E8A19A33B03
:104C8000FB2139410000000083C8C96D305FE43F5B
:104C9000000000000000E03FDA2F0000282F000095
:104CA000000000000000103E000000000000103C6A
:104CB000000000000000103A182D4454FB21F93D7B
:104CC0003326A611460B113C00000054FB21F93D90
:104CD00010B52DED040B2DED088B82B0B0EE419A8E
:104CE000F0EE619A0B9820F000449FED4BABB4F1CD
:104CF000795F11DA9DED0A0B51EC100BFBF7C0FC4C
:104D0000002801BFB0EE4A0AF0EE6A0A02B0BDEC1C
:104D1000088B04BF04B010BD9DED0A0B53EC102BA3
:104D200051EC100BFBF7BAFB41EC180B3C48062189
:104D3000B0EE480AF0EE680A784400F081F853ECCF
:104D4000182B51EC100BFBF7A9FB9DED0A0B41EC66
:104D50001B0B53EC192B51EC100BFBF79FFB41EC99
:104D6000190B53EC1B2B51EC180BFBF797FB53EC77
:104D7000192BFBF78DFB9FED2C0B41EC190B53EC22
:104D8000102B51EC180BFBF789FB41EC100B28485A
:104D9000844210DA53EC192B51EC100BFBF778FB23
:104DA00053EC1A2BFBF777FB41EC100B02B0BDEC78
:104DB000088B04B010BD1F48A042BCBF9FED1E1B56
:104DC0008DED001B06DBA4F5001001900020009083
:104DD0009DED001B51EC100B53EC112BFBF758FB16
:104DE0009DED000B41EC180B53EC102B51EC1A0B02
:104DF000FBF74EFB41EC1A0B53EC192B51EC180B43
:104E0000FBF746FB53EC1A2BFBF745FB41EC100B71
:104E1000CCE7000000000000000000000000F03FB0
:104E20004C2C000000000000000000000000E03FEB
:104E30003333D33F0000E93F000000000000D23FC1
:104E400070B504462DED028B4D1E00EBC500B0EE93
:104E5000408AF0EE608A90ED000B35F0060017D026
:104E600053EC182B51EC100BFBF718FB41EC100B1B
:104E70006D1E04EBC50090ED001B51EC100B53ECC4
:104E8000112BFBF764FA41EC100B35F00600E7D16B
:104E9000022D36D0042D1CD0062D1CBFBDEC028B7C
:104EA00070BD53EC182B51EC100BFBF7F7FA94ED97
:104EB0000A1B53EC112BFBF74AFA53EC182BFBF7A8
:104EC000EDFA94ED081B53EC112BFBF740FA41EC83
:104ED000100B53EC182B51EC100BFBF7DFFA94ED91
:104EE000061B53EC112BFBF732FA53EC182BFBF794
:104EF000D5FA94ED040B53EC102BFBF728FA41EC98
:104F0000100B53EC182B51EC100BFBF7C7FA94ED78
:104F1000021B53EC112BFBF71AFA53EC182BFBF77F
:104F2000BDFA94ED001B53EC112BFBF710FABDEC0E
:104F3000028B41EC100B70BD31B504462DED040B16
:104F40002DED0A8BB0EE41BAF0EE61BA0B989DEDF3
:104F50000A0B20F00040B0F1795F0DDA51EC100B34
:104F6000FFF7ECF9042808BF00F042FA9DED0A0BA8
:104F7000BDEC0A8B05B030BD53EC102B51EC100B7F
:104F8000FBF78CFA41EC180B9DED0A0B53EC182B38
:104F900051EC100BFBF782FA41EC190B2C48B0EEE8
:104FA000480AF0EE680A05217844FFF749FF9FEDB3
:104FB0002ACBB0EE40AAF0EE60AA9CB353EC1C2BB7
:104FC00051EC190BFBF76AFA41EC1C0B53EC1A2B52
:104FD00051EC190BFBF762FA9FED210B41EC190B19
:104FE00053EC102B51EC1B0BFBF758FA53EC192B1D
:104FF000FBF74EFA53EC182BFBF750FA53EC1B2B34
:10500000FBF746FA53EC1C2BFBF742FA9DED0A1B0B
:1050100053EC112BFBF73FFABDEC0A8B05B041ECCA
:10502000100B30BDFFE753EC1A2B51EC180BFBF7BC
:1050300035FA53EC1C2BFBF78AF953EC192BFBF7D1
:105040002DFA9DED0A1B53EC112BFBF780F9E3E7DA
:10505000D42A000000000000495555555555C5BFDC
:10506000000000000000E03FF1B506462DED040B06
:10507000BD482DED0C8B8AB0B0EE418AF0EE618A0E
:10508000179D25F000449FEDBABB9FEDBBCB84423A
:1050900008DA9DED160B51EC100BFBF7F1FA002826
:1050A00000F0E980B64FA74231DC002D0DDA9DED0E
:1050B000160B51EC100B81F00041CDE9160151ECBB
:1050C000180B81F0004141EC180B9FEDAF0B53EC36
:1050D000102B9DED160B51EC100BFBF7DCF953EC8C
:1050E000182B9FEDAB0BCDE9040151EC100BFBF736
:1050F000CFF941EC100B53EC102B9DED040B51EC50
:10510000100BFBF724F99FEDA48BCDE916019DED63
:10511000160B53EC102B51EC100BFBF7BFF9CDE93C
:1051200004019DED040B53EC102B51EC100BFBF71D
:10513000B5F941EC190B9A480621B0EE490AF0EE98
:10514000690A7844FFF77CFE9648B0EE40DAF0EE4C
:1051500060DAB0EE490AF0EE690A06217844FFF7FA
:105160006FFE9DED041B51EC100B53EC112BFBF764
:1051700095F99DED040B41EC1A0B53EC102B9DEDB2
:10518000160B51EC100BFBF789F941EC190B53ECA2
:105190001A2B51EC1D0BFBF7DAF853EC192BFBF72C
:1051A0007DF953EC182BFBF7D2F89DED041B53EC63
:1051B000112BFBF773F953EC182BFBF7C8F841ECF4
:1051C000180B9FED790B51EC190B53EC102BFBF7DF
:1051D00065F953EC182BFBF7BAF841EC190B9DED70
:1051E000160B53EC192B51EC100BFBF7B0F841ECFC
:1051F000180BA74269DC3046FBF731FA41EC1A0B79
:1052000051EC180B53EC1A2BFBF7A1F841EC1B0BDC
:1052100053EC182B51EC180BFBF740F953EC1B2BFC
:10522000FBF7AEF953EC192BFBF732F99DED161B8A
:1052300053EC112BFBF72FF99FED5D1B53EC112B5A
:10524000FBF72CF953EC1A2BFBF725F941EC180B63
:10525000022000EAA570C0F10100FBF700FA53EC50
:10526000182BFBF71BF900BF41EC100B0AB0BDEC8B
:105270000C8B05B0F0BD711C1698214308430CD06F
:105280009DED160B012E1CBF53EC102B51EC1C0B8B
:1052900010D000BFFBF774F9E6E79DED160B51EC5B
:1052A000100B01F06BFB41EC100B51EC1B0B53ECA2
:1052B000102BEFE751EC100BFFF740F8042808BF64
:1052C00000F096F89DED160BD0E7012E04BFB0EE6E
:1052D000480AF0EE680AC9D08DED048B00240494CE
:1052E0009DED040B53EC102B9DED160B51EC100BA8
:1052F000FBF7D1F853EC192BFBF7CDF841EC190B68
:1053000053EC182B51EC1C0BFBF73AF941EC180B42
:105310008DED008B00949DED040B53EC102B9DED57
:10532000000B51EC100BFBF7B9F853EC1B2BFBF700
:105330000EF89DED000B41EC1A0B53EC192B51ECC0
:10534000100BFBF7ABF853EC1A2BFBF700F853EC00
:10535000182BFBF7A3F89DED001B53EC112BFAF76C
:10536000F6FF81E7000000000000303E0000000072
:10537000000000000000F03F000000000000F0BF4F
:105380002894E53F00000000182D4454FB21E93F1C
:10539000075C143326A6813C0000000000000000DA
:1053A0006229000078290000635555555555D53FB1
:1053B000000000000000004010B553EC102B51EC31
:1053C000100BFAF7C4FF41EC100B10BD00000000F9
:1053D0009FED050B10B553EC102B51EC100BFBF7A8
:1053E000CFF841EC100B10BD0000000000000000E1
:1053F0009FED050B10B553EC102B51EC100BFBF788
:105400004DF841EC100B10BD000000000000001032
:1054100030EE200A704700009FED020A20EE000ADD
:10542000704700000000001002E008C8121F08C109
:10543000002AFAD170477047002001E001C1121F15
:10544000002AFBD170470000014908607047000046
:105450007C0100202DE9FF5F82B00021DDE90430EE
:10546000020DDDF840B0034318D044F61050A2F20C
:10547000FF3242431514119801281FD0A5EB0B00F1
:10548000401C5FEA000A4FF000064E4FDFF83891EB
:10549000B046504615D5CAF1000413E01198012416
:1054A0004AA3012801D16FEA0B010298119AC0E9C1
:1054B0000031C0E9024206B0BDE8F09FCBF1000028
:1054C000DFE704460021404A491842EB0450CDE989
:1054D000001012E0E00707D032463B4640464946FE
:1054E000FAF7DCFF8046894632463B4610461946AD
:1054F000FAF7D4FF06460F466410002CEAD1DDE926
:105500000401DDE90023BAF1000F06DAFAF7C6FF5D
:1055100042464B46FAF7C2FF05E0FBF731F8424638
:105520004B46FBF72DF804460E460022284BFBF7AE
:1055300039FA03D84FF0FF30014607E00022254B2F
:1055400020463146FAF703FFFBF714FA102409E06E
:10555000002C0ADB0A220023FAF7A4FE039B303258
:105560001A55641E50EA0102F2D1641C039AC4F178
:1055700011031444119A012A03D0012208430DD1CA
:105580000AE0084304D000204FF0110B119072E79D
:10559000A3EB0B056D1E0DE05B4504DD4FF0000233
:1055A00005F1010504E003DA4FF00002A5F1010561
:1055B000002AECD002981199C0E90231C0E90045F7
:1055C00079E70000000014400000F03F30000000C8
:1055D0000000F0430000E03F2DE9FF4F95B09B46EF
:1055E0008946064600250FE2252877D10024274664
:1055F000F84A0121059400E0044316F8013F203BDE
:1056000001FA03F01042F7D130782A2811D06FF058
:105610002F033078A0F13002092A16D8059A44F0F9
:10562000020402EB820203EB42021044761C059056
:10563000EFE759F8042B0592002A03DA504244F4AC
:105640000054059044F00204761C30782E2816D1C0
:1056500016F8010F44F004042A280DD06FF02F0231
:105660003078A0F13003092B09D807EB870302EB50
:105670004303C718761CF3E759F8047B761C30788F
:105680006C280FD006DC4C2817D068280DD06A286B
:1056900014D104E0742810D07A280FD10DE044F41E
:1056A00000140AE044F4801401E044F440147278D9
:1056B000824202D104F58014761C761C307866286C
:1056C0000BD013DC582877D009DC002875D045288A
:1056D000F6D04628F4D047281AD19DE118E0632877
:1056E00035D0642879D0652812D195E1702873D01F
:1056F00008DC6728F1D069286FD06E280DD06F289C
:1057000006D1B5E073282CD0752875D0782874D0D0
:105710005A46179990476D1C75E1C4F30250022850
:1057200009D003280DD0D9F8001004280DD00D6041
:1057300009F1040967E1D9F80010EA17C1E900523C
:10574000F6E7D9F800100D80F2E70D70F0E719F8D0
:10575000041B8DF8001000208DF80100EA4601209E
:1057600003E059F804AB4FF0FF3061074FF0000140
:1057700002D40DE008F101018846B9420FDA8045F4
:10578000F8DB1AF808100029F4D108E008F101014B
:1057900088468142FADB1AF808100029F6D10598EC
:1057A0005B46A0EB080721463846179A00F094FAAA
:1057B000284400EB080507E04DE029E10DE01AF868
:1057C000010B5A4617999047B8F10108F7D25B468A
:1057D00021463846179A13E142E00A220092C4F3A8
:1057E00002524FF0000A022A08D059F804CB032ACB
:1057F0004FEAEC710AD00DE029E02AE009F1070137
:1058000021F00702F2E802C1914609E00FFA8CFC90
:105810004FEAEC71042A03D14FFA8CFC4FEAEC7189
:10582000002907DA0A460021DCF1000C61EB0201D5
:105830002D2202E0220504D52B228DF8042001221E
:1058400003E0E20701D02022F7E7904659E00A2161
:1058500002E010220DE010214FF0000A00910BE051
:1058600010224FF0000A44F004040827009203E0DD
:1058700008224FF0000A0092C4F30252022A05D017
:1058800059F804CB0021032A08D009E009F10701E7
:1058900021F00702F2E802C1914605E01FFA8CFCF4
:1058A000042A01D10CF0FF0C4FF00008220728D584
:1058B000702806D0009B83F0100353EA0A0305D03A
:1058C0000EE040228DF80420012208E05CEA01028B
:1058D00006D030228DF804208DF805000222904673
:1058E000009B83F0080353EA0A030AD15CEA010231
:1058F00001D1620705D530228DF804204FF0010850
:105900007F1E582804D034A003900EA802900DE00A
:1059100036A0F9E753466046009AFAF7C3FC84467E
:105920000398825C0298401E029002705CEA0100BB
:10593000F0D1029806A9081A00F1200A600702D5E2
:1059400024F4803400E00127574502DDA7EB0A006C
:1059500000E0002000EB0A01009005984144401A45
:105960000590E00306D45B462146179A059800F09F
:10597000B3F90544002706E001A85A46C05D17990F
:1059800090476D1C7F1C4745F6DBE0030CD55B465A
:105990002146179A059800F09FF9054404E030204D
:1059A0005A46179990476D1C0099481E009000298F
:1059B000F5DC08E0029802995A460078491C0291E9
:1059C000179990476D1CBAF10001AAF1010AF1DCA8
:1059D00065E10000092801003031323334353637B3
:1059E000383961626364656600000000303132332B
:1059F00034353637383941424344454600000000CB
:105A000000F058F90544761C307800287FF4ECAD9E
:105A100019B02846BDE8F08F620700D4062709F1C7
:105A2000070222F0070CFCE80223E14603F00048DD
:105A30005FEA080C02D00FF2702C0DE05FEA045C04
:105A400002D50FF2682C07E05FEAC47C02D00FF2A7
:105A5000602C01E0AFF2700C4FF0FF3823F00043F0
:105A6000CDF850C065280CD006DC452809D0462862
:105A70001DD047283DD13DE0662818D067287ED14B
:105A800038E00021112F01DB112000E0781CCDE966
:105A9000000106A90EA8FFF7DDFCDDE90F010E9A53
:105AA00003910021009207F1010A04914DE04FF0AB
:105AB00000400097CDE9011006A90EA8FFF7CAFC27
:105AC000DDE90F0203920E9B11990022DDF80CA074
:105AD0000093049211B9791C00EB010AB7EB0A009C
