:020000040800F2
:10000000F044002081020008D71B00088117000877
:10001000D51B0008B1030008F5210008000000000E
:10002000000000000000000000000000C101000806
:1000300055040008000000001D020008111C000803
:100040009B0200089B0200089B0200089B0200081C
:100050009B0200089B0200089B0200089B0200080C
:100060009B0200089B0200089B0200089B020008FC
:100070009B0200089B0200089B0200089B020008EC
:10008000B5030008C10300089B0200089B0200089A
:100090009B0200089B0200089B0200089B020008CC
:1000A0009B0200089B0200089B0200089B020008BC
:1000B0009B0200089B0200089B0200089B020008AC
:1000C0009B0200089B0200089B0200089B0200089C
:1000D0009B0200089B0200089B0200089B0200088C
:1000E0009B0200089B0200089B0200089B0200087C
:1000F0009B0200089B0200089B0200089B0200086C
:100100009B0200089B0200089B0200089B0200085B
:100110009B0200089B0200089B0200089B0200084B
:100120009B0200089B0200089B0200089B0200083B
:100130009B0200089B0200089B0200089B0200082B
:100140009B0200089B0200089B0200089B0200081B
:100150009B0200089B020008CD0300089B020008D8
:100160009B0200089B0200089B0200089B020008FB
:100170009B0200089B0200089B0200080000000090
:100180009B0200089B0200089B0200089B020008DB
:100190009B0200089B0200089B0200089B020008CB
:1001A00000000000000000009B020008DFF80CD0F7
:1001B00000F0ECF80048004735220008F044002029
:1001C0002C4B19680868B0E8F04F80F30988BFF33A
:1001D0006F8F4FF0000080F311887047000000001F
:1001E00008480068006880F308884FF0000080F33A
:1001F000148862B661B6BFF34F8FBFF36F8F00DF15
:1002000000BF00BF08ED00E0DFF80C00016841F41A
:1002100070010160704700BF88ED00E0EFF30980D6
:10022000BFF36F8F134B1A681EF0100F08BF20ED3D
:10023000108A20E9F04F106009B44FF0500080F3AD
:100240001188BFF34F8FBFF36F8F02F075FB4FF034
:10025000000080F3118809BC19680868B0E8F04F05
:100260001EF0100F08BFB0EC108A80F30988BFF3AE
:100270006F8F704730000020EFF30580704700005B
:100280000648804706480047FEE7FEE7FEE7FEE730
:10029000FEE7FEE7FEE7FEE7FEE7FEE7A91C000833
:1002A000AD0100082DE9F05F0546002092469B460F
:1002B00088460646814640241BE02846414647467C
:1002C000224600F053F853465A46C01A914110D3C3
:1002D00011461846224600F03AF82D1A67EB01083D
:1002E0004F4622460120002100F031F817EB0009AB
:1002F0004E41201EA4F10104DFDC484631462A4667
:100300004346BDE8F09F40EA01039B0703D009E0A4
:1003100008C9121F08C0042AFAD203E011F8013BF1
:1003200000F8013B521EF9D27047D2B201E000F84A
:10033000012B491EFBD270470022F6E710B5134689
:100340000A4604461946FFF7F0FF204610BD202A52
:1003500004DB203A00FA02F1002070479140C2F11C
:10036000200320FA03F3194390407047202A04DB4E
:10037000203A21FA02F00021704721FA02F3D0401E
:10038000C2F120029140084319467047064C074DC0
:1003900006E0E06840F0010394E807009847103455
:1003A000AC42F6D3FFF706FFB42D0008D42D0008A9
:1003B000FEE70000014800F047B9000000030020FC
:1003C000014800F041B9000060030020014800F03E
:1003D0003BB90000A002002001681823CAB2103AFD
:1003E000B2FBF3F2054B6FF30901032A9B5CC36573
:1003F00000D9091D8165084670470000402D00089E
:1004000010B5014600208B698A6A4FF0C07453B161
:10041000B3F5005F15D072B1012A0CD0022A0AD0C0
:10042000032A09D104E01AB1012A06D0022A03D115
:10043000C96AC90100D5012010BDC96AA142FAD01C
:1004400010BD002AF7D0012AF2D0022AF3D0032AE5
:10045000F3D010BD7047704770B5040003D094F816
:10046000200010B104E0012070BD204600F082F8A9
:100470002068016821F00201016000F005FB0546DB
:10048000052604E000F000FB401B0A2811D8206874
:1004900040688007F6D42068016841F001010160DE
:1004A00000F0F2FA05460BE000F0EEFA401B0A28D5
:1004B00006D9606A40F40030606284F82060D2E7B8
:1004C00020684068C007EFD0207E012820680168BE
:1004D0003DD021F080010160607E01282068016824
:1004E00038D021F040010160A07E01282068016819
:1004F00033D021F020010160E07E012820680168EE
:100500002ED041F010010160207F01282068016891
:1005100029D021F008010160607F0128206801686E
:1005200024D021F004010160D4E902010843D4E998
:100530000412114308436168491E08432168C861D9
:1005400000206062012084F82000002070BD41F08E
:100550008001C0E741F04001C5E741F02001CAE752
:1005600021F01001CFE741F00801D4E741F0040188
:10057000D9E700002DE9F04387B00446142168460E
:10058000FFF7DAFE2C4B2D48DFF8A8801968D4F865
:1005900000C02A4A022503260927DFF8A49010305C
:1005A0000024491CC44515D11960012907D10168EF
:1005B00041F000710160006800F000700590106863
:1005C00040F002001060106800F0020005904FF447
:1005D000407023E0DFF86C80C44528D1D0F800C01B
:1005E0004CF0806CC0F800C0D0F800C001290CF0BD
:1005F000806CCDF814C0196007D1016841F000711A
:100600000160006800F000700590106840F0020082
:100610001060106800F0020005906020CDE9000530
:1006200002AB694683E8D000484600F047F907B0BE
:10063000BDE8F08300640040000000203038024034
:1006400000040240006800402DE9F84304464FF0E2
:100650000009CDF8009063484FF41651A56D00686D
:10066000B0FBF1F72E6894F85C10082000FA01F155
:1006700031420FD021680A6852070BD50A6822F070
:1006800004020A6094F85C108840A860606D40F035
:100690000100606594F85C104FF0010808FA01F061
:1006A000304208D021684969090604D5A860606D08
:1006B00040F00200606594F85C10042088403042ED
:1006C00008D021680968890704D5A860606D40F0EA
:1006D0000400606594F85C1010208840304218D007
:1006E00021680968090714D5A860206801684903D2
:1006F00004D50068000308D5A16C07E00168C905AE
:1007000003D4016821F008010160216C09B1204681
:10071000884794F85C1020208840304231D021680E
:100720000968C9062DD5A86094F835000528206809
:10073000016806D0490347D5006800031DD4616CE9
:100740001CE021F0160101602068416921F0800160
:100750004161206C08B9A06C20B12068016821F0CB
:100760000801016094F85C103F208840A86084F87C
:10077000349084F83580216D1FE0E16B09B120468B
:100780008847606D00282BD0606DC00714D005200D
:1007900084F835002068016821F0010101600098AB
:1007A000401C0090B84203D820680068C007F6D10A
:1007B00084F8349084F83580E16C002910D001B0C1
:1007C0002046BDE8F04308470168C905D5D4016853
:1007D00021F01001016084F8349084F83580CCE772
:1007E000BDE8F8832C0000202DE9F041044600F01C
:1007F0004BF906465CB1002584F83450022084F899
:1008000035002068016821F0010101600DE0012040
:10081000BDE8F08100F038F9801B052805D92020BB
:100820006065032084F83500F2E720680068C0079F
:10083000F0D12268116820480140D4E9010318432F
:10084000D4E903363343184363691843A369184353
:10085000E3691843236A18430843616A042903D1F2
:10086000D4E90B1319430843106020684069666A95
:1008700020F0070130460E43012704280CD1A06A5E
:100880000643E06A40B12046FFF7BAFD20B14020A0
:10089000606584F83570BAE7206846612046FFF746
:1008A0009BFD94F85C203F2191408160656584F850
:1008B00035700020ACE700003F8010F02DE9F84FC4
:1008C000DFF890B100224FF001084FF0030A4FF01B
:1008D0000F090BF1040E00BF0B6808FA02F4234065
:1008E000A3426ED14D68022D01D0122D0ED1D50834
:1008F00000EB850CDCF820505607F70E09FA07F6D6
:10090000B5430E69BE402E43CCF820600668550002
:100910000F790AFA05FC07F0030726EA0C06AF4038
:10092000374307604E68012E05D0022E03D0112EEA
:1009300001D0122E0ED18768CE6827EA0C07AE4090
:100940003E4386604668A6430C79C4F30014944085
:1009500034434460C4688E6824EA0C04AE402643E5
:10096000C6604C68E4006FD53B4C256845F4804573
:100970002560246822F0030504F480440094374C79
:100980002E19D6F8084895072F0F09FA07F5AC433A
:10099000334DA84201D100252EE0324DA84201D1AD
:1009A000012529E0304DA84201D1022524E02F4D38
:1009B000A84201D103251FE02D4DA84202D10425F4
:1009C0001AE041E02B4DA84201D1052514E02A4D43
:1009D000A84201D106250FE0284DA84201D10725E4
:1009E0000AE0274DA84201D1082505E0254DA8427F
:1009F00001D1092500E00A25BD402543C6F8085865
:100A0000DBF800405D464E689C43F60300D51C436E
:100A10002C60DEF8004075464E689C43B60300D556
:100A20001C432C600B4D08352C684E689C43F60225
:100A300000D51C432C60074D0C352C684E689C4338
:100A4000B60200D51C432C60521C102AFFF444AFA0
:100A5000BDE8F88F003C01404438024000300140BE
:100A6000000002400004024000080240000C024066
:100A7000001002400014024000180240001C024016
:100A800000200240002402400148806870470000B6
:100A9000200000200248816802781144816070477C
:100AA000200000200B4810B5016841F4007101607E
:100AB000016841F480610160016841F48071016066
:100AC000032000F08FF80F2000F006F800F040F847
:100AD000002010BD003C024010B500220146541E0B
:100AE00088B0204600F05EF8204600F04DF814482B
:100AF0000024016841F010010160006805A900F0C0
:100B000010000690684600F04FF900F06DF90D49AD
:100B10004000B0FBF1F10D480B4A491E026040F263
:100B2000E732C0E90324C0E9011400F05EFB10B114
:100B3000012008B010BD054800F073FBF9E7000084
:100B40004038024040420F0000100040C003002027
:100B50000C4882B0016841F480410160006800F4F3
:100B6000804000900748001F016841F080510160FB
:100B70000068002200F0805000900F21901E02B00B
:100B800000F010B844380240002809DB00F01F02D2
:100B9000012191404009800000F1E020C0F80011DF
:100BA00070470000F0B40E4B1B680C46C3F30223E1
:100BB000C3F10705042D00D90425191D072901D209
:100BC000002300E0DB1E012606FA05F1491E214044
:100BD00099409E40761E16403143F0BC01F00BBB9D
:100BE0000CED00E0064900F0070208684FF6FF032D
:100BF000184040EA0220034A104308607047000092
:100C00000CED00E00000FA052DE9F84317480168F3
:100C100041F0805101600068154F00F080500126BE
:100C200000903E64FFF730FF05464FF47A78114C90
:100C300005E000BFFFF728FF401B40450DD8606866
:100C4000C003F7D57E64FFF71FFF0546464607E061
:100C5000FFF71AFF401BB04202D90320BDE8F8831A
:100C600060688003F4D50020F8E7000040380240B7
:100C700000000E42007000402DE9F0470E460500CE
:100C800065D0DFF81481D8F80000F7B200F00F004B
:100C9000B04207D288F80070D8F8000000F00F00CA
:100CA000B04254D128683D4C810712D5400703D586
:100CB000206840F4E05020602878000703D52068C1
:100CC00040F4604020602068A96820F0F0000843EC
:100CD00020602878C0072DD030496868083901287D
:100CE00012D0022813D0032811D0096889070029DF
:100CF0002DDA216821F0030101432160FFF7C4FED2
:100D0000814641F2883A0EE009688903EFE70968F5
:100D10008901ECE7FFF7B8FEA0EB0901514502D9C4
:100D20000320BDE8F0872068696800F00C00B0EB94
:100D3000810FEFD1D8F80010404601F00F01B14209
:100D400007D90770006800F00F00B04201D0012001
:100D5000E7E72878400705D52068E96820F4E050E7
:100D6000084320602878000706D52068296920F408
:100D7000604040EAC100206000F056F82168084A4F
:100D8000C1F30311515CC840064908600F20FFF70A
:100D9000A3FE0020C5E70000003C024008380240E6
:100DA000482D00082C0000200F2202600C4A136816
:100DB00003F003034360136803F0F00383601368D8
:100DC00003F4E053C36012684FF4E05303EAD20225
:100DD00002610448006800F00F00086070470000DE
:100DE00008380240003C0240044805490068096890
:100DF000044AC1F38221515CC84070472C00002096
:100E000008380240582D0008044805490068096860
:100E1000044AC1F34231515CC84070472C000020A5
:100E200008380240582D0008154810B5006810F029
:100E30000C02144813D01449042A0FD0082A0ED1EA
:100E40000F4C241F2268236802F03F025B0207D583
:100E50002068C0F38810A0FB010106E0084610BD21
:100E60002168C1F38811A1FB00010023FFF71AFAE2
:100E70002168C1F30141491C4900B0FBF1F010BDEC
:100E8000083802400024F40040787D012DE9F84F35
:100E9000050076D02878DFF8F8B2BE4CC00749D0FC
:100EA000DBF800105846C1F38101012908D0006821
:100EB000C0F3810002280AD1201D0068400206D537
:100EC0002068800336D568680028E2D032E0686880
:100ED000B0F5803F10D0B0F5A02F206810D020F4DE
:100EE00080302060206820F4802020606868A0B1F5
:100EF000FFF7CAFD06460CE0206840F48030F4E7B6
:100F000040F480202060F7E7FFF7BEFD801B6428D7
:100F100073D820688003F7D50CE0FFF7B5FD0646CF
:100F200005E000BFFFF7B0FD801B6428F0D8206803
:100F30008003F7D42878DFF8608280074FF000093B
:100F40003ED5DBF80010584611F00C0F09D00068B0
:100F5000C0F3810002280BD18D48001F00684002B9
:100F600006D42068800715D5E868012809D111E06A
:100F7000E868B8B10120C8F80000FFF785FD064613
:100F800005E002E1FFF780FD801B0228C0D8206841
:100F90008007F7D52068296920F0F80040EAC100F1
:100FA00020600DE0C8F80090FFF76EFD064604E0F3
:100FB000FFF76AFD801B02281FD820688007F7D43E
:100FC0002878000722D5724E744869696C3671B171
:100FD00001210160FFF758FD074604E0FFF754FDCB
:100FE000C01B022809D830688007F7D50EE0C0F88A
:100FF0000090FFF749FD074605E083E0FFF744FD59
:10100000C01B02287ED830688007F7D428784007B4
:1010100068D5DFF87CA100270AF1380ADAF8000069
:10102000C0000BD4DAF8001041F08051CAF800106B
:10103000DAF80000012700F080500090584E306828
:10104000C00510D4306840F480703060FFF71CFD9C
:10105000009005E0FFF718FD0099401A022851D8CA
:101060003068C005F6D54A4EA868683601280FD00A
:101070000528306810D020F001003060306820F082
:1010800004003060A868B8B1FFF7FEFC00900FE0E4
:10109000306840F00100F4E740F004003060F7E70A
:1010A000FFF7F2FC0099411A41F28830814264D87E
:1010B00030688007F4D50EE0FFF7E6FC009007E00B
:1010C000FFF7E2FC0099411A41F28830814254D87E
:1010D00030688007F4D42FB1DAF8001021F0805185
:1010E000CAF80010A869C0B3DBF80010C1F3810191
:1010F00002294AD00228484607D0C8F86000FFF706
:10110000C3FC00E039E005463AE04746C8F8600015
:10111000FFF7BAFC064604E0FFF7B6FC801B022886
:101120002BD820688001F7D4D5E907010843A96AC4
:101130001C4A490802EB01416A6A41EA82110843EC
:1011400095F82C1040EA01611148001F0160012050
:101150003866FFF799FC054605E014E0FFF794FCBC
:10116000401B022809D820688001F7D50BE000BF9A
:10117000FFF78AFC401B022802D90320BDE8F88F44
:1011800020688001F4D40020F8E70120F6E7000091
:10119000083802400038024000004742800E4742B3
:1011A000007000400000FFFF70B590F83C20012A5D
:1011B00019D0012400F83C4F0222427050F83C3C08
:1011C0005A689D6822F070060A684968324325F023
:1011D000800529435A6050F83C2C916044700021EE
:1011E0000170084670BD022070BD10B5040003D028
:1011F00094F83D0010B107E0012010BD002084F8F4
:101200003C00204600F00CF8022084F83D00211D2F
:10121000206800F073FD012084F83D00002010BD1F
:1012200070470168CA6842F00102CA6000688168BC
:1012300001F00701062903D0016841F001010160B6
:10124000002070472DE9F0410D46040003D094F8CA
:101250003D0018B108E00120BDE8F081002084F8CD
:101260003C00204600F03AF8022084F83D00206857
:10127000816844F2070291438160211D206800F0DB
:101280003DFD226890689169166A2B68AF69034337
:1012900040F20330814341EA0721A868EF6908431F
:1012A0004FF6FC418843E96840EA0720014328697A
:1012B0002F6A000140EA0730084369686D6926F02B
:1012C000AA0646EA051529439360226890612068C2
:1012D0000162012084F83D000020BDE710B586B012
:1012E000044614216846FFF727F82268214C0021A4
:1012F00021480223A2421BD11F4A1032146844F035
:1013000008041460126802F008020592026842F0B4
:1013100080020260006800F0800005904FF4406099
:101320000090CDE90131CDE90313694613481DE072
:10133000134CA2421CD1104A1432146844F0020427
:101340001460126802F002020592026842F4807290
:101350000260006800F48070059060200090CDE984
:1013600001310320CDE9031069460648FFF7A6FACC
:1013700006B010BD000C004030380240001C024096
:10138000000401400020024010B586B0044614213C
:101390006846FEF7D1FF0E492068884215D10D48F6
:1013A0000021026842F008020260006800F00800B4
:1013B00005904FF4704000900220CDE90101CDE985
:1013C000031069460448FFF779FA06B010BD000023
:1013D0000008004030380240000C024070B504465E
:1013E00090F83C000D4601280DD0012684F83C60A1
:1013F000022084F83D0042B1042A18D0082A2AD0DD
:101400000C2A4DD139E0022070BD206800F0DAFCD2
:101410002068816941F0080181612068816921F0BB
:1014200004018161206881692A69114311E0206803
:1014300000F0F8FC2068816941F400618161206856
:10144000816921F480618161206881692A6941EAAA
:101450000221816124E0206800F01AFD2068C16942
:1014600041F00801C1612068C16921F00401C16136
:101470002068C1692A69114311E0206800F03CFD31
:101480002068C16941F40061C1612068C16921F42B
:101490008061C1612068C1692A6941EA0221C16194
:1014A00084F83D60002084F83C0070BD10B5040055
:1014B00003D094F83D0010B107E0012010BD0020DA
:1014C00084F83C00204600F00DF8022084F83D002E
:1014D000211D206800F012FC012084F83D0000204E
:1014E00010BD000008B500680649884208D10648CA
:1014F000016841F004010160006800F00400009000
:1015000008BD0000000800404038024070B50400EB
:1015100004D094F83900002510B106E0012070BD18
:1015200084F83850204600F023F8242084F839004D
:101530002068C16821F40051C160204600F004FD1C
:101540002068016921F4904101612068416921F01E
:101550002A0141612068C16841F40051C160E5631E
:10156000202084F8390084F83A00002070BD000083
:101570002DE9F04F87B0064614216846FEF7DCFEE1
:10158000744873493468DFF8CCC11438022201234F
:10159000032507274FF000094FF0006A4FF4806BD6
:1015A0008C4247D1DCF800104C4641F01001CCF8D9
:1015B0000010DCF8001001F010010591016841F005
:1015C00002010160016801F002010591016841F02A
:1015D000010101600068029300F001000590802085
:1015E000CDE90002CDE903579146984669465A482D
:1015F000FFF764F94FF40070CDE90009CDF80880D9
:10160000CDE9035769465548FFF758F9554D5448F9
:10161000E5E8020A4020A5E81108524845F81449B7
:10162000AC61EC612C626C6250E03563AE6307B074
:10163000BDE8F08F4749DFF83081091FDFF82CE162
:1016400044454AD1D1F800C04C464CF4003CC1F8A6
:1016500000C0096801F400310591016841F00801FA
:1016600001600068694600F00800059060208DE880
:10167000AD007046FFF722F93A4D3D4860354FF412
:1016800000392860C5E901A4C5E9034B6C61AC6170
:10169000C5E907495746D84628466C62FFF7A4F8C3
:1016A00008B1FEF7D8FE7563AE632E4D3048C035E5
:1016B0001830E5E802074020A5E81101294845F85F
:1016C0001449C030AC61C5E907496C62FFF78CF87A
:1016D0000028AAD0FEF7BFFEA7E7264EB44216D1D7
:1016E0000C6844F480240C60096801F480210591A1
:1016F000016841F0080101600068694600F00800D7
:1017000005904FF440708DE8AD0070461DE01A4919
:101710008C428CD1DCF8001041F02001CCF8001094
:10172000DCF8001001F020010591016841F0400152
:1017300001600068694600F0400005904FF4844065
:101740008DE82D00082004900C48FFF7B7F86EE7ED
:1017500000100140443802400004024000000240F2
:10176000B8640240A002002000440040000C024087
:101770008860024000480040001401400018024008
:10178000FEE700000F4810B50D49016005214160DA
:1017900000214FF400328160C0E90312520142611E
:1017A0000176012242768176C17601774177FEF794
:1017B00053FE002803D0BDE81040FEF74CBE10BD1C
:1017C0000064004090000020104810B50E490160F0
:1017D0000521416000214FF04072C0E902124FF430
:1017E0000032026152014261017601224276817625
:1017F000C17601774177FEF72FFE002803D0BDE8C0
:101800001040FEF728BE10BD00680040B800002060
:10181000154808B5016841F400110160016801F440
:1018200000110091016841F480010160006800220C
:1018300000F48000009005211020FFF7B3F910207C
:10184000FFF7A2F9002205211120FFF7ABF91120C3
:10185000FFF79AF9002205214620FFF7A3F9BDE81A
:1018600008404620FFF790B93038024010B5A4B0C8
:10187000142227496846FEF746FD0021684600F01D
:1018800014FD244C224914222060143105A8FEF7CF
:101890003AFD002105A800F008FD1D4960601422F2
:1018A00028310AA8FEF72FFD00210AA800F0FDFC50
:1018B0001749A06014223C310FA8FEF724FD002137
:1018C0000FA800F0F2FC1249E0601422503114A875
:1018D000FEF719FD002114A800F0E7FC0C49206177
:1018E0001422643119A8FEF70EFD002119A800F09A
:1018F000DCFC07496061142278311EA8FEF703FD65
:1019000000211EA800F0D1FCA06124B010BD000091
:10191000B42C000804000020194808B5016841F003
:1019200002010160016801F002010091016841F0CB
:1019300040010160016801F040010091016841F03F
:1019400001010160016801F001010091016841F0AD
:1019500008010160016801F008010091016841F48B
:1019600080710160016801F480710091016841F0AB
:1019700080010160006800F08000009008BD000058
:101980003038024010B58AB0002407941C21684604
:101990000894FEF7D1FC2348214901605921C0E990
:1019A000011440F6C311C0E903148461FFF77EFD02
:1019B00008B1FEF750FD079407A91A480894FFF7ED
:1019C000F3FB08B1FEF747FD602000904FF47A70FA
:1019D000CDE901040022694612480494FFF7FEFC99
:1019E00008B1FEF738FD042269460E48FFF7F6FC01
:1019F00008B1FEF730FD082269460A48FFF7EEFC01
:101A000008B1FEF728FD0C2269460648FFF7E6FC00
:101A100008B1FEF720FD0348FFF7B6FC0AB010BD81
:101A200000080040E000002010B58CB0242168467A
:101A3000FEF782FC00241448099412490A94C0E974
:101A400000148460C460046184610120CDE9000455
:101A5000CDE902040494CDE90540079469460A489B
:101A60000894FFF7EFFB08B1FEF7F5FC099409A90C
:101A700005480A94FFF798FB002801D0FEF7EBFC1D
:101A80000CB010BD000C00402001002010B58CB03F
:101A900024216846FEF750FC002415480994134998
:101AA0000A94C0E900148460C460046144618461E4
:101AB0000120CDE90004CDE902040494CDE90540FC
:101AC000079469460A480894FFF7BCFB08B1FEF783
:101AD000C2FC099409A906480A94FFF765FB00288F
:101AE00001D0FEF7B8FC0CB010BD000000040140AE
:101AF000600100200C4810B50A4901604FF4E13143
:101B00004160002181600C22C160C0E90412816142
:101B1000C161FFF7FBFC002803D0BDE81040FEF7D1
:101B20009ABC10BD00100140A00100200C4810B567
:101B30000A4901604FF4E1314160002181600C22CB
:101B4000C160C0E904128161C161FFF7DFFC0028B8
:101B500003D0BDE81040FEF77EBC10BD004400403D
:101B6000E00100200C4810B50A4901604FF4E13152
:101B70004160002181600C22C160C0E904128161D2
:101B8000C161FFF7C3FC002803D0BDE81040FEF799
:101B900062BC10BD00480040200200200C4810B577
:101BA0000A4901604FF4E1314160002181600C225B
:101BB000C160C0E904128161C161FFF7A7FC002880
:101BC00003D0BDE81040FEF746BC10BD0014014034
:101BD00060020020FEE77047012000F050FBFBE7A9
:101BE000012000F04CFBFBE7012000F048FBFBE785
:101BF000012000F044FBFBE7012000F040FBFBE785
:101C0000012000F03CFBFBE7012000F038FBFBE784
:101C100010B5FEF73FFFBDE8104000F03CBB0000F0
:101C200070B592B030216846FEF786FB14210CA8EF
:101C3000FEF782FB1A480025016841F080510160DF
:101C4000006800F0805011901648016841F440414E
:101C500001600068022400F44040119001200090CF
:101C6000000401908001CDE906400F260896D82097
:101C7000CDE9090404200B906846FFF707F9FEF749
:101C8000C3FF4FF4A050CDE90E50E002CDE90C6443
:101C9000109005210CA8FEF7EFFF12B070BD0000F8
:101CA00040380240007000401048016841F4700163
:101CB00001600F48016841F0010101600C4A0021F8
:101CC0000832116002680B4B1A400260031D0A4A79
:101CD0001A60026822F48022026005480C3001601C
:101CE00002495806803908607047000088ED00E01E
:101CF00000380240FFFFF6FE10300024F0B5026805
:101D0000254C264D264E274F274B4FF0804CA042A6
:101D100009D0604507D0A84205D0B04203D0B842F0
:101D200001D0984204D122F0700E4A6842EA0E02B5
:101D3000A0421BD0604519D0A84217D0B04215D0A0
:101D4000B84213D0984211D0184DA8420ED0184D69
:101D5000A8420BD0174DA84208D0174DA84205D075
:101D6000164DA84202D0164DA84203D122F4407568
:101D7000CA682A434D6922F080022A4302608A68B9
:101D8000C2620A688262A04201D0984201D1096908
:101D9000016301214161F0BD0000014000040040E9
:101DA00000080040000C00400004014000400140D9
:101DB000004401400048014000180040001C004061
:101DC00000200040F0B5026A22F001020262036ABC
:101DD00042688469124E24F073050C682C4323F08A
:101DE00002058B682B430D4DA84201D0B04205D1AE
:101DF00023F00807CB683B4323F00403A84201D03B
:101E0000B04205D14D6922F4407215438A692A43D4
:101E100042608461496841630362F0BD0000014093
:101E200000040140F0B5026A22F010020262026A68
:101E3000436884690D6824F4E64444EA05248D6807
:101E400022F0200242EA05120F4D104EA84201D0A6
:101E5000B04206D1CF6822F0800242EA071222F097
:101E60004002A84201D0B04207D14D6923F440633B
:101E700043EA85038D6943EA8503436084614968C9
:101E800081630262F0BD00000000014000040140D7
:101E9000F0B5026A22F480720262026A4368C46981
:101EA00022F4007224F073050C68124E2C438D68E6
:101EB00042EA05220E4DA84201D0B04206D1CF68B9
:101EC00022F4006242EA072222F48062A84201D092
:101ED000B04207D14D6923F4405343EA05138D699D
:101EE00043EA05134360C4614968C1630262F0BDFF
:101EF000000001400004014030B5026A22F4805223
:101F00000262046A4268C3690D6823F4E64343EA47
:101F100005238D6824F4005444EA0534084DA84292
:101F200002D0084DA84204D14D6922F4804242EA11
:101F300085124260C36149680164046230BD0000DB
:101F400000000140000401402DE9F0410446006812
:101F50000169E26821F44051114301612169A068DF
:101F6000E26908436169114322680843D16849F274
:101F70000C6399430143D16020684169A26921F44F
:101F8000407111434161E2696425B2F5004F974801
:101F9000974922684FF032083FD08A4201D08242EE
:101FA0007CD1FEF731FF00EBC00101EB001061684E
:101FB0008900B0FBF1F6FEF727FF00EBC00101EB53
:101FC000001061688900B0FBF1F0B0FBF5F06FF034
:101FD0001801484306EB800108EB0110B0FBF5F057
:101FE00000F0F006FEF710FF00EBC00101EB00105F
:101FF00061688900B0FBF1F0B0FBF5F006EB00166C
:10200000FEF702FF00EBC00101EB001061688900E0
:10201000B0FBF1F7FEF7F8FED2E08A4201D082422F
:102020003DD1FEF7F1FE00EBC00101EB001061684D
:102030004900B0FBF1F0B0FBF5F00601FEF7E4FE5D
:1020400000EBC00101EB001061684900B0FBF1F743
:10205000FEF7DAFE00EBC00101EB001061684900F9
:10206000B0FBF1F0B0FBF5F06FF01801484307EB5F
:10207000800108EBC100B0FBF5F000F0F80006EBC2
:102080004006FEF7C1FE00EBC00101EB00106168E5
:102090004900B0FBF1F7FEF7B7FE3CE055E0FEF774
:1020A000A3FE00EBC00101EB001061684900B0FB2A
:1020B000F1F0B0FBF5F00601FEF796FE00EBC00173
:1020C00001EB001061684900B0FBF1F7FEF78CFEF0
:1020D00000EBC00101EB001061684900B0FBF1F0BA
:1020E000B0FBF5F06FF01801484307EB800108EBF7
:1020F000C100B0FBF5F000F0F80006EB4006FEF77B
:1021000073FE00EBC00101EB001061684900B0FBF9
:10211000F1F7FEF769FE00EBC00101EB001061680A
:102120004900B0FBF1F0B0FBF5F06FF01801484347
:1021300007EB800108EBC100B0FBF5F000F00700F1
:10214000216830448860BDE8F081FEF74DFE00EB69
:10215000C00101EB001061688900B0FBF1F6FEF7E9
:1021600043FE00EBC00101EB001061688900B0FB89
:10217000F1F0B0FBF5F06FF01801484306EB800179
:1021800008EB0110B0FBF5F000F0F006FEF72CFEB6
:1021900000EBC00101EB001061688900B0FBF1F0B9
:1021A000B0FBF5F006EB0016FEF71EFE00EBC001DB
:1021B00001EB001061688900B0FBF1F7FEF714FE37
:1021C00000EBC00101EB001061688900B0FBF1F089
:1021D000B0FBF5F06FF01801484307EB800108EB06
:1021E0000110B0FBF5F000F00F00A9E7001401406A
:1021F00000100140FEE70907090E002804DB00F18A
:10220000E02080F80014704700F00F0000F1E0209B
:1022100080F8141D704702E008C8121F08C1002A88
:10222000FAD170477047002001E001C1121F002A57
:10223000FBD17047FEF736FCFFF7F2FCFFF76CFBB3
:10224000FFF7E6FAFFF79EFAFFF7BEFAFFF79AFBF1
:10225000FFF7EAFBFFF71AFCFFF768FCFFF782FCC9
:10226000FFF79CFCFFF746FCFFF700FB00F00EF8C1
:10227000FEE701460020842900D0C81C704710B535
:1022800000B9012000F0F6FA002010BD10B500F0F2
:1022900017FB002010BD10B500F038FC012803D05A
:1022A000BDE8104000F0F0BB10BD3EB504460D4641
:1022B000B0F90800FFF7DDFF02A9CDE90001208A8F
:1022C0002B4682B2D4E9001000F0F4FB012801D0C3
:1022D00000203EBD02983EBD2DE9F041184C0F464E
:1022E000054666692068001D00F00AFA38B92068C2
:1022F00090F82C1001208840A1698143A161681CDD
:1023000007D137B12168BDE8F0410E48091D00F042
:1023100030BA20683544B5424560216805D2A068CE
:10232000BDE8F041091D00F00CBA6068091D00F01D
:1023300008FA206B854200D22563BDE8F0810000D9
:1023400030000020DC0400202DE9F041054600F0BB
:102350001DFA2E4C2069401C206120682C4F10B1C2
:10236000E06940B32DE025602069012829D10026CD
:1023700006EB860007EB800000F0D5F9761C072EEF
:10238000F6D323488C3000F0CEF92148A03000F07D
:10239000CAF91F48B43000F0C6F91D48C83000F033
:1023A000C2F91B48DC3000F0BEF919488C3060607F
:1023B0001430A06005E02068E96AC06A884200D84D
:1023C0002560E06A401CE062E96A0120A269884059
:1023D0001043A06101EB810007EB8000291D00F094
:1023E000C8F900F0F3F9E06900280CD02068E96A28
:1023F000C06A884207D207494FF080500860BFF397
:102400004F8FBFF36F8FBDE8F081000030000020D8
:102410000004002004ED00E010B50446006B00F05D
:10242000E9F92046BDE8104000F0E4B910484FF447
:102430007051420706D0C01D0D4920F00700411A17
:10244000C1F570510B4A00230144C2E90003083969
:10245000103A21F0070111604B600B600B1AC0E9C4
:10246000001393604FF000405360D060704700004D
:10247000F00400207C000020144E154CA6F1C80783
:102480004FF08058DFF84C9012E000BF00F07EF96A
:10249000F068C568281D00F033F92069401E2061EE
:1024A000E068401EE06000F091F92846FFF7B4FFB5
:1024B000E0680028EAD138680128F9D9C9F8008015
:1024C000BFF34F8FBFF36F8FF2E70000C804002007
:1024D0003000002004ED00E02DE9F0479A46DDE9E8
:1024E000098481466FF00303206B03EB82021044E2
:1024F000089D20F00706700707D0502080F3118850
:10250000BFF34F8FBFF36F8FFEE723180A5C83F88A
:1025100034200A5C12B1401C1028F6D3002784F83E
:102520004370072D00D30625E562C4E91157201D2D
:1025300000F004F904F1180000F000F92461C5F17D
:1025400007006462A061E76484F85070524649460F
:10255000304600F0BFF82060B8F1000F01D0C8F895
:102560000040BDE8F087000030B5114900E0114699
:102570000A688242FBD34B685C18844203D14068EE
:1025800018444860084643681C18944209D1084C16
:10259000103C2468A24209D052681A4442600A687A
:1025A00012680260814200D0086030BD0460F9E723
:1025B0007C00002006484168096829B14168C96863
:1025C000C9684968016370474FF0FF31FAE70000BE
:1025D0003000002008484068401C4FF0500080F355
:1025E000118804D0BFF34F8FBFF36F8FFEE7BFF3A7
:1025F0004F8FBFF36F8FFEE7840000202DE9F0417D
:102600000546002700F090F9314E306808B9FFF711
:102610000DFFF06805424BD1C5B3083568070ED0F1
:1026200005F00700C0F108000544680707D05020F6
:1026300080F31188BFF34F8FBFF36F8FFEE72DB389
:102640007068854234D82248103001460C6801E099
:1026500020460C466168A94202D221680029F7D1C0
:1026600031688C4224D007682168016060680837AF
:10267000411B10290FD96019420708D0502080F360
:102680001188BFF34F8FBFF36F8FFEE710E04160FB
:102690006560FFF769FF61687068401A7060B26832
:1026A000904200D2B060F06801430020C4E900010C
:1026B00000F09EFA780707D0502080F31188BFF30E
:1026C0004F8FBFF36F8FFEE73846BDE8F081000003
:1026D0006C00002010B5031F4FF080741C601B1F9E
:1026E00021F001011960191F044B0B6014390A60B5
:1026F000091F6FF0020244380A6010BDD52500089A
:10270000D0E9013201699A60D0E901235A604A6830
:10271000824201D182684A60002202610868401E3C
:1027200008600868704700F108014FF0FF32C0E907
:102730000112C16001610021016070470021016147
:10274000704730B50B685A1C02D000F1080202E055
:10275000026904E02246546825689D42FAD953680C
:102760004B6099608A60516008610168491C016092
:1027700030BD42684A6093688B609368596091608D
:1027800008610168491C016070470000502080F317
:102790001188BFF34F8FBFF36F8F0A494868401C01
:1027A000486001280CD10848006810F0FF0F07D0DE
:1027B000502080F31188BFF34F8FBFF36F8FFEE778
:1027C000704700008400002004ED00E008494868DC
:1027D00028B1401E486001D180F311887047502015
:1027E00080F31188BFF34F8FBFF36F8FFEE70000B8
:1027F0008400002070B5002827D0144DA0F10804F3
:102800006168E868014207D1502080F31188BFF366
:102810004F8FBFF36F8FFEE722683AB1502080F3ED
:102820001188BFF34F8FBFF36F8FFEE78143616065
:1028300000F07AF860686968084468602046FFF72D
:1028400093FEBDE8704000F0D3B970BD6C0000206D
:102850004FF0E02000210161816105494FF47A7257
:102860000968B1FBF2F1491E41610721016170471E
:102870002C00002010B5020014D00F48806B38B136
:10288000502080F31188BFF34F8FBFF36F8FFEE7A7
:1028900000F04AF800211046FFF71EFD00F0A8F9ED
:1028A000002807D105494FF080500860BFF34F8FD3
:1028B000BFF36F8F10BD00003000002004ED00E07A
:1028C0001CB515480024CDE900402346802213A101
:1028D000144800F0EFF8012809D0401C1AD150200C
:1028E00080F31188BFF34F8FBFF36F8FFEE7502047
:1028F00080F31188BFF34F8FBFF36F8F06484FF0FF
:10290000FF31343801630121C1614461BDE81C40DD
:1029100000F040B81CBD00006400002049444C4554
:1029200000000000792400080248816B491C816383
:1029300070470000300000201448816B11B1012164
:1029400041627047002141628169B1FA81F1C1F1B0
:102950001F0101EB81020E4951F822306BB101EBEE
:10296000820101F108034A6852684A609A4201D123
:1029700052684A60D16801607047502080F3118826
:10298000BFF34F8FBFF36F8FFEE7000030000020D2
:10299000000400201CB537480168374A914207D12E
:1029A000502080F31188BFF34F8FBFF36F8FFEE786
:1029B00000683149491E884207D1502080F31188B0
:1029C000BFF34F8FBFF36F8FFEE72C49087801905C
:1029D000FF20087008788DF800009DF800009DF831
:1029E000002000F0F000904207D0502080F31188C2
:1029F000BFF34F8FBFF36F8FFEE79DF80000204BB2
:102A000000F0500018700720986005E09DF8002045
:102A100052008DF80020401E9DF800201206F5D4CB
:102A20009860032807D0502080F31188BFF34F8FA0
:102A3000BFF36F8FFEE74FF4407098600198087005
:102A40000C482030016841F470010160016841F0D8
:102A500070410160FFF7FCFE00205860FDF7D4FBD9
:102A60000848016841F040410160FDF7B9FB0020D2
:102A70001CBD000000ED00E071C20F4100E400E069
:102A80008400002034EF00E010B5502080F311885E
:102A9000BFF34F8FBFF36F8F00F046F818B10449B2
:102AA0004FF080500860002080F3118810BD0000B6
:102AB00004ED00E02DE9FF5F8346DDE90E879946CE
:102AC00016468A469000FFF799FD05001AD054205B
:102AD000FFF794FD040012D025630021CDE90241E7
:102AE000CDE900874B46324651465846FFF7F4FC85
:102AF0002046FFF729FC012004B0BDE8F09F2846DE
:102B0000FFF778FE4FF0FF30F6E700000548C16997
:102B100019B1806B18B10020704701207047022066
:102B200070470000300000202DE9F0412E4C0027B6
:102B3000A06B40B1206A401C2062606A00B101278E
:102B40003846BDE8F0816669761C666113D160681D
:102B5000006838B1502080F31188BFF34F8FBFF366
:102B60006F8FFEE76068A1686160A060A06A401C8A
:102B7000A062FFF71FFD206BDFF87080864209D34B
:102B80006068006880B16068C068C568686886422F
:102B90000DD220632068C06A00EB800158F8210044
:102BA0000128CAD90127C8E74FF0FF30F1E7281DF7
:102BB000FFF7A6FDA86A18B105F11800FFF7A0FD00
:102BC000E86A0121A26981401143A16100EB800103
:102BD00008EB8100291DFFF7CCFDE86A2168C96A6E
:102BE0008842CDD30127CBE730000020000400202D
:102BF0002DE9F0472C4D00242746A86B38B1FFF78C
:102C0000C5FDA86B401EA863A86B40B146E05020EC
:102C100080F31188BFF34F8FBFF36F8FFEE72969F1
:102C2000224E0120D1B3A6F1B40980463068E8B144
:102C3000F068C46804F11800FFF762FD201DFFF77B
:102C40005FFDE06AAA6908FA00F11143A96100EB8F
:102C5000800109EB8100211DFFF78BFDE06A2968E7
:102C6000C96A8842E2D3C5F82480DFE70CB1FFF7D8
:102C7000A1FC2C6A44B14646FFF756FF00B16E62D4
:102C8000641EF9D100202862686A38B1084901271A
:102C900038070860BFF34F8FBFF36F8FFFF796FDC4
:102CA0003846BDE8F087000030000020B404002062
:102CB00004ED00E0A82D0008D91B0008000000006A
:102CC0000000000080000000602D0008E11B0008EB
:102CD0000300000000000000000100006C2D00084F
:102CE000E91B0008020000000000000000010000D5
:102CF000782D0008F11B0008010000000000000012
:102D000000010000842D0008F91B000800000000ED
:102D10000000000000010000902D0008011C0008C8
:102D2000FFFF000000000000000100009C2D0008D3
:102D3000091C0008FEFF0000000000000001000068
:102D4000000610160006101600000000000000002B
:102D50000102030406070809000000000102030441
:102D60006D795461736B3032000000006D795461ED
:102D7000736B3033000000006D795461736B303435
:102D8000000000006D795461736B30350000000065
:102D90006D795461736B3036000000006D795461B9
:102DA000736B30370000000064656661756C7454A5
:102DB00061736B00D42D000800000020900000001B
:102DC00016220008642E00089000002060440000D5
:102DD00026220008000000000000000000000000A3
:102DE00000000000000000000000000000000000E3
:102DF00000000000010000001000000000000000C2
:102E00000024F400000000000000000000000000AA
:102E100000000000000000000000000000000000B2
:102E200000000000000000000000000000000000A2
:102E30000000000000000000000000000000000092
:102E40000000000000000000000000000000000082
:102E5000000000000000000000000000AAAAAAAACA
:042E6000000000006E
:04000005080001AD41
:00000001FF
