:020000040800F2
:100000002858002081020008C9460008793F0008EE
:1000100021460008351400081D5C0008000000009F
:10002000000000000000000000000000C101000806
:10003000951A0008000000001D0200085550000835
:100040009B0200089B0200089B0200089B0200081C
:100050009B0200089B0200089B0200089B0200080C
:100060009B0200089B0200089B0200089B020008FC
:100070009B020008551800089B0200087118000830
:100080007D180008991800089B0200084514000814
:10009000391400089B0200089B0200089B0200081C
:1000A0009B0200089B0200089B0200089B020008BC
:1000B0009B0200089B020008495100089B020008AF
:1000C0009B0200089B0200089B0200089B0200089C
:1000D0009B020008E5580008F1580008055900087F
:1000E0009B0200089B0200089B0200086151000867
:1000F00085510008795100086D5100089B020008E5
:100100009B0200089B020008555100089B02000852
:10011000F95300089B0200089B0200089B0200089C
:100120009B020008A51800089B0200089B0200081B
:100130009B0200089B0200089B0200085D14000857
:10014000511400089B0200089B0200089B02000853
:100150009B020008C1180008CD18000811590008BA
:100160009B0200089B0200089B0200089B020008FB
:100170009B0200089B0200089B0200080000000090
:100180009B0200089B0200089B0200089B020008DB
:100190009B0200089B0200089B0200089B020008CB
:1001A00000000000000000009B020008DFF80CD0F7
:1001B00000F0F6FC00480047AD8E000828580020EB
:1001C0002C4B19680868B0E8F04F80F30988BFF33A
:1001D0006F8F4FF0000080F311887047000000001F
:1001E00008480068006880F308884FF0000080F33A
:1001F000148862B661B6BFF34F8FBFF36F8F00DF15
:1002000000BF00BF08ED00E0DFF80C00016841F41A
:1002100070010160704700BF88ED00E0EFF30980D6
:10022000BFF36F8F134B1A681EF0100F08BF20ED3D
:10023000108A20E9F04F106009B44FF0500080F3AD
:100240001188BFF34F8FBFF36F8F09F03BFF4FF063
:10025000000080F3118809BC19680868B0E8F04F05
:100260001EF0100F08BFB0EC108A80F30988BFF3AE
:100270006F8F704730000020EFF30580704700005B
:100280000648804706480047FEE7FEE7FEE7FEE730
:10029000FEE7FEE7FEE7FEE7FEE7FEE7F5500008B3
:1002A000AD0100089FED1A1AF5EE000A40EE010AB2
:1002B000BDEEE00AF5EEC00A10EE100AF1EE10FAFB
:1002C00038BF401E00EE100A1349F7EE001AB8EED0
:1002D000C00A30EEC00ADFED0F0A20EE200AFCEE65
:1002E000C00A10EE900AC0F3080000EE900A01EB7D
:1002F0008000F8EE600A90ED011A70EE600A90ED51
:10030000000A71EEE01A21EE800A00EE810A7047C1
:1003100083F9223E0000004424A80008B5EEC00A7C
:10032000F1EE10FA07D2DFED1E0AB4EEE00AF1EEAC
:1003300010FAA8BF7047DFED1B0AB5EEC00A60EEE9
:10034000200ABDEEE01A11EE100AF1EE10FA38BFE5
:10035000401E00EE100A1549F7EE001AB8EEC00A6A
:1003600030EEC00ADFED100A60EE200ABCEEE00AB3
:1003700010EE100AC0F3080000EE100A01EB800036
:10038000B8EE400A90ED011A70EEC00A90ED000A36
:1003900071EEE01A21EE800A00EE810A704700003B
:1003A000CD024CB483F9223E0000004424A800088A
:1003B0002DE9F05F0546002092469B46884606469A
:1003C000814640241BE0284641464746224600F02D
:1003D000AFFA53465A46C01A914110D311461846F7
:1003E000224600F096FA2D1A67EB01084F46224686
:1003F0000120002100F08DFA17EB00094E41201E6C
:10040000A4F10104DFDC484631462A464346BDE8F4
:10041000F09F2DE9F0410024061B254671F10006EE
:1004200005DA01240027D0EB070067EB0101161E57
:1004300073F1000605DA0027D2EB0702012567EB0E
:100440000303FFF7B5FF86460E4617469C46AC42AF
:1004500004D00025D0EB050E65EB010624B1002089
:10046000D2EB000760EB030C704631463A46634618
:10047000BDE8F081002800DA4042704740EA0103FD
:100480009B0703D009E008C9121F08C0042AFAD24A
:1004900003E011F8013B00F8013B521EF9D270470E
:1004A000D2B201E000F8012B491EFBD270470022B6
:1004B000F6E710B513460A4604461946FFF7F0FF63
:1004C000204610BD2DE9FE4F804681EA0300C00F93
:1004D0000C46009021F0004123F00045B8EB0200EB
:1004E000A94105D24046214690461C460B4602468D
:1004F00023F00040104347D0270DC7F30A00C3F391
:100500000A510290401A019040286BDAC3F313009D
:1005100040F4801B0098924620B10023D2EB030ADE
:1005200063EB0B0B01985946C0F14002504600F0B6
:10053000F0F906460D4650465946019A00F008FA71
:1005400010EB08006141002487EA115284EAE77346
:100550001A4340D0009A62B3019A012A4FEA075227
:1005600015DC001B61EB02014FF0004202EA07526A
:10057000CDE90042001C41F5801132462B4600F0C7
:100580003FFA03B0BDE8F08F40462146F9E7001B73
:1005900061EB0201001C41F5801300185B4120183B
:1005A000A2F5001747EB030140EAD570B6196D417B
:1005B00011E06D084FEA360645EAC0754FEA07526A
:1005C000001B61EB0201001C41F5801149084FEA54
:1005D00030000019514132462B4603B0BDE8F04FC0
:1005E00000F0FFB90098012240000023D0EB020286
:1005F00063EBE073009821464FEAE074B8EB00002B
:1006000061EB0401E9E783F000435BE781F000411F
:1006100058E72DE9FE4F81EA030404F0004421F07D
:10062000004100944FF0000B23F0004350EA010416
:100630005ED052EA03045BD0C3F30A54C1F30A55F7
:100640002C44A4F2F3340194A0FB0254C1F313012F
:1006500041F48011C3F3130343F4801301FB0244FC
:1006600000FB034E840A970A44EA815447EA835701
:10067000A4FB076802958D0A05FB07854FEA932CBA
:1006800004FB0C542705029D4FEA065847EA16372B
:10069000B5EB08056EEB070C870E920E47EA811743
:1006A00042EA8312A7FB0201B6EB0B0164EB0004E4
:1006B0002B0D43EA0C335E1844EB1C50DA465146CE
:1006C000E7FB0201C5F313044FEA0B3343EA14536B
:1006D0004FEA0432019C43EA0603A4F10C0402949D
:1006E000009CCDE900B400F08BF903B0BDE8F08FB9
:1006F00000200146F9E72DE9F04D81EA030404F0FA
:10070000004B21F0004514464FF0000A23F0004151
:1007100050EA050220D054EA01021DD0C5F30A5761
:100720000246C5F31303C1F31300C1F30A5640F4A4
:10073000801543F48013A7EB0608101BD64608F279
:10074000FD3873EB050002D308F1010801E09218AF
:100750005B41B8F1000F03DA00200146BDE8F08DDF
:1007600000204FF48011064684460EE0171B73EB01
:10077000050705D3121B63EB050306434CEA010C86
:1007800049084FEA300092185B4150EA0107EDD169
:1007900052EA030012D082EA040083EA050108430A
:1007A00005D0101BAB4106D20122002306E0002237
:1007B0004FF0004302E06FF0010253101AEB060005
:1007C0004CEB085110EB0A0041EB0B01BDE8F04D7A
:1007D00000F007B9F0B4CA17CB0F50405140C6180B
:1007E00041F100054FEAC372314628004FF09603ED
:1007F00003D0B623F0BC00F0C6B830460021F9E7BC
:100800000EB5C10F80EAE0700844CA07002140F22B
:1008100033438DE80E000A460B4600F0F1F803B0B2
:1008200000BD3EB5CA17CB0F002450405140C01840
:100830006141DA0740F233430094CDE901232246B7
:10084000234600F0DDF803B030BD70B5C1F30A52A5
:1008500001F000450024C1F3130140F2FF3341F4DD
:1008600080119A4201DA002070BD40F233439A426F
:10087000A2F2334203DC524200F05AF800E090400A
:100880002C43F1D0404270BD00F0004230F00040F7
:100890000AD0C10D01F56071C0F3160042EA0151A2
:1008A000C20840071143704700200146704701F01D
:1008B000004330B421F0004150EA010206D00A0D95
:1008C000A2F56072C1F31301002A02DC30BC0020E3
:1008D0007047440F44EAC104C100E01830BC00EB8B
:1008E000C25000F047B830B50B4601460020202228
:1008F000012409E021FA02F59D4205D303FA02F52D
:10090000491B04FA02F52844151EA2F10102F1DC8C
:1009100030BD202A04DB203A00FA02F100207047A3
:100920009140C2F1200320FA03F31943904070472D
:10093000202A04DB203A21FA02F00021704721FA34
:1009400002F3D040C2F1200291400843194670479B
:10095000202A06DBCB17203A41FA02F043EAE07383
:1009600006E041FA02F3D040C2F120029140084370
:10097000194670470029A8BF7047401C490008BFAE
:1009800020F00100704710B4B0FA80FC00FA0CF0BF
:1009900050EA010404BF10BC704749B1CCF12004F7
:1009A00021FA04F411FA0CF118BF01212143084384
:1009B000A3EB0C01CB1D4FEA00614FEA102042BFB0
:1009C000002010BC704700EBC35010440029A4BFA6
:1009D00010BC7047401C490008BF20F0010010BC4B
:1009E000704710B5141E73F1000408DA401C41F181
:1009F000000192185B411A4301D120F0010010BDA3
:100A00002DE9F04D92469B4611B1B1FA81F202E018
:100A1000B0FA80F220329046FFF77BFF04460F4683
:100A200040EA0A0041EA0B0153465A46084313D0F4
:100A3000114653EA010019D0C8F140025046FFF7B1
:100A400077FF05460E46504659464246FFF761FF7E
:100A5000084305D0012004E020463946BDE8F08D6A
:100A60000020054346EAE0762C4337430A986305A5
:100A7000E40AA0EB08000022FD0A44EA47540A30C9
:100A800002D500200146E9E7010510196941DDE9B9
:100A9000084500196941BDE8F04DA2E72DE9F04D88
:100AA00000231A461B1A8A4103DB00200146BDE8D9
:100AB000F08DC1F30A52C1F3130141F480154FF0D8
:100AC000000BD10702D100186D41521E00270446C9
:100AD00040F2FF11384601EB620A3E46804602466C
:100AE00000204FF48011FFF723FFC2197141BB189A
:100AF00046EB0100B4EB030C75EB000C04D3E41AD5
:100B000065EB000517460E46241908F101006D41FA
:100B100080463428E3DDF91946EB0600091BA8419D
:100B200003D24FF0FF32134601E0002213461BEBC5
:100B3000070046EB0A51BDE8F04DFFF752BFC1F385
:100B40000A52C1F3130140F2FF3341F480119A427B
:100B500002DA00200146704740F233439A42A2F283
:100B6000334202DC5242FFF7E3BEFFF7D2BE000081
:100B700030B5041E71F1000404DB4FF00044404224
:100B800064EB0101141E73F1000405DB1C464FF0F9
:100B90000043524263EB0403994208BF904230BDC8
:100BA000064C074D06E0E06840F0010394E80700BA
:100BB00098471034AC42F6D3FFF7FCFAFCB10008BA
:100BC0001CB200080EB540F2334102910021CDE97C
:100BD00000110A460B46FFF713FF03B000BD70B5C6
:100BE0008C1810F8015B15F0070301D110F8013BD8
:100BF0002A1106D110F8012B03E010F8016B01F85F
:100C0000016B5B1EF9D12B0705D40023521E0DD4B6
:100C100001F8013BFAE710F8013BCB1A921C03E004
:100C200013F8015B01F8015B521EF9D5A142D8D33C
:100C3000002070BD05F05AB805F0EEB8FFF732BBE2
:100C4000F0EE400AF5EEC00AF1EE10FA02DDB0EE69
:100C5000600A7047B1EE600AFBE70000002803D08D
:100C60009FED020A80ED000A704700000000484234
:100C7000002803D09FED020A80ED000A70470000B3
:100C80000000184270B52DED0C8B84B006460C4662
:100C900015469FED990AF0EE408A9FED970AB0EE57
:100CA000409A9FED950AF0EE40BA9FED930AF0EE60
:100CB000409A9FED910AB0EE40AA0EB104B11DB961
:100CC00004B0BDEC0C8B70BD8C48FFF7C7FF8C489F
:100CD000FFF7CEFF8A48D0ED000A9FED8A1A60EE3A
:100CE000810AB0EE600A00F031F9F0EE408A28EE99
:100CF000A80AF0EE408A8248D0ED000AB0EE001A51
:100D000060EE810A9FED7F1A60EE810AB0EE600A04
:100D100000F01CF9B0EE409A29EE090AB0EE409AB4
:100D2000DFED790AB7EE000A00EEA80ADFED770AD8
:100D300000EEC90ADFED760A20EE200A754880ED44
:100D4000000A6E4890ED000ADFED730A80EE201A6B
:100D5000B7EE000A31EE000A20EE000A6D48D0ED31
:100D6000000A80EE801A6D4880ED001A94ED000AAA
:100D7000B5EEC00AF1EE10FA0DD194ED010AB5EE10
:100D8000C00AF1EE10FA06D194ED020AB5EEC00ADF
:100D9000F1EE10FA46D09FED580AB0EE408A0020DE
:100DA000019002900390D4ED000A60EEA00A94ED49
:100DB000011AD4ED011A41EE210A94ED021AD4ED84
:100DC000021A41EE210AB0EE600A00F0A9F8B0EE76
:100DD000408A94ED000A20EE080A8DED010A94ED98
:100DE000010A20EE080A8DED020A94ED020A20EEB7
:100DF000080A8DED030ADDED010AF1EE600AB0EE9E
:100E0000600AFFF717FFF0EE409A9DED031AF0EE2F
:100E1000410A9DED021AB0EE410AFFF70DFFB0EE58
:100E200040AA07E09FED340AF0EE409A9FED320AA7
:100E3000B0EE40AA95ED000AB5EEC00AF1EE10FA48
:100E40000DD195ED010AB5EEC00AF1EE10FA06D10A
:100E500095ED020AB5EEC00AF1EE10FA3CD0B0EE04
:100E6000690A00F073F8B0EE408AB0EE690AFFF745
:100E7000E5FEB0EE40DAB0EE4A0A00F067F8F0EEB8
:100E800040AAB0EE4A0AFFF7D9FEB0EE40BA28EE0B
:100E90002A0AD5ED010A20EE200AD5ED000A0DEE52
:100EA000200A68EE0B0A95ED021A00EE810AB0EEF8
:100EB00040CA95ED010A20EE0B0AD5ED020A0AEEB2
:100EC000E00AF0EE40CAF0EE6C0AB0EE4C0AFFF712
:100ED000B3FEF0EE40BA03E09FED070AF0EE40BA31
:100EE000B0EE4A1AF0EE690AB0EE6B0A304606F030
:100EF00007FE00BFE4E600000000000050020020F2
:100F00005402002035FA8E3CC1BFAD3B9DF8C5367A
:100F10002F7C1C4158020020506CC24A5C02002009
:100F200010EE100AF6EE000A074960EE200AA1EB67
:100F3000600000EE100A20EE801AF7EE080A41EE7B
:100F4000400A20EE800A7047DF59375FFFF7E6B9A5
:100F50002DE9F0412DED028B9AB00546B0EE408AA6
:100F60000E46174698460020179018901990149036
:100F7000159016904DB146B13FB1B8F1000F04D0B5
:100F8000B5EEC08AF1EE10FA05D100201AB0BDEC22
:100F9000028BBDE8F08196ED000A8DED170A96ED03
:100FA000010A8DED180A96ED020A8DED190A97EDEA
:100FB000000A8DED140A97ED010A8DED150A97EDE3
:100FC000020A8DED160A17AA14A9284606F0EAFBB4
:100FD000402104A8FFF76BFA0020009001900290D6
:100FE0000390002417A904A808F014FF00BF30E004
:100FF00004A800EB041090ED000AD5ED000A20EEE5
:10100000200A04A800EB0410D0ED010A95ED011AA6
:1010100000EE810A04A800EB0410D0ED020A95ED61
:10102000021A00EE810A04A800EB0410D0ED030AB6
:1010300095ED031A00EE810A20EE080AF0EE000A90
:1010400080EE201A684600EB840080ED001A601CD8
:10105000C4B2042CCCDB002410E005EB840090ED3E
:10106000000A684600EB8400D0ED000A30EE200A4A
:1010700005EB840080ED000A601CC4B2042CECDB9C
:10108000284608F0FBFC012080E7000030B55A49F3
:1010900001232DED028B87B00A784C78B2FBF4F077
:1010A00004FB10255548641EA54200D183708C783E
:1010B000B2FBF4F504FB1525641EA54200D1437074
:1010C000CC78B2FBF4F504FB1525641EA54200D1D3
:1010D00043720C79B2FBF4F504FB1525641EA5429E
:1010E00000D1C3724C79B2FBF4F504FB1525641EE4
:1010F000A54200D10373521C0A70027800216AB124
:10110000017000914FF4C87364224FF4967104206B
:1011100000F04CF907B0BDEC028B30BD42782AB329
:10112000374D41704FF47A74D5E90401224600230B
:10113000FFF76FF9FFF74EFB08EE100AD5E906013D
:1011400022460023FFF765F9FFF744FB07B0F0EEF6
:10115000480ABDEC028B0022BDE8304000EE100AC8
:10116000114610469FED271A00F0C6B882784AB3A0
:10117000817025480291039104910591817B007B48
:10118000CDE90001214890ED020ABDEEC00A10EE43
:10119000101A90ED010A0BB2BDEEC00A10EE101A43
:1011A00090ED000A0AB2BDEEC00A10EE101A90EDE2
:1011B000030A09B2BDEEC00A10EE100A00B200F038
:1011C00031F8A7E7427A0AB14172A3E7C27A0AB1BD
:1011D000C1729FE7027B0AB101739BE7C2780AB133
:1011E000C17097E702790AB1017193E74279002A49
:1011F00090D041718EE7000068010020664C00200D
:10120000A84C00200000000028530020FC460020CD
:101210000A460249024802F08FBE0000734C0020CB
:10122000900400202DE9F80708ACAA2594E8C01323
:10123000304C257065700225A570ADF800009DF852
:10124000010020719DF800006071ADF800109DF85C
:101250000100A0719DF80000E071ADF800209DF83C
:10126000010020729DF800006072ADF800309DF81A
:101270000100A0729DF80000E072ADF800609DF8DA
:10128000010020739DF800006073ADF800709DF8B8
:101290000100A0739DF80000E073ADF800809DF898
:1012A000010020749DF800006074ADF800909DF876
:1012B0000100A0749DF80000E074ADF800C09DF836
:1012C000010020759DF80000607512201621E07065
:1012D0000022104623461C5C401C2244C0B2D2B2FD
:1012E0008842F8D35A54BDE8F8070248491CFFF772
:1012F0008FBF0000734C00203CB4DFED2B1A01902F
:10130000284820EE210AAA2303704370BDEEC00ACC
:101310000123837010EE103AADF8003020EEA10AE0
:101320009DF8013003719DF80030BDEEC00A437195
:1013300010EE103AADF8003021EE210A9DF8013090
:1013400083719DF80030BDEEC00AC37110EE103AF3
:10135000ADF800309DF8013003729DF80030437203
:101360009DF8073083729DF80630C3729DF80530F2
:1013700003739DF8043043738173C2730C221021F0
:10138000C2700022074B10461C5C401C2244C0B2B5
:10139000D2B28842F8D35A543CBC0248491CFFF7E9
:1013A00037BF0000734C00200000C8423FB4194A08
:1013B000AA21117051700021917010719DF80500E3
:1013C00050719DF8040090719DF80900D0719DF84E
:1013D000080010729DF80D1051729DF80C1091725A
:1013E0009DF81910D1729DF81810117309200D2164
:1013F000D07000231846145C401C2344C0B2DBB2FA
:101400008842F8D3535404B0024830BC491CFFF75B
:10141000FFBE0000734C002030B50C46050008D01C
:10142000022C06D9FF22611E00F042FB291901F8A7
:10143000010C30BDFEE70000014800F0B8BC000020
:1014400068020020014800F0B2BC000068020020E1
:10145000014800F0ACBC000090020020014800F000
:10146000A6BC000090020020F0B5074600681449B1
:10147000002401250E2695B088420DD10494CDE9B3
:101480000856059401940294009469460D4803940B
:10149000CDE9064500F090FB0B49386888420DD134
:1014A000CDE90E4612950B940C940A940AA90748AC
:1014B00013960D94CDE9104500F07EFB15B0F0BDFC
:1014C0000064004068020020006800409002002094
:1014D00010B5044600F0F6FE0221204600F0F6FAB0
:1014E0002046BDE81040FFF7BFBF70B588B00826A2
:1014F000DDE90C540696002602910596110A8DF836
:1015000000108DF80120190A8DF80210290A8DF8B3
:1015100004108DF80550210A8DF806108DF803305F
:1015200004968DF8074001236A4602A900F0E0FA0C
:1015300008B070BD30EE600A0849DFED090A10EE10
:10154000100A884201DD30EE600A064910EE100AEA
:10155000884201D930EE200A704700000000344371
:101560000000B443000034C310B52DED088BB0EE7D
:10157000409AF0EE619AB0EE42AAB0EE62BADFEDA8
:101580001CAAB0EE608A21EE2A0A10EE100AFFF7BC
:101590007BF941EC100B04F06FFE51EC100BFFF7E0
:1015A00086F92BEE2A0A08EE900A10EE100AFFF7D1
:1015B0006BF941EC100B04F05FFE51EC100BFFF7E0
:1015C00076F9F0EE480A00EE100A59EE280A38EED5
:1015D000C01A49EEC00A70EE8A0A80EE810AF0EE67
:1015E000480A30EE491A48EE810ABDEC088B10BD5E
:1015F00098F98E3C70B50C46054664A100F006F9DA
:1016000018B1204607F0AAFEB9E061A1284600F013
:10161000FDF818B1204607F0D5FEB0E05DA12846E0
:1016200000F0F4F818B1204607F000FFA7E05AA137
:10163000284600F0EBF818B1204607F029FF9EE09D
:1016400056A1284600F0E2F80028DDD154A1284632
:1016500000F0DCF80028D7D152A1284600F0D6F8D7
:101660000028D1D150A1284600F0D0F80028CBD1D5
:101670004EA1284600F0CAF80028C5D14CA1284642
:1016800000F0C4F800287AD14AA1284600F0BEF83C
:10169000002874D148A1284600F0B8F800286ED17F
:1016A00046A1284600F0B2F8002868D144A1284697
:1016B00000F0ACF8002862D142A1284600F0A6F85C
:1016C00000285CD140A1284600F0A0F8002856D19F
:1016D0003EA1284600F09AF8002850D13CA12846A7
:1016E00000F094F800284AD13AA1284600F08EF87C
:1016F000002844D138A1284600F088F800283ED1BF
:1017000036A1284600F082F8C8BB35A1284600F073
:101710007DF8A0BB33A1284600F078F878BB32A151
:10172000284600F073F850BB30A1284600F06EF850
:1017300010B107F0E5FA22E02DA1284600F066F886
:10174000E8B92CA1284600F061F8C0B92AA12846C2
:1017500000F05CF898B929A1284600F057F870B954
:1017600027A1284600F052F848B926A1284600F0E3
:101770004DF820B924A1284600F048F808B100200F
:1017800070BD2146284606F04FFDF8E72A310000DB
:101790002A3200002A3300002A3400002A350000D3
:1017A0002A3600002A3700002A3800002A390000B3
:1017B00023310000233200002333000023340000D3
:1017C0002335000023360000403100004032000085
:1017D0004033000040340000403500004036000037
:1017E000403700004038000040390000243100003C
:1017F000243200002433000024340000243600008A
:1018000024370000243800002439000030B50C468D
:10181000054603F003FC0346204603F0FFFB83422A
:101820000AD1002004E0295C225C914204D1401CD2
:101830009842F8DB012030BD002030BD0022835CDF
:1018400023B18B54521C642AF9DB00E08B54012035
:101850007047000010B5044800F0C0FDBDE810401E
:10186000024806F093BE0000100500203446002018
:10187000014800F0B3BD00007005002010B5044819
:1018800000F0ACFDBDE81040024806F04DBE00007F
:10189000300600206C450020014800F09FBD00008C
:1018A0009006002010B5044800F098FDBDE81040F7
:1018B000024807F085B90000F00600209846002095
:1018C000014800F08BBD000050070020014800F0E7
:1018D00085BD0000D005002001681823CAB2103A67
:1018E000B2FBF3F2054B6FF30901032A9B5CC3655E
:1018F00000D9091D8165084670470000E8A400086A
:1019000010B5014600208B698A6A4FF0C07453B14C
:10191000B3F5005F15D072B1012A0CD0022A0AD0AB
:10192000032A09D104E01AB1012A06D0022A03D100
:10193000C96AC90100D5012010BDC96AA142FAD007
:1019400010BD002AF7D0012AF2D0022AF3D0032AD0
:10195000F3D010BD30B50468256825F480252560D6
:10196000046863608368402B036803D09960006853
:10197000C26030BD9A600068C16030BD2DE9F0479B
:1019800081460027012603F049FB051E34D00024C0
:10199000DFF868802DE0621C2146484603F046FBD4
:1019A00017A1FFF733FF88B122463946484603F0B6
:1019B0003DFB03F099FA10EE100AFEF765FF08EB05
:1019C000C602671CC2E90001761C11E0281B012831
:1019D0000ED12A463946484603F028FB03F084FA24
:1019E00010EE100AFEF750FF08EBC602C2E9000134
:1019F000641CAC42CFDB3046BDE8F087684800206D
:101A00002000000070B52149214B28280A780BD00E
:101A100012B19854521C0A7029280BD10024D0B25C
:101A200025461C540C700BE0002AF2D128201870B7
:101A30000120087070BD5819407858556D1CEDB2E2
:101A4000134803F0EBFA401EA842F4DC104803F000
:101A5000E5FA18440E4A00F8024C503AA2F114017B
:101A60000B4802F099FE0A485038FFF787FF0146FD
:101A700007486438FFF7BEFD0549002050390C5473
:101A8000401CC0B26428FAD370BD0000E000002002
:101A90009C4700207047704702460020431E115C9F
:101AA000202904D011B1401C6428F8DB1846704787
:101AB00010B5054C04E000BF10F8013B5340E25C58
:101AC000491EF9D2104610BD08A5000890F8202044
:101AD000012A07D0022A05D0416A41F480214162DF
:101AE00001207047006842690A4342610020704744
:101AF000F0B590F820500468A468012D05D0022D9F
:101B000003D0416A41F4802153E014F0406F01D1C9
:101B1000E5004BD5C4F30164022C03D9416A41F4BA
:101B2000000146E00125A5401D608D684FF4C0739B
:101B30009DB1CE6835434E6845EAC605066803EB9D
:101B40000417F5514FF4C275076805EB04150E69CB
:101B50007E51097D012905D009E00E88CD6845EA4E
:101B60004655EBE701684E5946F480764E5111799F
:101B7000D2F805504FF4C67641EA0525016806EB18
:101B800004168D511178D2F801204FF4C47541EA42
:101B90000221026805EB04155151006803EB0411A2
:101BA000425842F0010242500020F0BD416A41F427
:101BB000001141620120F0BD10B590F82020012AEB
:101BC00007D0022A05D0416A41F4802141620120F8
:101BD00010BD3B48D0F8002242F00102C0F80022BC
:101BE000D0F8002222F47C52C0F80022D0F8002263
:101BF0004B6A42EA0322C0F800220A7D02F01F036A
:101C000001229A40D0F81C329343C0F81C32CB69B1
:101C1000B3B9D0F80C329343C0F80C328C894B68BE
:101C200064F31F434C6900EBC404C4F840320C89D0
:101C30000B6864F31F434C6900EBC404C4F84432DE
:101C4000CB69012B16D1D0F80C321343C0F80C32FB
:101C50000C884B6864F31F434C6900EBC404C4F860
:101C600040320C89CB6864F31F434C6900EBC40419
:101C7000C4F844328B69002BD0F804320ED01343E1
:101C8000C0F804320B69002BD0F8143208D013438B
:101C9000C0F81432096A012904D008E09343EFE741
:101CA0009343F5E7D0F81C121143C0F81C12D0F88A
:101CB000001221F00101C0F80012002010BD000048
:101CC00000640040704730B590F82040012C05D0EA
:101CD000022C03D0416A41F480215DE004680029B0
:101CE00055D02469A40754D04FF4D874056804EB88
:101CF00001142D5915F00405956005682D594ED035
:101D0000ED08556005682C59C4F34004D4604FF4C5
:101D1000DA74056804EB01142D5905F00F051561FF
:101D200005682D59C5F30725956105682C59240CC4
:101D300054614FF4DC72046802EB0112A4581C7069
:101D40000468A458240A5C700468A458240C9C708D
:101D50000468A258120EDA704FF4DE72046802EBC7
:101D60000112A4581C710468A458240A5C71046808
:101D7000A458240C9C710468A258120EDA710068F1
:101D800081B1016941F020010161002030BDE468AA
:101D9000A8E7416A41F400114162012030BD6D0D98
:101DA0001560AFE7C16841F02001C160EDE72DE9A2
:101DB000F05F0546006800244669D0F80490876803
:101DC000D0F80CB0D0F810A0D0F81880F10748D0A7
:101DD000F90714D001218160B80703D5284600F027
:101DE0009EFA0CE0780702D54FF4006407E038074C
:101DF00002D54FF4805402E0284600F08FFAF8052F
:101E000016D529684FF480708860B80503D5284638
:101E100000F087FA0CE0780502D544F4005407E09E
:101E2000380502D544F4804402E0284600F078FAF0
:101E3000F80316D529684FF480308860B80303D5BD
:101E4000284600F070FA0CE0780302D544F4004410
:101E500007E0380302D544F4803402E0284600F05D
:101E600061FA300707D55FEACB6004D529681020F6
:101E700044F40074C86070074FF0080707D55FEAA4
:101E80000B7004D52868C760284600F0A9F9B00790
:101E900006D52868C068800702D0284600F0A2F95D
:101EA000700607D55FEACA6004D52968102044F49B
:101EB00080640861B00607D55FEA0A7004D5286817
:101EC0000761284600F0FAF9F00606D5286800698F
:101ED000800702D0284600F0F2F9B00308D55FEA87
:101EE000C96005D5296810204860284600F0E8F947
:101EF000F00307D55FEA097004D5286847602846D3
:101F000000F012FA300446D55FEA497040D5F0057A
:101F100004D55FEAC87001D044F00104B00504D5CF
:101F20005FEA887001D544F00204700504D55FEAC9
:101F3000487001D544F00404300529D518F0700F1D
:101F400026D008F07000402815D006DC102809D0F3
:101F500020280AD0302816D10AE050280ED0602858
:101F600011D10EE044F008040DE044F010040AE042
:101F700044F0200407E044F0400404E044F080040E
:101F800001E044F480742868816921F07001816166
:101F9000296804204860002C05D0686A20436862E4
:101FA0002846FFF78FFEBDE8F09F70B5040003D010
:101FB00094F8200010B104E0012070BD204600F02C
:101FC00081F82068016821F00201016000F092FCB4
:101FD0000546052604E000F08DFC401B0A2811D8B8
:101FE000206840688007F6D42068016841F001014C
:101FF000016000F07FFC05460BE000F07BFC401B1D
:102000000A2806D9606A40F40030606284F82060D3
:10201000D2E720684068C007EFD0207E0128206802
:1020200001683DD021F080010160607E01282068B8
:10203000016838D021F040010160A07E01282068AD
:10204000016833D021F020010160E07E0128206882
:1020500001682ED041F010010160207F0128206826
:10206000016829D021F008010160607F0128206803
:10207000016824D021F004010160D4E90201084381
:10208000D4E90412114308436168491E08432168DA
:10209000C86100206062012084F82000002070BD2B
:1020A00041F08001C0E741F04001C5E741F0200167
:1020B000CAE721F01001CFE741F00801D4E741F071
:1020C0000401D9E7F0B587B0044614216846FEF74D
:1020D000EEF93E4B3E48DFF8F0E01968D4F800C056
:1020E0003B4A03250226092710300024491CF445E9
:1020F0002AD11960012907D1016841F000710160FE
:10210000006800F000700590106840F00800106052
:102110001068CDE9005600F00800CDE9047069466A
:102120002C48CDE9024500F0F3FA002206211320E5
:1021300000F06EFC132000F05DFC0022062114204C
:1021400000F066FC14203BE0DFF88CE0F44539D168
:10215000D0F800C04CF0806CC0F800C0D0F800C0CF
:1021600001290CF0806CCDF814C0196007D101680A
:1021700041F000710160006800F000700590106887
:1021800040F002001060106802AB00F00200059001
:102190004FF44050CDE9000683E8B00069460F488F
:1021A00000F0B6FA002207213F2000F031FC3F206A
:1021B00000F020FC00220721402000F029FC4020F4
:1021C00000F018FC07B0F0BD0064004000000020E3
:1021D00030380240000C0240006800400004024019
:1021E0007047000030B5054600682B498FB0884223
:1021F00044D12A4B6A4600212948FFF764FD009824
:1022000000232649274CA0F50070013804D001288E
:1022100014D0022832D123E00888234A40BA5080E3
:10222000488840BA00B21080002800DA40420528F1
:1022300000DC13802068401C20601FE0088842BA40
:102240001A484280498849BA09B20180002900DA57
:102250004942052900DC03806068401C60600DE095
:102260001348428882800A8852BA4280498849BA13
:10227000018006F03FF9A068401CA0600D49286865
:10228000884206D1054B07AA083300210A48FFF708
:102290001AFD0FB030BD0000006400409000002027
:1022A00068020020E0440020D04D0020F84D0020BE
:1022B000A84C002000680040900200207047704742
:1022C0007047000070B5044690F82000012804D043
:1022D000606A40F40020606218E0022084F8200068
:1022E0002068016821F00101016000F003FB054650
:1022F0000EE000BF00F0FEFA401B0A2808D9606A11
:1023000040F400306062052084F82000012070BD98
:1023100020684068C007EDD1606270BD70477047AB
:10232000704770477047704770472DE9F041044689
:10233000876D00F0DFFA064694F835000025022884
:1023400006D08020606584F834500120BDE8F0811B
:102350002068016821F0160101602068416921F0C0
:1023600080014161206C08B9A06C20B1206801682F
:1023700021F0080101602068016821F0010101607D
:102380000BE000F0B7FA801B052806D92020606515
:1023900004F8345F03206070D8E720680068C00745
:1023A000EFD194F85C103F208840B86004F8345FA7
:1023B000012060700020C9E790F83510022903D091
:1023C0008021416501207047052180F835100068A3
:1023D000016821F001010160002070472DE9F843F8
:1023E00004464FF00009CDF8009063484FF41651B1
:1023F000A56D0068B0FBF1F72E6894F85C1008201A
:1024000000FA01F131420FD021680A6852070BD55A
:102410000A6822F004020A6094F85C108840A86000
:10242000606D40F00100606594F85C104FF00108A9
:1024300008FA01F0304208D021684969090604D53C
:10244000A860606D40F00200606594F85C100420A4
:102450008840304208D021680968890704D5A860FF
:10246000606D40F00400606594F85C1010208840B6
:10247000304218D021680968090714D5A86020687F
:102480000168490304D50068000308D5A16C07E082
:102490000168C90503D4016821F008010160216CBD
:1024A00009B12046884794F85C10202088403042CB
:1024B00031D021680968C9062DD5A86094F8350087
:1024C00005282068016806D0490347D50068000345
:1024D0001DD4616C1CE021F0160101602068416987
:1024E00021F080014161206C08B9A06C20B1206806
:1024F000016821F00801016094F85C103F208840D9
:10250000A86084F8349084F83580216D1FE0E16B79
:1025100009B120468847606D00282BD0606DC00748
:1025200014D0052084F835002068016821F00101ED
:1025300001600098401C0090B84203D820680068F1
:10254000C007F6D184F8349084F83580E16C002916
:1025500010D001B02046BDE8F04308470168C90526
:10256000D5D4016821F01001016084F8349084F81A
:102570003580CCE7BDE8F8832C0000202DE9F04140
:10258000044600F0B7F906465CB1002584F83450E3
:10259000022084F835002068016821F00101016003
:1025A0000DE00120BDE8F08100F0A4F9801B0528B2
:1025B00005D920206065032084F83500F2E7206803
:1025C0000068C007F0D12268116820480140D4E9B2
:1025D00001031843D4E903363343184363691843AE
:1025E000A3691843E3691843236A18430843616ADF
:1025F000042903D1D4E90B13194308431060206860
:102600004069666A20F0070130460E43012704281E
:102610000CD1A06A0643E06A40B12046FFF770F98A
:1026200020B14020606584F83570BAE720684661C3
:102630002046FFF751F994F85C203F2191408160DA
:10264000656584F835700020ACE700003F8010F02D
:1026500070B5044690F83400002501280CD0012004
:1026600084F8340094F835600020012E06D084F8F8
:1026700034000225284670BD022070BD022684F871
:10268000356060652046FFF765F92068016841F014
:1026900001010160EEE72DE9F0410446866D90F8F6
:1026A0003400002501280DD0012084F8340094F86E
:1026B00035700020012F07D084F834000225284609
:1026C000BDE8F0810220FBE7022784F835706065E1
:1026D0002046FFF73FF994F85C103F208840B06037
:1026E0002068016841F0160101602068416941F0ED
:1026F00080014161206C20B12068016841F008012F
:1027000001602068016841F001010160D7E7000025
:102710002DE9F84FDFF890B100224FF001084FF09B
:10272000030A4FF00F090BF1040E00BF0B6808FA03
:1027300002F42340A3426ED14D68022D01D0122D28
:102740000ED1D50800EB850CDCF820505607F70EAB
:1027500009FA07F6B5430E69BE402E43CCF8206057
:10276000066855000F790AFA05FC07F0030726EA08
:102770000C06AF40374307604E68012E05D0022E8D
:1027800003D0112E01D0122E0ED18768CE6827EA11
:102790000C07AE403E4386604668A6430C79C4F3FE
:1027A0000014944034434460C4688E6824EA0C04E6
:1027B000AE402643C6604C68E4006FD53B4C2568AC
:1027C00045F480452560246822F0030504F4804424
:1027D0000094374C2E19D6F8084895072F0F09FAA0
:1027E00007F5AC43334DA84201D100252EE0324D10
:1027F000A84201D1012529E0304DA84201D102258E
:1028000024E02F4DA84201D103251FE02D4DA84201
:1028100002D104251AE041E02B4DA84201D1052543
:1028200014E02A4DA84201D106250FE0284DA84208
:1028300001D107250AE0274DA84201D1082505E06E
:10284000254DA84201D1092500E00A25BD402543B8
:10285000C6F80858DBF800405D464E689C43F60316
:1028600000D51C432C60DEF8004075464E689C4342
:10287000B60300D51C432C600B4D08352C684E6800
:102880009C43F60200D51C432C60074D0C352C6888
:102890004E689C43B60200D51C432C60521C102A83
:1028A000FFF444AFBDE8F88F003C014044380240DB
:1028B00000300140000002400004024000080240D5
:1028C000000C0240001002400014024000180240B8
:1028D000001C02400020024000240240426931EA0C
:1028E000020200D10904816170470AB18161704719
:1028F0000904FBE7014880687047000020000020C1
:1029000002488168027811448160704720000020ED
:102910000B4810B5016841F400710160016841F491
:1029200080610160016841F480710160032000F062
:102930008FF80F2000F006F800F040F8002010BDDE
:10294000003C024010B500220146541E88B02046CB
:1029500000F05EF8204600F04DF8144800240168AD
:1029600041F010010160006805A900F01000069018
:10297000684600F017F900F035F90D494000B0FB4A
:10298000F1F10D480B4A491E026040F2E732C0E9FE
:102990000324C0E9011400F08FFC10B1012008B03D
:1029A00010BD054800F0A4FCF9E7000040380240E3
:1029B00040420F0000100040B00700200C4882B0D9
:1029C000016841F480410160006800F4804000909B
:1029D0000748001F016841F0805101600068002233
:1029E00000F0805000900F21901E02B000F010B84F
:1029F00044380240002809DB00F01F020121914009
:102A00004009800000F1E020C0F80011704700008C
:102A1000F0B40E4B1B680C46C3F30223C3F1070549
:102A2000042D00D90425191D072901D2002300E037
:102A3000DB1E012606FA05F1491E214099409E4001
:102A4000761E16403143F0BC03F03FB90CED00E0B8
:102A5000064900F0070208684FF6FF03184040EAF5
:102A60000220034A10430860704700000CED00E0AC
:102A70000000FA052DE9F0470E46050065D0DFF8A5
:102A80001481D8F80000F7B200F00F00B04207D26E
:102A900088F80070D8F8000000F00F00B04254D160
:102AA00028683D4C810712D5400703D5206840F4C3
:102AB000E05020602878000703D5206840F460408B
:102AC00020602068A96820F0F00008432060287882
:102AD000C0072DD0304968680839012812D0022873
:102AE00013D0032811D00968890700292DDA21683D
:102AF00021F0030101432160FFF7FCFE814641F212
:102B0000883A0EE009688903EFE709688901ECE774
:102B1000FFF7F0FEA0EB0901514502D90320BDE803
:102B2000F0872068696800F00C00B0EB810FEFD1EE
:102B3000D8F80010404601F00F01B14207D90770E4
:102B4000006800F00F00B04201D00120E7E72878CC
:102B5000400705D52068E96820F4E050084320606C
:102B60002878000706D52068296920F4604040EAEB
:102B7000C100206000F056F82168084AC1F3031133
:102B8000515CC840064908600F20FFF7DBFE0020BB
:102B9000C5E70000003C024008380240F0A40008ED
:102BA0002C0000200F2202600C4A136803F003037C
:102BB0004360136803F0F0038360136803F4E05389
:102BC000C36012684FF4E05303EAD2020261044882
:102BD000006800F00F0008607047000008380240ED
:102BE000003C02400448054900680968044AC1F3F2
:102BF0008221515CC84070472C00002008380240F8
:102C000000A500080448054900680968044AC1F3A2
:102C10004231515CC84070472C0000200838024007
:102C200000A50008154810B5006810F00C02144803
:102C300013D01449042A0FD0082A0ED10F4C241F98
:102C40002268236802F03F025B0207D52068C0F3C8
:102C50008810A0FB010106E0084610BD2168C1F301
:102C60008811A1FB00010023FDF7A2FB2168C1F33D
:102C70000141491C4900B0FBF1F010BD0838024089
:102C80000024F400001BB7002DE9F84F050076D0B2
:102C90002878DFF8F8B2BE4CC00749D0DBF8001046
:102CA0005846C1F38101012908D00068C0F38100B2
:102CB00002280AD1201D0068400206D52068800342
:102CC00036D568680028E2D032E06868B0F5803F09
:102CD00010D0B0F5A02F206810D020F480302060F4
:102CE000206820F4802020606868A0B1FFF702FE11
:102CF00006460CE0206840F48030F4E740F4802081
:102D00002060F7E7FFF7F6FD801B642873D8206882
:102D10008003F7D50CE0FFF7EDFD064605E000BFA8
:102D2000FFF7E8FD801B6428F0D820688003F7D403
:102D30002878DFF8608280074FF000093ED5DBF885
:102D40000010584611F00C0F09D00068C0F3810044
:102D500002280BD18D48001F0068400206D420686D
:102D6000800715D5E868012809D111E0E868B8B1F5
:102D70000120C8F80000FFF7BDFD064605E002E1AE
:102D8000FFF7B8FD801B0228C0D820688007F7D560
:102D90002068296920F0F80040EAC10020600DE0B9
:102DA000C8F80090FFF7A6FD064604E0FFF7A2FD75
:102DB000801B02281FD820688007F7D428780007D6
:102DC00022D5724E744869696C3671B10121016077
:102DD000FFF790FD074604E0FFF78CFDC01B0228BB
:102DE00009D830688007F7D50EE0C0F80090FFF7EB
:102DF00081FD074605E083E0FFF77CFDC01B02284C
:102E00007ED830688007F7D42878400768D5DFF887
:102E10007CA100270AF1380ADAF80000C0000BD4C0
:102E2000DAF8001041F08051CAF80010DAF800001A
:102E3000012700F080500090584E3068C00510D433
:102E4000306840F480703060FFF754FD009005E07A
:102E5000FFF750FD0099401A022851D83068C0058C
:102E6000F6D54A4EA868683601280FD00528306884
:102E700010D020F001003060306820F00400306095
:102E8000A868B8B1FFF736FD00900FE0306840F059
:102E90000100F4E740F004003060F7E7FFF72AFD97
:102EA0000099411A41F28830814264D83068800725
:102EB000F4D50EE0FFF71EFD009007E0FFF71AFDC6
:102EC0000099411A41F28830814254D83068800715
:102ED000F4D42FB1DAF8001021F08051CAF80010B4
:102EE000A869C0B3DBF80010C1F3810102294AD000
:102EF0000228484607D0C8F86000FFF7FBFC00E056
:102F000039E005463AE04746C8F86000FFF7F2FCB2
:102F1000064604E0FFF7EEFC801B02282BD8206851
:102F20008001F7D4D5E907010843A96A1C4A49087A
:102F300002EB01416A6A41EA8211084395F82C10BC
:102F400040EA01611148001F016001203866FFF767
:102F5000D1FC054605E014E0FFF7CCFC401B02283D
:102F600009D820688001F7D50BE000BFFFF7C2FC4D
:102F7000401B022802D90320BDE8F88F2068800199
:102F8000F4D40020F8E70120F6E7000008380240FA
:102F90000038024000004742800E47420070004067
:102FA0000000FFFF70B5040005D00025A56294F86D
:102FB000510010B106E0012070BD84F85050204649
:102FC00000F030F8022084F851002068016821F0F8
:102FD00040010160D4E901010843D4E9031211431F
:102FE000084361690843218B01F400710843E169DA
:102FF0000843216A0843A16A084321680860A06960
:10300000042101EA1040616A084321684860206891
:10301000C16921F40061C1616565012084F8510036
:10302000002070BD10B586B0044614216846FDF737
:103030003EFA14492068884221D1134800210268D1
:1030400042F480120260006800F4801005900E487F
:103050001438026842F020020260006800F020008C
:1030600005904FF4607000900220CDE9010103202B
:1030700003900520049069460448FFF749FB06B019
:1030800010BD0000005001404438024000140240CE
:103090002DE9F84F044690F8500000270A9E1D467F
:1030A00092468B464FF0010901280ED0012084F88A
:1030B0005000FFF71FFC804694F85100616801281A
:1030C0000CD0B1F5827F07D102E00220BDE8F88F75
:1030D000A16809B9042801D00227C2E0BBF1000FA2
:1030E00027D0BAF1000F24D01DB394F85100042862
:1030F00002D0052084F8510000206065C4F838A093
:10310000E587A587C4F830B0E586A58620646064AD
:1031100020680168490603D4016841F0400101605C
:10312000E068B0F5006F606805D0E8B3012D46D0C7
:103130007FE0012795E008B1012D39D1206B21688E
:103140000088C860206B801C2063E08E401EE086F3
:103150002EE02068816889070FD5E18E69B1B9F149
:10316000010F0AD1216B0988C160206B801C20638C
:10317000E08E401EE0864FF0000920688168C90794
:103180000CD0E18F51B1C068A16B0880A06B801C8E
:10319000A063E08F401EE0874FF00109FFF7AAFB14
:1031A000A0EB0800B04200E009E001D3701C50D150
:1031B000E08E0028CDD1E08F0028CAD13FE0206BFF
:1031C000216800780873206B401C2063E08E401E4D
:1031D000E0862EE02068816889070FD5E18E69B10D
:1031E000B9F1010F0AD1216B09780173206B401CE2
:1031F0002063E08E401EE0864FF000092068816861
:10320000C9070CD0E18F51B1C068A16B0870A06BE9
:10321000401CA063E08F401EE0874FF00109FFF7DC
:1032200069FBA0EB0800B04202D3701C01D010E093
:103230007EB1E08E0028CDD1E08F0028CAD1424671
:103240003146204601F04EFA28B101272020606562
:1032500007E0032705E0A06818B92068C168806806
:103260000090012084F85100002084F85000384676
:103270002CE77047704770B590F83C20012A19D0B0
:10328000012400F83C4F0222427050F83C3C5A683E
:103290009D6822F070060A684968324325F080056F
:1032A00029435A6050F83C2C916044700021017011
:1032B000084670BD022070BD10B5040003D094F81C
:1032C0003D0010B107E0012010BD002084F83C0053
:1032D000204600F00CF8022084F83D00211D2068F3
:1032E00001F056FF012084F83D00002010BD70471A
:1032F0000168CA6842F00102CA600068816801F092
:103300000701062903D0016841F001010160002096
:1033100070472DE9F0410D46040003D094F83D00BC
:1033200018B108E00120BDE8F081002084F83C00DD
:10333000204600F03BF8022084F83D0020688168B8
:1033400044F2070291438160211D206801F020FFB3
:10335000226890689169166A2B68AF69034340F24E
:103360000330814341EA0721A868EF6908434FF61B
:10337000FC418843E96840EA0720014328692F6A35
:10338000000140EA0730084369686D6926F0AA0623
:1033900046EA05152943936022689061206801621E
:1033A000012084F83D000020BDE7000010B586B084
:1033B000044614216846FDF77AF82268354C00214E
:1033C00035480223A24223D1334A1032146844F014
:1033D00008041460126802F008020592026842F0C4
:1033E00080020260006800F0800005904FF44060A9
:1033F0000090CDE90131CDE9031369462748FFF775
:1034000087F9002205213220FFF702FB32203DE040
:10341000234CA2423CD1204A1432146844F00204E6
:103420001460126802F002020592026842F480728F
:103430000260006800F48070059060200090CDE983
:1034400001310320CDE9031069461648FFF760F902
:10345000002205212B20FFF7DBFA2B20FFF7CAFA09
:10346000002205212C20FFF7D3FA2C20FFF7C2FA07
:10347000002205212D20FFF7CBFA2D20FFF7BAFA05
:10348000002205212E20FFF7C3FA2E20FFF7B2FA03
:1034900006B010BD000C004030380240001C024055
:1034A0000004014000200240704770B504460068E7
:1034B00001694FF00005C943890715D4C168C943A4
:1034C000890711D4E91E01610120207720688069F5
:1034D0008007204602D0FFF7E7FF04E000F0C2F8C3
:1034E000204600F061F9257720680169C943490742
:1034F00017D4C168C943490713D46FF004010161AF
:10350000022020772068806910F4407F204602D096
:10351000FFF7CAFF04E000F0A5F8204600F044F9E8
:10352000257720680169C943090716D4C168C943D2
:10353000090712D46FF00801016104202077206888
:10354000C0698007204602D0FFF7AEFF04E000F01C
:1035500089F8204600F028F9257720680169C943D9
:10356000C90617D4C168C943C90613D46FF0100146
:103570000161082020772068C06910F4407F204650
:1035800002D0FFF791FF04E000F06CF8204600F055
:103590000BF9257720680169C943C90708D1C168BB
:1035A000C943C90704D1891E0161204600F020F9F2
:1035B00020680169C943090609D4C168C9430906DD
:1035C00005D46FF0800101612046FFF752FE2068AC
:1035D0000169C943490609D4C168C943490605D4EC
:1035E0006FF040010161204600F00CF9206801698C
:1035F000C94389060BD4C168C943890607D46FF053
:10360000200101612046BDE87040FFF733BE70BD68
:1036100010B586B0044614216846FCF748FF0E49F1
:103620002068884215D10D480021026842F0080246
:103630000260006800F0080005904FF470400090B0
:103640000220CDE90101CDE9031069460448FFF7E6
:103650005FF806B010BD000000080040303802409E
:10366000000C0240704770B5044690F83C000D46CF
:1036700001280DD0012684F83C60022084F83D002A
:1036800042B1042A18D0082A2AD00C2A4DD139E098
:10369000022070BD206801F0EDFD2068816941F0D5
:1036A000080181612068816921F00401816120683D
:1036B00081692A69114311E0206801F00BFE20683E
:1036C000816941F4006181612068816921F4806130
:1036D0008161206881692A6941EA0221816124E0CF
:1036E000206801F02DFE2068C16941F00801C16128
:1036F0002068C16921F00401C1612068C1692A699B
:10370000114311E0206801F04FFE2068C16941F4C7
:103710000061C1612068C16921F48061C1612068D4
:10372000C1692A6941EA0221C16184F83D60002033
:1037300084F83C0070BD10B5040003D094F83D003F
:1037400010B107E0012010BD002084F83C002046A5
:1037500000F00CF8022084F83D00211D206801F0E3
:1037600017FD012084F83D00002010BD08B5006859
:103770000B49884212D10B48016841F004010160F5
:103780000068002200F00400009006211E20FFF7D0
:103790003FF9BDE808401E20FFF72CB908BD000026
:1037A00000080040403802407047000010B5044651
:1037B0000068012201F050FD0B492068884202D0C8
:1037C0000A49884203D1416C41F4004141642068B8
:1037D000816801F00701062903D0016841F0010169
:1037E0000160002010BD0000000001400004014005
:1037F00000680349884201D1FFF782B87047000092
:1038000000100040704710B504460068416994F804
:103810003920C1F3C011212A0BD151B1416921F0E6
:1038200080014161206B08B1FEF77FFD204601F069
:103830004BFE2068416994F83A20C1F38011222A96
:103840000BD151B1416921F040014161606B08B178
:10385000FEF76BFD204601F029FE002010BD08B5E3
:10386000C16B082903D1006801684068009008BD59
:1038700070B5026804461068D168536910F00F0FE4
:1038800050D003F0010501F4907635435DD0C207B6
:1038900005D0CA0503D5E26B42F00102E26342079C
:1038A00005D5DA0703D0E26B42F00202E263820739
:1038B00005D5DA0703D0E26B42F00402E2630207A7
:1038C00005D5DA0703D0E26B42F00802E263E26B4F
:1038D000002A33D0800604D5880602D5204601F0A0
:1038E000FCFD20684069E16BC0F38010090700D43B
:1038F00028B3204601F0DAFD2068416949061AD54F
:10390000416921F040014161606BA0B11B49016533
:10391000606BFEF751FD002810D0606B016DBDE8B3
:1039200070400847830610D58B060ED52046BDE8AB
:10393000704001F0D2BD2046FFF791FF70BD2046D8
:10394000FFF78DFF0020E06370BD030606D50B0670
:1039500004D52046BDE8704001F060BF4006F3D5B5
:103960004806F1D5D168204621F04001D1602021E0
:1039700084F8391000F0FFFA70BD00000D54000803
:1039800070B5040004D094F83900002510B106E0A9
:10399000012070BD84F83850204600F023F8242020
:1039A00084F839002068C16821F40051C1602046C4
:1039B00001F0DEFD2068016921F490410161206879
:1039C000416921F02A0141612068C16841F4005138
:1039D000C160E563202084F8390084F83A000020B3
:1039E00070BD00002DE9F04F87B0054614216846F0
:1039F000FCF75DFDCA48DFF824831038D5F800C015
:103A0000C74F032102220123002406154FF040096D
:103A10004FF0006AC4454CD1D7F800C04CF4002CDC
:103A2000C7F800C03F6807F400270597076847F00C
:103A300001070760006800F0010005908DE80E00A6
:103A40000820CDE903106946B648FEF761FEB74F7E
:103A5000B5483860C7E901A4C7E903467C61BC6189
:103A6000FC613C6238467C62FEF788FD08B1FEF7D7
:103A700012F86F63BD63AD4FAB4860373030C7F8A5
:103A80000890C7E903467C61BC61FC613C627C62D2
:103A9000C7E9000A3846FEF771FD08B1FDF7FBFFE4
:103AA0002F63002205213420BD63FEF7B1FF3420CF
:103AB0005CE0DFF87C82DFF868E24FF0070B0EF184
:103AC000040EC44557D1DEF800C04CF0100CCEF8FF
:103AD00000C0DEF8007007F010070597076847F090
:103AE00002070760076807F002070597076847F0B5
:103AF000010707600068884600F0010005908020FB
:103B00000090022001900120CDE902085F4669463D
:103B1000CDF810B08748FEF7FBFD4FF40070009021
:103B2000022001900120CDE90208694604977D48F2
:103B3000FEF7EEFD7D4F8048C037C7F80890C7E913
:103B400003467C61BC61FC613C627C62C7E9000A9F
:103B50003846FEF713FD08B1FDF79DFF2F630022E5
:103B600006212520BD63FEF753FF2520FEF742FF07
:103B700007B0BDE8F08FDFF8C481C44551D1D7F854
:103B800000C04CF4003CC7F800C03F6807F40037A1
:103B90000597076847F0080707600068CDE902311C
:103BA00000F0080005906020CDE90002CDF810B0CB
:103BB00069466348FEF7ACFD5B48624F48304FF4FE
:103BC00000383860C7E901A4C7E903467C61BC61DD
:103BD000C7E9074838467C62FEF7D0FC08B1FDF71C
:103BE0005AFF6F63BD63574F4F4860376030C7F867
:103BF0000890C7E903467C61BC61C7E907487C625D
:103C0000C7E9000A3846FEF7B9FC08B1FDF743FFE3
:103C10002F63002206212620BD63FEF7F9FE262031
:103C2000A4E7DFF82481C44522D13C6844F4802411
:103C30003C603C6804F480240594046844F0080463
:103C400004600068CDE9023100F0080005904FF4EF
:103C50004070CDE90002CDF810B069463848FEF753
:103C600057FD002205212720FEF7D2FE27207DE701
:103C7000364FBC457FF47CAFDEF800C04CF0200C22
:103C8000CEF800C0DEF8007007F02007059707683F
:103C900047F040070760006800F0400005904FF4CF
:103CA00084408DE80D000820CDE9031069462848BE
:103CB000FEF72EFD234F2048C037903838604FF074
:103CC0002068C7E90184C7E903467C61BC61FC61E7
:103CD0003C6238467C62FEF751FC08B1FDF7DBFE22
:103CE0006F63BD631B4F1448C7E903467C61BC6129
:103CF000FC613C6218387C6287E801033846FEF7B5
:103D00003DFC08B1FDF7C7FE2F63002206214720C6
:103D1000BD63FEF77DFE472028E70000004C004011
:103D20004038024000000240406002401005002080
:103D30000010014000040240B8640240004400400A
:103D4000000C0240300600200048004000140140F2
:103D50000018024050070020F8B5044690F83A00D9
:103D600020283CD1C1B3BAB394F83800012836D02A
:103D7000012084F83800A162A2850025E563222095
:103D800084F83A00636B1748D863636B164818646D
:103D9000636B1648D864606B134605650846666B0E
:103DA000216802463046091DFEF775FC206801684F
:103DB0004168009184F83850C16841F48071C16055
:103DC0002068416941F0010141612068416941F089
:103DD000400141610020F8BDFFE70120FBE7022020
:103DE000F9E7000067540008A35400081D540008B8
:103DF00090F83A30202B22D1F9B1F2B190F8383056
:103E0000012B1CD081628285C2850021C1632222E0
:103E100080F83A2080F838100168CA6842F480724D
:103E2000CA6001684A6942F001024A610068C168DB
:103E300041F02001C160002070470120704702203E
:103E40007047000008B50068094988420FD1094849
:103E50000078FDF7D7FD08480068016840680090C9
:103E6000BDE80840012203490348FFF7C1BF08BD70
:103E700000480040D04500209004002070472DE904
:103E8000F843044690F839001F4616460D46202890
:103E900050D1A5B19EB194F8380001284AD0012034
:103EA00084F838004FF00008C4F83C80212084F8E2
:103EB0003900FEF71FFDA6848146E68426E0012036
:103EC000BDE8F883E08C401EE084A0684B46B0F566
:103ED000805F4FF000024FF080012046009703D032
:103EE00001F0CDFCE8B90DE001F0C9FCC8B92888A3
:103EF0002168C0F308004860206908B16D1C05E026
:103F0000AD1C03E0216815F8010B4860E08C002827
:103F1000D8D14B46002240212046009701F0AFFC4B
:103F200008B10320CCE7202084F8390084F83880D9
:103F30000020C5E70220C3E790F83930202B18D1C4
:103F4000A9B1A2B190F83830012B12D0016282845D
:103F5000C2840021C163212280F8392080F8381002
:103F60000068C16841F08001C160002070470120F5
:103F70007047022070477047FEE70000074A10B5FF
:103F800052F8213002F13404C31A44F8213042F8C7
:103F9000210001D0012010BD002010BDCC4B00201D
:103FA00010B51C78E4B392ED031A9FED320A82ED4E
:103FB000001AD2ED060AC2ED030A60EE801ADFEDA8
:103FC0002E0A90ED002A41EE201A9FED2C1A42EEA7
:103FD000011AC2ED061A92ED042A82ED012AD2EDF1
:103FE000071AC2ED041A61EE801A42EE201A90ED13
:103FF000012A42EE011AC2ED071AD2ED051AC2EDEE
:10400000021A92ED082A82ED052A22EE000A01EE3C
:10401000A00AD0ED020A00EE810A82ED080A00E053
:104020000CE092ED060A81ED000A92ED070A81ED9F
:10403000010A92ED080A81ED020A10BD90ED000A16
:1040400082ED060A82ED030A82ED000A90ED010A74
:1040500082ED070A82ED040A82ED010A90ED020A60
:10406000012082ED080A82ED050A82ED020A18702D
:10407000D5E700005AF8F63F5D896EBFD5A9183B19
:10408000104810B50E4901600321416000214FF432
:1040900000228160C0E903124FF440124261012204
:1040A000027641768276C17601774277FDF77DFF11
:1040B000002803D0BDE81040FDF7EDBC10BD0000A6
:1040C0000064004068020020104810B50E490160ED
:1040D0000321416000214FF400228160C0E90312F6
:1040E0004FF4401242610122027641768276C17617
:1040F00001774277FDF759FF002803D0BDE8104053
:10410000FDF7C9BC10BD000000680040900200200F
:10411000254808B5016841F400110160016801F407
:1041200000110091016841F48001016000680022E3
:1041300000F48000009005210D20FEF769FC0D20A1
:10414000FEF758FC002205210F20FEF761FC0F202E
:10415000FEF750FC002205211020FEF759FC10202C
:10416000FEF748FC002205211120FEF751FC11202A
:10417000FEF740FC002205213920FEF749FC3920DA
:10418000FEF738FC002205214520FEF741FC4520C2
:10419000FEF730FC002206214620FEF739FCBDE880
:1041A00008404620FEF726BC3038024010B5A4B0C7
:1041B000142227496846FCF761F90021684605F09A
:1041C000A7F9244C224914222060143105A8FCF7D9
:1041D00055F9002105A805F09BF91D4960601422DE
:1041E00028310AA8FCF74AF900210AA805F090F93D
:1041F0001749A06014223C310FA8FCF73FF90021B9
:104200000FA805F085F91249E0601422503114A876
:10421000FCF734F9002114A805F07AF90C49206163
:104220001422643119A8FCF729F9002119A805F016
:104230006FF907496061142278311EA8FCF71EF956
:1042400000211EA805F064F9A06124B010BD000093
:104250005CA40008040000202DE9F04186B0142180
:104260006846FCF724F937480024016841F0100142
:104270000160016801F010010591016841F0400101
:104280000160016801F040010591016841F0010100
:104290000160016801F001010591016841F002012E
:1042A0000160016801F002010591016841F0080117
:1042B0000160016801F008010591016841F4807115
:1042C0000160016801F480710591016841F080018D
:1042D0000160016801F080010591016841F0200151
:1042E00001600068184F00F0200005900022842132
:1042F0003846FEF7FAFADFF8548044F2400600220E
:1043000031464046FEF7F1FA842000900125CDE9C0
:104310000154694638460394FEF7FAF902200090EA
:104320000B48CDE9010469463846FEF7F1F90096DD
:10433000CDE90154694640460394FEF7E9F906B019
:10434000BDE8F08130380240001002400014024005
:10435000000011100F4810B50D4901604FF4827133
:10436000416000218160C1604FF400720161C0E9C9
:104370000512C1610162416281620A21C162FEF7D8
:1043800011FE002803D0BDE81040FDF784BB10BD2E
:1043900000500140B802002010B58AB000240794F4
:1043A0001C2168460894FCF782F8234821490160E3
:1043B0005921C0E9011440F6C311C0E90314846116
:1043C000FFF7B9F908B1FDF766FB079407A91A488A
:1043D0000894FEF750FF08B1FDF75DFB60200090E8
:1043E0004FF47A70CDE90104002269461248049422
:1043F000FFF739F908B1FDF74EFB042269460E4874
:10440000FFF731F908B1FDF746FB082269460A4873
:10441000FFF729F908B1FDF73EFB0C226946064873
:10442000FFF721F908B1FDF736FB0348FFF7F0F875
:104430000AB010BD000800401003002010B58CB079
:1044400024216846FCF733F80024144809941249E3
:104450000A94C0E900148460C4600461846101208E
:10446000CDE90004CDE902040494CDE905400794A8
:1044700069460A480894FEF74CFF08B1FDF70BFBAC
:10448000099409A905480A94FEF7F5FE002801D011
:10449000FDF701FB0CB010BD000C004050030020E4
:1044A00010B58CB024216846FCF701F800241548AB
:1044B000099413490A94C0E900148460C46004613B
:1044C000446184610120CDE90004CDE90204049433
:1044D000CDE90540079469460A480894FEF719FF9C
:1044E00008B1FDF7D8FA099409A906480A94FEF71D
:1044F000C2FE002801D0FDF7CEFA0CB010BD0000BE
:1045000000040140900300200C4810B50A490160E6
:104510004FF4E1314160002181600C22C160C0E9AB
:1045200004128161C161FFF72BFA002803D0BDE8B6
:104530001040FDF7B0BA10BD004C0040D003002081
:104540000C4810B50A4901604FF4E1314160002187
:1045500081600C22C160C0E904128161C161FFF772
:104560000FFA002803D0BDE81040FDF794BA10BD43
:1045700000100140100400200C4810B50A490160E9
:104580004FF4E1314160002181600C22C160C0E93B
:1045900004128161C161FFF7F3F9002803D0BDE87F
:1045A0001040FDF778BA10BD0044004050040020D0
:1045B0000C4810B50A4901604FF4E1314160002117
:1045C00081600C22C160C0E904128161C161FFF702
:1045D000D7F9002803D0BDE81040FDF75CBA10BD44
:1045E00000480040900400200C4810B50A490160C2
:1045F0004FF4E1314160002181600C22C160C0E9CB
:1046000004128161C161FFF7BBF9002803D0BDE846
:104610001040FDF740BA10BD00140140D004002046
:10462000FEE7000010B5B0EE621A2DED048BB0EE7F
:10463000408AB0EE613A9FED1F0A1F49F0EE423A00
:1046400071EE002A9FED1D0AF0EE608A12EE900ACC
:10465000884201DD72EEC02A194912EE900A8842A2
:1046600001D972EE802AF0EE630AB0EE430AF0EE52
:10467000481AB0EE682AB0EE609AF0EE409AFCF765
:1046800073FFB0EE601A70EE290A31EE091AB6EE29
:10469000000A60EE800A21EE000A70EEC80A30EED1
:1046A000680A01F0B9FBDFED070ABDEC048B20EED0
:1046B000200A10BD0000B442000034430000B4439F
:1046C000000034C3E62E65427047000010B5FFF7C6
:1046D0006DF803494FF47A700860091D086010BD39
:1046E0003408004038B50B46009204460022802171
:1046F00000F008F8002804D0606D40F020006065EC
:10470000032038BD2DE9F0411D4617460E460446EC
:10471000DDF8188008E0681C06D0FEF7EBF8A0EB87
:104720000800A8420BD255B12068806836EA000024
:1047300030D00020B842EED10020BDE8F0812068E2
:10474000416821F0E00141606068B0F5827F0BD1E3
:10475000A068B0F5004F02D0B0F5806F04D120689A
:10476000016821F040010160A06AB0F5005F09D145
:104770002068016821F4005101602068016841F45B
:1047800000510160012084F85100002084F850009D
:104790000320D2E70120CDE7F0B514460E460746C8
:1047A000FDF77AF90346384600F038FC0146002050
:1047B00002E03A5C3254401C9842FADB0025F55482
:1047C000581C06E0A0EB030C3A5CA444401C0CF817
:1047D000012C8842F6DB65545B1C04D13146384617
:1047E000FDF72CF82570F0BD012004F085FEFBE7F5
:1047F0002DED028B0025934E934CDFF85082DFF8AD
:104800005092DFF850A288B04FF4617BB7EE008A77
:104810000127E06A002866D03078012801D00228FC
:1048200001D1206810B1206901280BD125612563D1
:104830002760A56088F80C50874805F07DF9874807
:1048400005F07AF92068012802D002284BD1CEE089
:10485000206BE8B361684FF47A70CDE900018048BD
:1048600090ED010ABDEEC00A10EE103A90ED000A7C
:10487000BDEEC00A10EE102A9FED7A0A72497A48FE
:10488000083105F04DFAFA2241F27073CDE9033296
:104890007348CDE905A990ED010A734AA168FDEEC0
:1048A000C00A90ED000A02EB8100BDEEC00AD0F80C
:1048B000903100938DED010A694BCDED020A90ED28
:1048C000C80AD3ED020A52F82130684A684900E06C
:1048D0000AE0684803F0CAF9D4E90101814202DB29
:1048E0002068401C2060A8E0606920B1012826D023
:1048F000022850D151E03279F178307803F034FC5D
:1049000010EE100AFBF7C0FF9FED5B1B53EC112B61
:10491000FBF779FEFBF7CBFF00EE100A4FF4966130
:1049200084ED060A1922CDE90021CDF808B03178CE
:1049300040F252334C48626803F04CFE28E04FF4DA
:10494000FA61CDE90051CDF808B0317894ED060A4E
:104950004FF4E1634448626803F03CFE606894ED04
:10496000060A00EE900A0C2130EE481AF8EEE00A32
:1049700090FBF1F021EE201AC1EE000A00EE100AC1
:10498000B8EEC00A30EE800ABDEEC00A84ED020A1D
:104990006069401C606127639EE740F26C7000957F
:1049A000CDE9010B5B46317894ED060A2E4862682A
:1049B00003F010FE606894ED060A00EE900A0C21E8
:1049C00030EE481AF8EEE00A90FBF1F061EE200AB2
:1049D00080EE801A00EE100AB8EEC00A31EE000A2E
:1049E000BDEEC00A84ED020A6069401ED2E788F875
:1049F0000C70CAF80C50C9F80C50BAF90000DFED81
:104A0000200A00EE100A1B48B8EEC00A04F098FD18
:104A1000BDEEC00A8AED080A99ED030AB9F9000053
:104A2000F8EEC00A00EE100A1148B8EEC00A04F011
:104A300087FDBDEEC00A89ED080A022004F05CFD86
:104A4000E7E60000E8010020A8000020285300202D
:104A5000F84D0020D04D0020D0010020DC010020C6
:104A6000FC4600200000C843204E0020E8520020F1
:104A7000104D0020D04C00209A9999999999F13FB6
:104A800000000000534EDFF850A1544C544F554DD8
:104A90004FF0FF3B4FF001094FF00008E06A00289B
:104AA00041D040F2EE21504803F050FD4F4A5049AA
:104AB0004D4803F029FA4F4803F020FFE0614E48CB
:104AC00004210068FFF75AFA474A3060D2E906012C
:104AD000D2E90432C01A61EB0201FBF7CBFCB0F55E
:104AE000FA6F01DC386850B10122C821B6EE000A25
:104AF0003D4805F0C5F8386801285DD063E0012223
:104B0000C821B6EE000A384805F0E2F885F80E90A4
:104B1000E069012808D0022812D0032820D00428F8
:104B20002FD0C4F8208050E0C4F8208085F80D9084
:104B30009AF80310504602290BD1297BE1B108E015
:104B40000220C4F8208068739AF8031050460129A7
:104B5000F3D03168012938D14178012909D034E0F6
:104B60000320C4F820806873306801282DD1504696
:104B7000F2E79AF8020040BB1B49584605F054F88A
:104B800023E004206873206A411C2162C8281CDBD2
:104B9000C4F82080287B012802D0C4F80C8014E0DF
:104BA0001149584605F040F8E068411CE1600228D0
:104BB0000BDDC4E9038908E00022C8219FED0F0A3C
:104BC000094805F085F885F80E80052004F094FC6E
:104BD00064E70000F8010020E8010020A8000020A0
:104BE0007C01002028530020A84C0020904D00207C
:104BF000504D0020EC440020F00100203333333FBF
:104C00001CB50D4C0D4E0E4FDFF8388000254FF4CB
:104C10000079206B60B1308C494600B2CDE90005C7
:104C2000388C03B2B8F8200002B20748FCF75DFCEC
:104C3000022004F061FCECE7A8000020A84C002052
:104C4000F84D0020D04D002068020020044804F0F8
:104C5000FFF9034800F0AAFE012004F04DFCF5E73F
:104C6000005400201FB5DFF8C49000BFD9F82C0015
:104C7000002857D02E48006840B980212D48FDF704
:104C80002DFE4FF480412C48FDF728FE2B48C168CB
:104C9000009190E80E002AA000F0DCFFDFF8C0A031
:104CA00030A09AF80D1000F0D5FF3248D0E9061276
:104CB000CDE90012D0E90423B0F900102EA000F0D5
:104CC000C9FF364802790178CDE90012837842782D
:104CD000C17833A000F0BEFFDFF8FC80D8F80400F4
:104CE000FBF7D2FD06460F46D8F80000FBF7CCFDD7
:104CF00004460D46D8F80800FBF7C6FD8DE8F00025
:104D000041EC100B35A053EC102B00F0A3FFDAF8A8
:104D10000800FBF7B9FD41EC100B37A053EC102B4A
:104D200000F098FFC82004F0E7FB9FE7A8000020F0
:104D3000780100200010024000140240EC440020E2
:104D400074797065202564206C7578202564206353
:104D500074256420636F6C6F722025640D0A000057
:104D60002853002062616C6C636F6C6F7220256445
:104D70000D0A0000A84C00207472616E73207370DD
:104D80006420256420706F7320256C6C642074612E
:104D90007267657420256C6C640D0A00E8010020C0
:104DA0007265636569766520425F572025642072CD
:104DB00065616479202564206C617374202564200A
:104DC0007374617274202564206275636B6574204E
:104DD00025640D0A00000000FC460020616E67207B
:104DE000252E3266207820252E3266207920252E29
:104DF0003266200D0A000000616E675F626F6172AB
:104E00006420252E32660D0A000000002DED028B75
:104E10004FF4B4782C4D2D4EDFF8B4909FED2D8AD1
:104E20002D4F2E4C97ED000A85ED000A97ED010AF3
:104E300085ED010A96ED000AFDEEC00A10EE900A1B
:104E400090FBF8F208FB120000EE900AF8EEE00A80
:104E500070EE600A30EE600A86ED000AB5EEC00A18
:104E6000F1EE10FA03D230EE080A86ED000A85ED65
:104E7000020A1B4804F082FE95ED020A10EE100AA9
:104E800084ED0A0A484503DD30EE480A84ED0A0A3B
:104E900087ED020AE06A88B903F006F904F056FECD
:104EA000606A411C6162B0F5FA7F07DB01200D49A1
:104EB000E0624FF4A0600860091D0860FCF7E6F8A6
:104EC000052004F019FBADE7285300200002002064
:104ED000000034430000B443FC460020A80000203A
:104EE000D0030020340800402DE9F04106462DEDA6
:104EF000088B4FF000089FED438B4446B0EE489A74
:104F0000F0EE689A305D58B1A0F130010A2903D360
:104F10002E2801D02D2803D1641CE4B20A2CF1D331
:104F2000002504E0705D2E2803D06D1CEDB2A54273
:104F3000F8D300279FED35AB15E0F05D2D2818D094
:104F40003038FBF75DFC41EC1B0B53EC1A2B51EC9A
:104F5000190BFBF75EFB53EC1B2BFBF7B3FA41EC91
:104F6000190B7F1CFFB2AF42E7D37F1CFDB22F4667
:104F700018E04FF00108F4E7705D30380A2813D2CA
:104F8000FBF73EFC41EC1B0B53EC1A2B51EC180BBE
:104F9000FBF73FFB53EC1B2BFBF794FA41EC180B90
:104FA0006D1CEDB2A542E7D300259FED1AABE41BC3
:104FB0000AE000BF53EC1A2B51EC180BFBF729FB4E
:104FC00041EC180B6D1CEDB2AC42F3DC53EC182B2A
:104FD00051EC190BFBF776FA41EC100BB8F1000F0E
:104FE00005D051EC100B81F0004141EC100B51EC5D
:104FF000100BFBF75CFCBDEC088B00EE100ABDE863
:10500000F08100000000000000000000000000002F
:10501000000024409A9999999999B93F0146002036
:105020000A5C401C002AFBD1401E704770B50B463D
:10503000074C04E0E618C55C761A5B1C3570934299
:10504000F8DB00202244511A0870014870BD0000AE
:105050000048002010B5FDF753FC05F01DF90128AC
:1050600003D0BDE8104005F0D5B810BD30B593B001
:1050700030216846FBF71BFA14210CA8FBF717FA3E
:105080001A480025016841F080510160006800F075
:10509000805011901648016821F4404141F480414C
:1050A00001600068022400F440401190012000904B
:1050B000000401908001CDE9064006200890A82058
:1050C000CDE9090404200B906846FDF7DDFD0F20B3
:1050D000CDE90C0480200E904001CDE90F0502219E
:1050E0000CA8FDF7C7FC13B030BD000040380240EB
:1050F000007000401048016841F4700101600F48E1
:10510000016841F0010101600C4A00210832116080
:1051100002680B4B1A400260031D0A4A1A600268BB
:1051200022F48022026005480C30016002495806D2
:10513000803908607047000088ED00E000380240C8
:10514000FFFFF6FE103000240148FEF7AEB9000064
:10515000100300200148FEF7A8B90000500300200A
:105160000148FEF7A2B90000900300200148FEF7B5
:105170009CB90000900300200148FEF796B900009A
:10518000900300200148FEF790B900009003002032
:10519000F0B50268254C264D264E274F274B4FF081
:1051A000804CA04209D0604507D0A84205D0B0424B
:1051B00003D0B84201D0984204D122F0700E4A6860
:1051C00042EA0E02A0421BD0604519D0A84217D077
:1051D000B04215D0B84213D0984211D0184DA84211
:1051E0000ED0184DA8420BD0174DA84208D0174D2D
:1051F000A84205D0164DA84202D0164DA84203D1B0
:1052000022F44075CA682A434D6922F080022A437D
:1052100002608A68C2620A688262A04201D0984233
:1052200001D10969016301214161F0BD0000014024
:105230000004004000080040000C00400004014051
:105240000040014000440140004801400018004077
:10525000001C00400020004010B501F01F03012198
:10526000046A99408C430462016A9A4011430162C6
:1052700010BD0000F0B5026A22F001020262036A6A
:1052800042688469124E24F073050C682C4323F0A5
:1052900002058B682B430D4DA84201D0B04205D1C9
:1052A00023F00807CB683B4323F00403A84201D056
:1052B000B04205D14D6922F4407215438A692A43F0
:1052C00042608461496841630362F0BD00000140AF
:1052D00000040140F0B5026A22F010020262026A84
:1052E000436884690D6824F4E64444EA05248D6823
:1052F00022F0200242EA05120F4D104EA84201D0C2
:10530000B04206D1CF6822F0800242EA071222F0B2
:105310004002A84201D0B04207D14D6923F4406356
:1053200043EA85038D6943EA8503436084614968E4
:1053300081630262F0BD00000000014000040140F2
:10534000F0B5026A22F480720262026A4368C4699C
:1053500022F4007224F073050C68124E2C438D6801
:1053600042EA05220E4DA84201D0B04206D1CF68D4
:1053700022F4006242EA072222F48062A84201D0AD
:10538000B04207D14D6923F4405343EA05138D69B8
:1053900043EA05134360C4614968C1630262F0BD1A
:1053A000000001400004014030B5026A22F480523E
:1053B0000262046A4268C3690D6823F4E64343EA63
:1053C00005238D6824F4005444EA0534084DA842AE
:1053D00002D0084DA84204D14D6922F4804242EA2D
:1053E00085124260C36149680164046230BD0000F7
:1053F000000001400004014008220249024800F078
:10540000BDBA000034460020D003002010B5806BE8
:105410000021C185C184FEF722FA10BD70B5846BEE
:105420002068406994F83910C0F3C0100025212984
:1054300004D118B1E584204600F046F820684069A0
:1054400094F83A10C0F38010222904D118B1E585F0
:10545000204600F02BF8E06B40F01000E06320469F
:10546000FEF7FDF970BD10B50146806B096809684B
:10547000C90513D40021C1850168CA6822F480726D
:10548000CA6001684A6922F001024A6101684A69FA
:1054900022F040024A61202180F83A10FEF7D2FC47
:1054A00010BD10B5806BFEF7E9FC10BD0168CA683D
:1054B00022F49072CA6001684A6922F001024A61CE
:1054C000202180F83A1070470168CA6822F0C002B3
:1054D000CA60202180F83910704710B590F83A1052
:1054E000222901D0022010BD8168B1F5805F11D062
:1054F0000169002901681FD0496801F07F03816AB2
:105500004A1C82620B70C18D491E0904090CC185B9
:1055100018D02BE00269816A002A0268526805D01F
:10552000D2B20A80816A491C8162ECE7C2F30802A8
:105530000A80816A891CF7E74A68816A4B1C83628A
:105540000A70E0E70168CA6822F02002CA600168B8
:10555000CA6822F48072CA6001684A6922F00102B6
:105560004A61202180F83A10FEF76CFC002010BD43
:105570002DE9F041044600680169E26821F44051D8
:10558000114301612169A068E2690843616911431F
:1055900022680843D16849F20C6399430143D16002
:1055A00020684169A26921F4407111434161E269B7
:1055B0006425B2F5004F9748974922684FF03208AA
:1055C0003FD08A4201D082427CD1FDF71BFB00EB29
:1055D000C00101EB001061688900B0FBF1F6FDF736
:1055E00011FB00EBC00101EB001061688900B0FB0A
:1055F000F1F0B0FBF5F06FF01801484306EB8001C5
:1056000008EB0110B0FBF5F000F0F006FDF7FAFA38
:1056100000EBC00101EB001061688900B0FBF1F004
:10562000B0FBF5F006EB0016FDF7ECFA00EBC0015D
:1056300001EB001061688900B0FBF1F7FDF7E2FAB9
:10564000D2E08A4201D082423DD1FDF7DBFA00EB85
:10565000C00101EB001061684900B0FBF1F0B0FB44
:10566000F5F00601FDF7CEFA00EBC00101EB0010EA
:1056700061684900B0FBF1F7FDF7C4FA00EBC00127
:1056800001EB001061684900B0FBF1F0B0FBF5F0F0
:105690006FF01801484307EB800108EBC100B0FB35
:1056A000F5F000F0F80006EB4006FDF7ABFA00EB72
:1056B000C00101EB001061684900B0FBF1F7FDF794
:1056C000A1FA3CE055E0FDF78DFA00EBC00101EBDB
:1056D000001061684900B0FBF1F0B0FBF5F0060185
:1056E000FDF780FA00EBC00101EB00106168490092
:1056F000B0FBF1F7FDF776FA00EBC00101EB00100B
:1057000061684900B0FBF1F0B0FBF5F06FF01801F3
:10571000484307EB800108EBC100B0FBF5F000F057
:10572000F80006EB4006FDF75DFA00EBC00101EB67
:10573000001061684900B0FBF1F7FDF753FA00EB88
:10574000C00101EB001061684900B0FBF1F0B0FB53
:10575000F5F06FF01801484307EB800108EBC1003A
:10576000B0FBF5F000F00700216830448860BDE828
:10577000F081FDF737FA00EBC00101EB0010616822
:105780008900B0FBF1F6FDF72DFA00EBC00101EB4B
:10579000001061688900B0FBF1F0B0FBF5F06FF02C
:1057A0001801484306EB800108EB0110B0FBF5F04F
:1057B00000F0F006FDF716FA00EBC00101EB001057
:1057C00061688900B0FBF1F0B0FBF5F006EB001664
:1057D000FDF708FA00EBC00101EB001061688900D9
:1057E000B0FBF1F7FDF7FEF900EBC00101EB001093
:1057F00061688900B0FBF1F0B0FBF5F06FF01801C3
:10580000484307EB800108EB0110B0FBF5F000F016
:105810000F00A9E7001401400010014090F8391072
:10582000212901D0022070478168B1F5805F016AAB
:105830000BD04A1C0262026809785160C18C491E73
:105840000904090CC1840ED017E009880268C1F36D
:105850000801516001690029016A02D0491C0162F6
:10586000ECE7891CFBE70168CA6822F08002CA6085
:105870000068C16841F04001C160002070472DE917
:10588000F041984617460E460446069D1DE0681CEA
:105890001BD02DB1FDF72EF8A0EB0800A84214D9BB
:1058A0002068C16821F4D071C1602068416921F08D
:1058B00001014161202084F8390084F83A00002079
:1058C00084F838000320BDE8F0812068006836EADB
:1058D000000004D00020B842D9D00020F3E7012016
:1058E000F9E700000148FDF7C3BF000010040020E5
:1058F0000B220249024800F041B800006C4500202C
:10590000500400200148FDF7B3BF000090040020C0
:105910001C220249024800F031B8000098460020DD
:10592000D00400202DE9F041044600680F461D46D2
:10593000416816463846FCF78BFE2068416941F005
:10594000400141612068C16841F01001C1602A46F0
:1059500031462046FEF700FA2068416941F0010116
:105960004161BDE8F08110B504460122FEF740FA1E
:105970002068416941F00101416110BDF8B503683B
:105980000446154618680E46C043C0060CD4186875
:10599000586800902046FDF736FF2A4631462046DB
:1059A000BDE8F840FEF7D8B9F8BD000070B58F49E2
:1059B0008F4C2DED088B90ED030A81ED000A90EDE0
:1059C000040A81ED010A90ED050A81ED020A90EDCD
:1059D000000A0C3181ED000A90ED010A81ED010A07
:1059E00090ED020A81ED020A90ED060A0C3101F1F8
:1059F0000C0581ED000A90ED070A05F1080681ED1E
:105A0000010A90ED080A81ED020A6078002871D041
:105A100001F1340228312346A1F13400FEF7C0FA27
:105A2000A5F10C0303F1280270499FED720A301DA5
:105A3000FBF78EFA33462A1D2946301D02F0B8FFC7
:105A4000D5ED020A9FED6C0A6C4860EE808AC4EDC9
:105A5000068AD5ED000A20EE808A84ED098AD5ED0C
:105A6000010A20EE809A84ED0C9A94ED050A38EE36
:105A7000C00A10EE101A814202DDA168491EA16021
:105A800010EE102A5E498A4202D9A268521CA26016
:105A900094ED080A38EE400A10EE102A824202DD28
:105AA000E068401EE06010EE100A884202D9E0680B
:105AB000401CE06094ED0B0A524939EE400A10EEAA
:105AC000100A884202DD2069401E206110EE100A93
:105AD0004D49884202D92069401C2061C4ED058AE5
