:020000040800F2
:100000001056002081020008493900083F330008DB
:10001000A1380008990A0008434A000800000000BF
:10002000000000000000000000000000C101000806
:10003000F9100008000000001D020008F54000084B
:100040009B0200089B0200089B0200089B0200081C
:100050009B0200089B0200089B0200089B0200080C
:100060009B0200089B0200089B0200089B020008FC
:100070009B020008B90E00089B020008D50E00087C
:10008000E10E0008FD0E00089B020008A90A000806
:100090009D0A00089B0200089B0200089B020008C2
:1000A0009B0200089B0200089B0200089B020008BC
:1000B0009B0200089B020008E14100089B02000827
:1000C0009B0200089B0200089B0200089B0200089C
:1000D0009B0200087D490008894900089D490008E5
:1000E0009B0200089B0200089B020008F9410008DF
:1000F0001D42000811420008054200089B0200084A
:100100009B0200089B020008ED4100089B020008CA
:10011000914400089B0200089B0200089B02000813
:100120009B020008090F00089B0200089B020008C0
:100130009B0200089B0200089B020008C10A0008FD
:10014000B50A00089B0200089B0200089B020008F9
:100150009B020008250F0008310F0008A94900087C
:100160009B0200089B0200089B0200089B020008FB
:100170009B0200089B0200089B0200080000000090
:100180009B0200089B0200089B0200089B020008DB
:100190009B0200089B0200089B0200089B020008CB
:1001A00000000000000000009B020008DFF80CD0F7
:1001B00000F028FC00480047B571000810560020E8
:1001C0002C4B19680868B0E8F04F80F30988BFF33A
:1001D0006F8F4FF0000080F311887047000000001F
:1001E00008480068006880F308884FF0000080F33A
:1001F000148862B661B6BFF34F8FBFF36F8F00DF15
:1002000000BF00BF08ED00E0DFF80C00016841F41A
:1002100070010160704700BF88ED00E0EFF30980D6
:10022000BFF36F8F134B1A681EF0100F08BF20ED3D
:10023000108A20E9F04F106009B44FF0500080F3AD
:100240001188BFF34F8FBFF36F8F07F0CDFD4FF0D5
:10025000000080F3118809BC19680868B0E8F04F05
:100260001EF0100F08BFB0EC108A80F30988BFF3AE
:100270006F8F704730000020EFF30580704700005B
:100280000648804706480047FEE7FEE7FEE7FEE730
:10029000FEE7FEE7FEE7FEE7FEE7FEE78D4100082A
:1002A000AD0100082DE9F05F0546002092469B460F
:1002B00088460646814640241BE02846414647467C
:1002C000224600F068FA53465A46C01A914110D3AC
:1002D00011461846224600F04FFA2D1A67EB010826
:1002E0004F4622460120002100F046FA17EB000994
:1002F0004E41201EA4F10104DFDC484631462A4667
:100300004346BDE8F09F002800DA4042704740EACB
:1003100001039B0703D009E008C9121F08C0042A83
:10032000FAD203E011F8013B00F8013B521EF9D26A
:100330007047D2B201E000F8012B491EFBD2704792
:100340000022F6E710B513460A4604461946FFF7A1
:10035000F0FF204610BD2DE9FE4F804681EA0300E4
:10036000C00F0C46009021F0004123F00045B8EB8F
:100370000200A94105D24046214690461C460B4644
:10038000024623F00040104347D0270DC7F30A0070
:10039000C3F30A510290401A019040286BDAC3F36C
:1003A000130040F4801B0098924620B10023D2EB4A
:1003B000030A63EB0B0B01985946C0F1400250460B
:1003C00000F0DAF906460D4650465946019A00F00B
:1003D000F2F910EB08006141002487EA115284EA27
:1003E000E7731A4340D0009A62B3019A012A4FEA98
:1003F000075215DC001B61EB02014FF0004202EADC
:100400000752CDE90042001C41F5801132462B46CF
:1004100000F029FA03B0BDE8F08F40462146F9E725
:10042000001B61EB0201001C41F5801300185B41C9
:100430002018A2F5001747EB030140EAD570B61962
:100440006D4111E06D084FEA360645EAC0754FEA86
:100450000752001B61EB0201001C41F580114908A5
:100460004FEA30000019514132462B4603B0BDE837
:10047000F04F00F0E9B90098012240000023D0EBD2
:10048000020263EBE073009821464FEAE074B8EB98
:10049000000061EB0401E9E783F000435BE781F0D2
:1004A000004158E72DE9FE4F81EA030404F00044BF
:1004B00021F0004100944FF0000B23F0004350EA7C
:1004C00001045ED052EA03045BD0C3F30A54C1F3C3
:1004D0000A552C44A4F2F3340194A0FB0254C1F356
:1004E000130141F48011C3F3130343F4801301FBA0
:1004F000024400FB034E840A970A44EA815447EA07
:100500008357A4FB076802958D0A05FB07854FEA10
:10051000932C04FB0C542705029D4FEA065847EA2A
:100520001637B5EB08056EEB070C870E920E47EAFF
:10053000811742EA8312A7FB0201B6EB0B0164EBC1
:1005400000042B0D43EA0C335E1844EB1C50DA46D2
:100550005146E7FB0201C5F313044FEA0B3343EAAC
:1005600014534FEA0432019C43EA0603A4F10C043D
:100570000294009CCDE900B400F075F903B0BDE829
:10058000F08F00200146F9E72DE9F04D81EA0304E0
:1005900004F0004B21F0004514464FF0000A23F010
:1005A000004150EA050220D054EA01021DD0C5F3F3
:1005B0000A570246C5F31303C1F31300C1F30A56E9
:1005C00040F4801543F48013A7EB0608101BD646B1
:1005D00008F2FD3873EB050002D308F1010801E0D1
:1005E00092185B41B8F1000F03DA00200146BDE824
:1005F000F08D00204FF48011064684460EE0171B54
:1006000073EB050705D3121B63EB050306434CEAA6
:10061000010C49084FEA300092185B4150EA01078B
:10062000EDD152EA030012D082EA040083EA050108
:10063000084305D0101BAB4106D20122002306E07F
:1006400000224FF0004302E06FF0010253101AEB5A
:1006500006004CEB085110EB0A0041EB0B01BDE822
:10066000F04D00F0F1B80EB5C10F80EAE07008441B
:10067000CA07002140F233438DE80E000A460B46BC
:1006800000F0F1F803B000BD3EB5CA17CB0F00244F
:1006900050405140C0186141DA0740F233430094A2
:1006A000CDE901232246234600F0DDF803B030BD3A
:1006B00070B5C1F30A5201F000450024C1F31301E3
:1006C00040F2FF3341F480119A4201DA002070BDFC
:1006D00040F233439A42A2F2334203DC524200F02A
:1006E0005AF800E090402C43F1D0404270BD00F039
:1006F000004230F000400AD0C10D01F56071C0F336
:10070000160042EA0151C208400711437047002019
:100710000146704701F0004330B421F0004150EA37
:10072000010206D00A0DA2F56072C1F31301002A7E
:1007300002DC30BC00207047440F44EAC104C10011
:10074000E01830BC00EBC25000F047B830B50B46A3
:10075000014600202022012409E021FA02F59D42F1
:1007600005D303FA02F5491B04FA02F52844151EC5
:10077000A2F10102F1DC30BD202A04DB203A00FAAC
:1007800002F1002070479140C2F1200320FA03F3E8
:10079000194390407047202A04DB203A21FA02F0E6
:1007A0000021704721FA02F3D040C2F120029140AB
:1007B000084319467047202A06DBCB17203A41FA36
:1007C00002F043EAE07306E041FA02F3D040C2F1DE
:1007D000200291400843194670470029A8BF70477E
:1007E000401C490008BF20F00100704710B4B0FA67
:1007F00080FC00FA0CF050EA010404BF10BC704702
:1008000049B1CCF1200421FA04F411FA0CF118BF1B
:10081000012121430843A3EB0C01CB1D4FEA0061EA
:100820004FEA102042BF002010BC704700EBC350BD
:1008300010440029A4BF10BC7047401C490008BFE9
:1008400020F0010010BC704710B5141E73F10004B5
:1008500008DA401C41F1000192185B411A4301D1B2
:1008600020F0010010BD2DE9F04D92469B4611B1DC
:10087000B1FA81F202E0B0FA80F220329046FFF73E
:100880007BFF04460F4640EA0A0041EA0B0153464B
:100890005A46084313D0114653EA010019D0C8F153
:1008A00040025046FFF777FF05460E465046594630
:1008B0004246FFF761FF084305D0012004E02046CF
:1008C0003946BDE8F08D0020054346EAE0762C432A
:1008D00037430A986305E40AA0EB08000022FD0AEA
:1008E00044EA47540A3002D500200146E9E70105F1
:1008F00010196941DDE9084500196941BDE8F04D6D
:10090000A2E72DE9F04D00231A461B1A8A4103DBAA
:1009100000200146BDE8F08DC1F30A52C1F3130176
:1009200041F480154FF0000BD10702D100186D4142
:10093000521E0027044640F2FF11384601EB620ABE
:100940003E468046024600204FF48011FFF723FF09
:10095000C2197141BB1846EB0100B4EB030C75EBF7
:10096000000C04D3E41A65EB000517460E46241963
:1009700008F101006D4180463428E3DDF91946EBAA
:100980000600091BA84103D24FF0FF32134601E0D5
:10099000002213461BEB070046EB0A51BDE8F04D61
:1009A000FFF752BFC1F30A52C1F3130140F2FF3304
:1009B00041F480119A4202DA00200146704740F269
:1009C00033439A42A2F2334202DC5242FFF7E3BEC3
:1009D000FFF7D2BE30B5041E71F1000404DB4FF006
:1009E0000044404264EB0101141E73F1000405DB76
:1009F0001C464FF00043524263EB0403994208BF88
:100A0000904230BD064C074D06E0E06840F001031F
:100A100094E8070098471034AC42F6D3FFF7CAFBBE
:100A2000E4860008048700080EB540F233410291C5
:100A30000021CDE900110A460B46FFF714FF03B071
:100A400000BD30B58C1810F8012B12F00F0301D146
:100A500010F8013B120906D110F8012B03E010F841
:100A6000015B01F8015B5B1EF9D101E001F8013B7C
:100A7000521EFBD1A142E6D3002030BD30B50C465A
:100A8000050008D0022C06D9FF22611E00F07AFB77
:100A9000291901F8010C30BDFEE70000014800F003
:100AA000F0BC0000DC010020014800F0EABC0000BE
:100AB000DC010020014800F0E4BC0000040200203A
:100AC000014800F0DEBC000004020020F0B507463B
:100AD00000681449002401250E2695B088420DD1E6
:100AE0000494CDE908560594019402940094694653
:100AF0000D480394CDE9064500F0C8FB0B49386862
:100B000088420DD1CDE90E4612950B940C940A94AF
:100B10000AA9074813960D94CDE9104500F0B6FBDD
:100B200015B0F0BD00640040DC010020006800400A
:100B30000402002010B5044600F02EFF02212046DA
:100B400000F02EFB2046BDE81040FFF7BFBF70B598
:100B500088B00826DDE90C54069600260291059619
:100B6000110A8DF800108DF80120190A8DF8021075
:100B7000290A8DF804108DF80550210A8DF8061009
:100B80008DF8033004968DF8074001236A4602A9C8
:100B900000F018FB08B070BD30EE600A0849DFEDC8
:100BA000090A10EE100A884201DD30EE600A06499B
:100BB00010EE100A884201D930EE200A704700007A
:100BC000000034430000B443000034C310B52DEDE1
:100BD000088BB0EE409AF0EE619AB0EE42AAB0EE09
:100BE00062BADFED1CAAB0EE608A21EE2A0A10EE8E
:100BF000100AFFF77CFD41EC100B04F0B5F951EC45
:100C0000100BFFF787FD2BEE2A0A08EE900A10EE74
:100C1000100AFFF76CFD41EC100B04F0A5F951EC44
:100C2000100BFFF777FDF0EE480A00EE100A59EEC0
:100C3000280A38EEC01A49EEC00A70EE8A0A80EE21
:100C4000810AF0EE480A30EE491A48EE810ABDECFE
:100C5000088B10BD98F98E3C70B50C46054664A112
:100C600000F006F918B1204606F014FBB9E061A1C6
:100C7000284600F0FDF818B1204606F03FFBB0E032
:100C80005DA1284600F0F4F818B1204606F06AFB92
:100C9000A7E05AA1284600F0EBF818B1204606F06C
:100CA00093FB9EE056A1284600F0E2F80028DDD133
:100CB00054A1284600F0DCF80028D7D152A12846DC
:100CC00000F0D6F80028D1D150A1284600F0D0F885
:100CD0000028CBD14EA1284600F0CAF80028C5D183
:100CE0004CA1284600F0C4F800287AD14AA1284631
:100CF00000F0BEF8002874D148A1284600F0B8F8EA
:100D000000286ED146A1284600F0B2F8002868D12C
:100D100044A1284600F0ACF8002862D142A1284640
:100D200000F0A6F800285CD140A1284600F0A0F809
:100D3000002856D13EA1284600F09AF8002850D14C
:100D40003CA1284600F094F800284AD13AA1284650
:100D500000F08EF8002844D138A1284600F088F829
:100D600000283ED136A1284600F082F8C8BB35A144
:100D7000284600F07DF8A0BB33A1284600F078F8A3
:100D800078BB32A1284600F073F850BB30A128464A
:100D900000F06EF810B106F005FA22E02DA1284609
:100DA00000F066F8E8B92CA1284600F061F8C0B957
:100DB0002AA1284600F05CF898B929A1284600F03D
:100DC00057F870B927A1284600F052F848B926A173
:100DD000284600F04DF820B924A1284600F048F834
:100DE00008B1002070BD2146284605F019FEF8E73D
:100DF0002A3100002A3200002A3300002A34000081
:100E00002A3500002A3600002A3700002A38000060
:100E10002A39000023310000233200002333000070
:100E20002334000023350000233600004031000049
:100E300040320000403300004034000040350000E4
:100E400040360000403700004038000040390000C4
:100E50002431000024320000243300002434000038
:100E60002436000024370000243800002439000014
:100E700030B50C46054603F021F90346204603F041
:100E80001DF983420AD1002004E0295C225C9142D2
:100E900004D1401C9842F8DB012030BD002030BD59
:100EA0000022835C23B18B54521C642AF9DB00E0DE
:100EB0008B5401207047000010B5044800F0F8FD85
:100EC000BDE81040024805F05DBF00002C04002082
:100ED00050450020014800F0EBBD00008C040020CC
:100EE00010B5044800F0E4FDBDE81040024805F0EC
:100EF00017BF00004C05002088440020014800F086
:100F0000D7BD0000AC05002010B5044800F0D0FDAE
:100F1000BDE81040024806F015B900000C0600209C
:100F2000B4450020014800F0C3BD00006C0600205D
:100F3000014800F0BDBD0000EC040020016818234A
:100F4000CAB2103AB2FBF3F2054B6FF30901032A60
:100F50009B5CC36500D9091D816508467047000088
:100F6000F081000810B5014600208B698A6A4FF0B5
:100F7000C07453B1B3F5005F15D072B1012A0CD023
:100F8000022A0AD0032A09D104E01AB1012A06D0A4
:100F9000022A03D1C96AC90100D5012010BDC96A5E
:100FA000A142FAD010BD002AF7D0012AF2D0022ABD
:100FB000F3D0032AF3D010BD30B50468256825F4BA
:100FC00080252560046863608368402B036803D034
:100FD00099600068C26030BD9A600068C16030BD31
:100FE0002DE9F04781460027012603F067F8051E2A
:100FF00034D00024DFF868802DE0621C214648468A
:1010000003F064F817A1FFF733FF88B12246394691
:10101000484603F05BF802F0B7FF10EE100AFFF746
:1010200066FB08EBC602671CC2E90001761C11E0F2
:10103000281B01280ED12A463946484603F046F8B7
:1010400002F0A2FF10EE100AFFF751FB08EBC602F8
:10105000C2E90001641CAC42CFDB3046BDE8F0873A
:10106000884700202000000070B52149214B282826
:101070000A780BD012B19854521C0A7029280BD14F
:101080000024D0B225461C540C700BE0002AF2D18B
:10109000282018700120087070BD581940785855E4
:1010A0006D1CEDB2134803F009F8401EA842F4DCB1
:1010B000104803F003F818440E4A00F8024C503A66
:1010C000A2F114010B4802F04DFC0A485038FFF71A
:1010D00087FF014607486438FFF7BEFD0549002039
:1010E00050390C54401CC0B26428FAD370BD0000C3
:1010F000D8000020BC46002070470000F0B5002357
:101100000C4C1E460127C55C35B144F82360CF5412
:101110005B1C0D2BF7DBF0BD54F8235005F1010CDF
:1011200044F823C09542F3DDC55C002DF0D1CE54C8
:10113000EEE70000B84A0020704702460020431E38
:10114000115C202904D011B1401C6428F8DB18463A
:101150007047000030B5094C0021206802F0F0F81B
:10116000074D01212870606802F0EAF868700221DA
:10117000A06802F0E5F8A87030BD0000FC43002034
:10118000A84A002010B5054C04E000BF10F8013B50
:101190005340E25C491EF9D2104610BD108200088F
:1011A00090F82020012A07D0022A05D0416A41F494
:1011B0008021416201207047006842690A43426110
:1011C00000207047F0B590F820500468A468012D05
:1011D00005D0022D03D0416A41F4802153E014F080
:1011E000406F01D1E5004BD5C4F30164022C03D953
:1011F000416A41F4000146E00125A5401D608D686B
:101200004FF4C0739DB1CE6835434E6845EAC605BC
:10121000066803EB0417F5514FF4C275076805EB38
:1012200004150E697E51097D012905D009E00E885B
:10123000CD6845EA4655EBE701684E5946F480769D
:101240004E511179D2F805504FF4C67641EA052582
:10125000016806EB04168D511178D2F801204FF485
:10126000C47541EA0221026805EB0415515100687A
:1012700003EB0411425842F0010242500020F0BD3D
:10128000416A41F4001141620120F0BD10B590F8AF
:101290002020012A07D0022A05D0416A41F480218A
:1012A0004162012010BD3B48D0F8002242F001020B
:1012B000C0F80022D0F8002222F47C52C0F80022AC
:1012C000D0F800224B6A42EA0322C0F800220A7DCD
:1012D00002F01F0301229A40D0F81C329343C0F859
:1012E0001C32CB69B3B9D0F80C329343C0F80C323E
:1012F0008C894B6864F31F434C6900EBC404C4F849
:1013000040320C890B6864F31F434C6900EBC40442
:10131000C4F84432CB69012B16D1D0F80C321343F8
:10132000C0F80C320C884B6864F31F434C6900EB27
:10133000C404C4F840320C89CB6864F31F434C6981
:1013400000EBC404C4F844328B69002BD0F804329B
:101350000ED01343C0F804320B69002BD0F81432BE
:1013600008D01343C0F81432096A012904D008E0F8
:101370009343EFE79343F5E7D0F81C121143C0F80D
:101380001C12D0F8001221F00101C0F80012002058
:1013900010BD000000640040704730B590F8204058
:1013A000012C05D0022C03D0416A41F480215DE07C
:1013B0000468002955D02469A40754D04FF4D87488
:1013C000056804EB01142D5915F0040595600568B6
:1013D0002D594ED0ED08556005682C59C4F34004D2
:1013E000D4604FF4DA74056804EB01142D5905F04C
:1013F0000F05156105682D59C5F307259561056829
:101400002C59240C54614FF4DC72046802EB011275
:10141000A4581C700468A458240A5C700468A4587A
:10142000240C9C700468A258120EDA704FF4DE721D
:10143000046802EB0112A4581C710468A458240A21
:101440005C710468A458240C9C710468A258120EA4
:10145000DA71006881B1016941F020010161002069
:1014600030BDE468A8E7416A41F4001141620120FF
:1014700030BD6D0D1560AFE7C16841F02001C1605E
:10148000EDE72DE9F05F0546006800244669D0F8D5
:1014900004908768D0F80CB0D0F810A0D0F818806D
:1014A000F10748D0F90714D001218160B80703D5AE
:1014B000284600F09EFA0CE0780702D54FF400644D
:1014C00007E0380702D54FF4805402E0284600F0C8
:1014D0008FFAF80516D529684FF480708860B80532
:1014E00003D5284600F087FA0CE0780502D544F4CD
:1014F000005407E0380502D544F4804402E0284651
:1015000000F078FAF80316D529684FF48030886027
:10151000B80303D5284600F070FA0CE0780302D532
:1015200044F4004407E0380302D544F4803402E078
:10153000284600F061FA300707D55FEACB6004D592
:101540002968102044F40074C86070074FF0080741
:1015500007D55FEA0B7004D52868C760284600F0FD
:10156000A9F9B00706D52868C068800702D02846C8
:1015700000F0A2F9700607D55FEACA6004D52968B1
:10158000102044F480640861B00607D55FEA0A7051
:1015900004D528680761284600F0FAF9F00606D558
:1015A00028680069800702D0284600F0F2F9B003ED
:1015B00008D55FEAC96005D529681020486028462B
:1015C00000F0E8F9F00307D55FEA097004D5286850
:1015D0004760284600F012FA300446D55FEA4970A9
:1015E00040D5F00504D55FEAC87001D044F001048D
:1015F000B00504D55FEA887001D544F00204700597
:1016000004D55FEA487001D544F00404300529D5BB
:1016100018F0700F26D008F07000402815D006DCB6
:10162000102809D020280AD0302816D10AE05028E6
:101630000ED0602811D10EE044F008040DE044F013
:1016400010040AE044F0200407E044F0400404E001
:1016500044F0800401E044F480742868816921F03A
:1016600070018161296804204860002C05D0686AF7
:10167000204368622846FFF78FFEBDE8F09F70B5F3
:10168000040003D094F8200010B104E0012070BDE4
:10169000204600F081F82068016821F00201016015
:1016A00000F092FC0546052604E000F08DFC401B8E
:1016B0000A2811D8206840688007F6D4206801689D
:1016C00041F00101016000F07FFC05460BE000F0F5
:1016D0007BFC401B0A2806D9606A40F40030606237
:1016E00084F82060D2E720684068C007EFD0207EF1
:1016F0000128206801683DD021F080010160607EF2
:1017000001282068016838D021F040010160A07EE6
:1017100001282068016833D021F020010160E07EBB
:101720000128206801682ED041F010010160207F5F
:1017300001282068016829D021F008010160607F3C
:1017400001282068016824D021F004010160D4E957
:1017500002010843D4E90412114308436168491E99
:1017600008432168C86100206062012084F82000DD
:10177000002070BD41F08001C0E741F04001C5E7A5
:1017800041F02001CAE721F01001CFE741F0080144
:10179000D4E741F00401D9E7F0B587B0044614213D
:1017A0006846FEF7CDFD3E4B3E48DFF8F0E0196895
:1017B000D4F800C03B4A0325022609271030002434
:1017C000491CF4452AD11960012907D1016841F06B
:1017D00000710160006800F000700590106840F032
:1017E000080010601068CDE9005600F00800CDE94F
:1017F000047069462C48CDE9024500F0F3FA002256
:101800000621132000F06EFC132000F05DFC002286
:101810000621142000F066FC14203BE0DFF88CE089
:10182000F44539D1D0F800C04CF0806CC0F800C04D
:10183000D0F800C001290CF0806CCDF814C01960FC
:1018400007D1016841F000710160006800F000708C
:101850000590106840F002001060106802AB00F0C4
:10186000020005904FF44050CDE9000683E8B00037
:1018700069460F4800F0B6FA002207213F2000F029
:1018800031FC3F2000F020FC00220721402000F026
:1018900029FC402000F018FC07B0F0BD00640040B7
:1018A0000000002030380240000C02400068004078
:1018B000000402407047000030B5054600682B491F
:1018C0008FB0884244D12A4B6A4600212948FFF74D
:1018D00064FD009800232649274CA0F500700138CC
:1018E00004D0012814D0022832D123E00888234AEA
:1018F00040BA5080488840BA00B21080002800DA10
:101900004042052800DC13802068401C20601FE056
:10191000088842BA1A484280498849BA09B2018007
:10192000002900DA4942052900DC03806068401C78
:1019300060600DE01348428882800A8852BA428073
:10194000498849BA018005F0D1F9A068401CA0601F
:101950000D492868884206D1054B07AA08330021A3
:101960000A48FFF71AFD0FB030BD000000640040C8
:1019700090000020DC010020FC430020904C00205F
:10198000B84C0020684B0020006800400402002092
:10199000704770477047000070B5044690F820000B
:1019A000012804D0606A40F40020606218E0022040
:1019B00084F820002068016821F00101016000F036
:1019C00003FB05460EE000BF00F0FEFA401B0A28AC
:1019D00008D9606A40F400306062052084F8200075
:1019E000012070BD20684068C007EDD1606270BD05
:1019F00070477047704770477047704770472DE9D0
:101A0000F0410446876D00F0DFFA064694F8350091
:101A10000025022806D08020606584F8345001201B
:101A2000BDE8F0812068016821F01601016020689E
:101A3000416921F080014161206C08B9A06C20B19E
:101A40002068016821F0080101602068016821F028
:101A5000010101600BE000F0B7FA801B052806D9F0
:101A60002020606504F8345F03206070D8E72068A8
:101A70000068C007EFD194F85C103F208840B86040
:101A800004F8345F012060700020C9E790F8351039
:101A9000022903D08021416501207047052180F88B
:101AA00035100068016821F00101016000207047D5
:101AB0002DE9F84304464FF00009CDF80090634843
:101AC0004FF41651A56D0068B0FBF1F72E6894F83D
:101AD0005C10082000FA01F131420FD021680A6839
:101AE00052070BD50A6822F004020A6094F85C10D1
:101AF0008840A860606D40F00100606594F85C105B
:101B00004FF0010808FA01F0304208D02168496915
:101B1000090604D5A860606D40F00200606594F885
:101B20005C1004208840304208D021680968890789
:101B300004D5A860606D40F00400606594F85C1006
:101B400010208840304218D021680968090714D550
:101B5000A86020680168490304D50068000308D51F
:101B6000A16C07E00168C90503D4016821F00801F0
:101B70000160216C09B12046884794F85C10202050
:101B80008840304231D021680968C9062DD5A86047
:101B900094F8350005282068016806D0490347D528
:101BA000006800031DD4616C1CE021F01601016087
:101BB0002068416921F080014161206C08B9A06C66
:101BC00020B12068016821F00801016094F85C10E0
:101BD0003F208840A86084F8349084F83580216DD7
:101BE0001FE0E16B09B120468847606D00282BD0CB
:101BF000606DC00714D0052084F8350020680168A6
:101C000021F0010101600098401C0090B84203D807
:101C100020680068C007F6D184F8349084F83580D5
:101C2000E16C002910D001B02046BDE8F043084720
:101C30000168C905D5D4016821F01001016084F85C
:101C4000349084F83580CCE7BDE8F8832C00002080
:101C50002DE9F041044600F0B7F906465CB10025D5
:101C600084F83450022084F835002068016821F09F
:101C7000010101600DE00120BDE8F08100F0A4F950
:101C8000801B052805D920206065032084F83500D5
:101C9000F2E720680068C007F0D122681168204888
:101CA0000140D4E901031843D4E903363343184310
:101CB00063691843A3691843E3691843236A184307
:101CC0000843616A042903D1D4E90B13194308437B
:101CD000106020684069666A20F0070130460E43B4
:101CE000012704280CD1A06A0643E06A40B12046CF
:101CF000FFF738F920B14020606584F83570BAE705
:101D0000206846612046FFF719F994F85C203F21CE
:101D100091408160656584F835700020ACE7000073
:101D20003F8010F070B5044690F83400002501287B
:101D30000CD0012084F8340094F835600020012E86
:101D400006D084F834000225284670BD022070BDFC
:101D5000022684F8356060652046FFF72DF920687B
:101D6000016841F001010160EEE72DE9F041044610
:101D7000866D90F83400002501280DD0012084F8EC
:101D8000340094F835700020012F07D084F8340017
:101D900002252846BDE8F0810220FBE7022784F8EF
:101DA000357060652046FFF707F994F85C103F2016
:101DB0008840B0602068016841F016010160206829
:101DC000416941F080014161206C20B120680168C7
:101DD00041F0080101602068016841F001010160E3
:101DE000D7E700002DE9F84FDFF890B100224FF05F
:101DF00001084FF0030A4FF00F090BF1040E00BF6A
:101E00000B6808FA02F42340A3426ED14D68022DFC
:101E100001D0122D0ED1D50800EB850CDCF8205036
:101E20005607F70E09FA07F6B5430E69BE402E4372
:101E3000CCF82060066855000F790AFA05FC07F017
:101E4000030726EA0C06AF40374307604E68012EB1
:101E500005D0022E03D0112E01D0122E0ED187688C
:101E6000CE6827EA0C07AE403E4386604668A6432C
:101E70000C79C4F30014944034434460C4688E6801
:101E800024EA0C04AE402643C6604C68E4006FD5DB
:101E90003B4C256845F480452560246822F0030505
:101EA00004F480440094374C2E19D6F8084895075E
:101EB0002F0F09FA07F5AC43334DA84201D1002595
:101EC0002EE0324DA84201D1012529E0304DA84233
:101ED00001D1022524E02F4DA84201D103251FE0A6
:101EE0002D4DA84202D104251AE041E02B4DA84215
:101EF00001D1052514E02A4DA84201D106250FE0A5
:101F0000284DA84201D107250AE0274DA84201D15A
:101F1000082505E0254DA84201D1092500E00A2544
:101F2000BD402543C6F80858DBF800405D464E68C2
:101F30009C43F60300D51C432C60DEF80040754638
:101F40004E689C43B60300D51C432C600B4D0835EE
:101F50002C684E689C43F60200D51C432C60074D4C
:101F60000C352C684E689C43B60200D51C432C608F
:101F7000521C102AFFF444AFBDE8F88F003C01402A
:101F8000443802400030014000000240000402409A
:101F900000080240000C0240001002400014024001
:101FA00000180240001C02400020024000240240B1
:101FB000426931EA020200D10904816170470AB125
:101FC000816170470904FBE70148806870470000A1
:101FD0002000002002488168027811448160704727
:101FE000200000200B4810B5016841F40071016029
:101FF000016841F480610160016841F48071016011
:10200000032000F08FF80F2000F006F800F040F8F1
:10201000002010BD003C024010B500220146541EB5
:1020200088B0204600F05EF8204600F04DF81448D5
:102030000024016841F010010160006805A900F06A
:1020400010000690684600F017F900F035F90D49C8
:102050004000B0FBF1F10D480B4A491E026040F20E
:10206000E732C0E90324C0E9011400F028FB10B1F5
:10207000012008B010BD054800F03DFBF9E7000065
:102080004038024040420F0000100040CC060020C3
:102090000C4882B0016841F480410160006800F49E
:1020A000804000900748001F016841F080510160A6
:1020B0000068002200F0805000900F21901E02B0B6
:1020C00000F010B844380240002809DB00F01F027D
:1020D000012191404009800000F1E020C0F800118A
:1020E00070470000F0B40E4B1B680C46C3F302238C
:1020F000C3F10705042D00D90425191D072901D2B4
:10210000002300E0DB1E012606FA05F1491E2140EE
:1021100099409E40761E16403143F0BC02F0E1BC6F
:102120000CED00E0064900F0070208684FF6FF03D7
:10213000184040EA0220034A10430860704700003C
:102140000CED00E00000FA052DE9F0470E46050011
:1021500065D0DFF81481D8F80000F7B200F00F0066
:10216000B04207D288F80070D8F8000000F00F00E5
:10217000B04254D128683D4C810712D5400703D5A1
:10218000206840F4E05020602878000703D52068DC
:1021900040F4604020602068A96820F0F000084307
:1021A00020602878C0072DD0304968680839012898
:1021B00012D0022813D0032811D0096889070029FA
:1021C0002DDA216821F0030101432160FFF7FCFEB5
:1021D000814641F2883A0EE009688903EFE7096811
:1021E0008901ECE7FFF7F0FEA0EB0901514502D9A8
:1021F0000320BDE8F0872068696800F00C00B0EBB0
:10220000810FEFD1D8F80010404601F00F01B14224
:1022100007D90770006800F00F00B04201D001201C
:10222000E7E72878400705D52068E96820F4E05002
:10223000084320602878000706D52068296920F423
:10224000604040EAC100206000F056F82168084A6A
:10225000C1F30311515CC840064908600F20FFF725
:10226000DBFE0020C5E70000003C024008380240C9
:10227000F88100082C0000200F2202600C4A13682D
:1022800003F003034360136803F0F00383601368F3
:1022900003F4E053C36012684FF4E05303EAD20240
:1022A00002610448006800F00F00086070470000F9
:1022B00008380240003C02400448054900680968AB
:1022C000044AC1F38221515CC84070472C000020B1
:1022D0000838024008820008044805490068096877
:1022E000044AC1F34231515CC84070472C000020C1
:1022F0000838024008820008154810B5006810F040
:102300000C02144813D01449042A0FD0082A0ED105
:102310000F4C241F2268236802F03F025B0207D59E
:102320002068C0F38810A0FB010106E0084610BD3C
:102330002168C1F38811A1FB00010023FDF7B2FF62
:102340002168C1F30141491C4900B0FBF1F010BD07
:10235000083802400024F400001BB7002DE9F84FB4
:10236000050076D02878DFF8F8B2BE4CC00749D017
:10237000DBF800105846C1F38101012908D000683C
:10238000C0F3810002280AD1201D0068400206D552
:102390002068800336D568680028E2D032E068689B
:1023A000B0F5803F10D0B0F5A02F206810D020F4F9
:1023B00080302060206820F4802020606868A0B110
:1023C000FFF702FE06460CE0206840F48030F4E798
:1023D00040F480202060F7E7FFF7F6FD801B6428BB
:1023E00073D820688003F7D50CE0FFF7EDFD0646B3
:1023F00005E000BFFFF7E8FD801B6428F0D82068E7
:102400008003F7D42878DFF8608280074FF0000956
:102410003ED5DBF80010584611F00C0F09D00068CB
:10242000C0F3810002280BD18D48001F00684002D4
:1024300006D42068800715D5E868012809D111E085
:10244000E868B8B10120C8F80000FFF7BDFD0646F6
:1024500005E002E1FFF7B8FD801B0228C0D8206824
:102460008007F7D52068296920F0F80040EAC1000C
:1024700020600DE0C8F80090FFF7A6FD064604E0D6
:10248000FFF7A2FD801B02281FD820688007F7D421
:102490002878000722D5724E744869696C3671B18C
:1024A00001210160FFF790FD074604E0FFF78CFD76
:1024B000C01B022809D830688007F7D50EE0C0F8A5
:1024C0000090FFF781FD074605E083E0FFF77CFD04
:1024D000C01B02287ED830688007F7D428784007D0
:1024E00068D5DFF87CA100270AF1380ADAF8000085
:1024F000C0000BD4DAF8001041F08051CAF8001087
:10250000DAF80000012700F080500090584E306843
:10251000C00510D4306840F480703060FFF754FD7F
:10252000009005E0FFF750FD0099401A022851D8AD
:102530003068C005F6D54A4EA868683601280FD025
:102540000528306810D020F001003060306820F09D
:1025500004003060A868B8B1FFF736FD00900FE0C6
:10256000306840F00100F4E740F004003060F7E725
:10257000FFF72AFD0099411A41F28830814264D860
:1025800030688007F4D50EE0FFF71EFD009007E0ED
:10259000FFF71AFD0099411A41F28830814254D860
:1025A00030688007F4D42FB1DAF8001021F08051A0
:1025B000CAF80010A869C0B3DBF80010C1F38101AC
:1025C00002294AD00228484607D0C8F86000FFF721
:1025D000FBFC00E039E005463AE04746C8F86000F9
:1025E000FFF7F2FC064604E0FFF7EEFC801B022832
:1025F0002BD820688001F7D4D5E907010843A96AE0
:102600001C4A490802EB01416A6A41EA8211084307
:1026100095F82C1040EA01611148001F016001206B
:102620003866FFF7D1FC054605E014E0FFF7CCFC67
:10263000401B022809D820688001F7D50BE000BFB5
:10264000FFF7C2FC401B022802D90320BDE8F88F27
:1026500020688001F4D40020F8E70120F6E70000AC
:10266000083802400038024000004742800E4742CE
:10267000007000400000FFFF7047704770B590F891
:102680003C20012A19D0012400F83C4F022242705C
:1026900050F83C3C5A689D6822F070060A68496808
:1026A000324325F0800529435A6050F83C2C916054
:1026B000447000210170084670BD022070BD10B545
:1026C000040003D094F83D0010B107E0012010BDD4
:1026D000002084F83C00204600F00CF8022084F82A
:1026E0003D00211D206801F09FFD012084F83D0080
:1026F000002010BD70470168CA6842F00102CA603C
:102700000068816801F00701062903D0016841F0E3
:1027100001010160002070472DE9F0410D460400E1
:1027200003D094F83D0018B108E00120BDE8F08125
:10273000002084F83C00204600F03AF8022084F89B
:102740003D002068816844F2070291438160211DA9
:10275000206801F069FD226890689169166A2B680B
:10276000AF69034340F20330814341EA0721A8687F
:10277000EF6908434FF6FC418843E96840EA0720C7
:10278000014328692F6A000140EA0730084369685D
:102790006D6926F0AA0646EA05152943936022686A
:1027A000906120680162012084F83D000020BDE7AF
:1027B00010B586B0044614216846FDF7C1FD2268B5
:1027C000354C002135480223A24223D1334A10322E
:1027D000146844F008041460126802F008020592BC
:1027E000026842F080020260006800F080000590FC
:1027F0004FF440600090CDE90131CDE90313694603
:102800002748FFF7EFFA002205213220FFF76AFC84
:1028100032203DE0234CA2423CD1204A14321468BD
:1028200044F002041460126802F002020592026889
:1028300042F480720260006800F4807005906020AD
:102840000090CDE901310320CDE903106946164817
:10285000FFF7C8FA002205212B20FFF743FC2B20AD
:10286000FFF732FC002205212C20FFF73BFC2C2037
:10287000FFF72AFC002205212D20FFF733FC2D2035
:10288000FFF722FC002205212E20FFF72BFC2E2033
:10289000FFF71AFC06B010BD000C004030380240B3
:1028A000001C02400004014000200240704770B547
:1028B0000446006801694FF00005C943890715D433
:1028C000C168C943890711D4E91E0161012020773D
:1028D000206880698007204602D0FFF7E7FF04E008
:1028E00000F0C2F8204600F061F925772068016900
:1028F000C943490717D4C168C943490713D46FF0C6
:1029000004010161022020772068806910F4407F73
:10291000204602D0FFF7CAFF04E000F0A5F82046E9
:1029200000F044F9257720680169C943090716D4E6
:10293000C168C943090712D46FF00801016104207E
:1029400020772068C0698007204602D0FFF7AEFFDD
:1029500004E000F089F8204600F028F92577206887
:102960000169C943C90617D4C168C943C90613D44C
:102970006FF010010161082020772068C06910F411
:10298000407F204602D0FFF791FF04E000F06CF892
:10299000204600F00BF9257720680169C943C90773
:1029A00008D1C168C943C90704D1891E0161204605
:1029B00000F020F920680169C943090609D4C168FB
:1029C000C943090605D46FF0800101612046FFF775
:1029D00053FE20680169C943490609D4C168C94347
:1029E000490605D46FF040010161204600F00CF962
:1029F00020680169C94389060BD4C168C9438906A7
:102A000007D46FF0200101612046BDE87040FFF758
:102A100034BE70BD10B586B0044614216846FDF77B
:102A20008FFC0E492068884215D10D4800210268AC
:102A300042F008020260006800F0080005904FF4C0
:102A4000704000900220CDE90101CDE903106946F4
:102A50000448FFF7C7F906B010BD000000080040A9
:102A600030380240000C0240704770B5044690F8C0
:102A70003C000D4601280DD0012684F83C60022060
:102A800084F83D0042B1042A18D0082A2AD00C2A22
:102A90004DD139E0022070BD206801F037FC20687C
:102AA000816941F0080181612068816921F0040198
:102AB0008161206881692A69114311E0206801F071
:102AC00055FC2068816941F4006181612068816959
:102AD00021F480618161206881692A6941EA0221CB
:102AE000816124E0206801F077FC2068C16941F031
:102AF0000801C1612068C16921F00401C161206839
:102B0000C1692A69114311E0206801F099FC20682D
:102B1000C16941F40061C1612068C16921F480612B
:102B2000C1612068C1692A6941EA0221C16184F852
:102B30003D60002084F83C0070BD10B5040003D057
:102B400094F83D0010B107E0012010BD002084F88A
:102B50003C00204600F00CF8022084F83D00211DC6
:102B6000206801F061FB012084F83D00002010BDC9
:102B700008B500680B49884212D10B48016841F042
:102B8000040101600068002200F0040000900621AA
:102B90001E20FFF7A7FABDE808401E20FFF794BAF1
:102BA00008BD0000000800404038024070470000A7
:102BB00010B504460068012201F09AFB0B49206819
:102BC000884202D00A49884203D1416C41F4004155
:102BD00041642068816801F00701062903D001687B
:102BE00041F001010160002010BD00000000014023
:102BF0000004014000680349884201D1FFF7EAB9A7
:102C00007047000000100040704710B5044600688F
:102C1000416994F83920C1F3C011212A0BD151B177
:102C2000416921F080014161206B08B1FEF7E7FEA8
:102C3000204601F095FC2068416994F83A20C1F3E0
:102C40008011222A0BD151B1416921F0400141612B
:102C5000606B08B1FEF7D3FE204601F073FC002044
:102C600010BD08B5C16B082903D100680168406830
:102C7000009008BD70B5026804461068D1685369B9
:102C800010F00F0F51D003F0010501F49076354399
:102C90005DD0C20705D0CA0503D5E26B42F0010240
:102CA000E263420705D5DA0703D0E26B42F0020285
:102CB000E263820705D5DA0703D0E26B42F0040233
:102CC000E263020705D5DA0703D0E26B42F008029F
:102CD000E263E26B002A34D0800604D5880602D570
:102CE000204601F046FC20684069E16BC0F380108B
:102CF00001F008010143204624D001F023FC2068A4
:102D0000416949061AD5416921F040014161606B72
:102D1000A0B11B490165606BFEF7B8FE002810D01A
:102D2000606B016DBDE87040084783060FD58B06C8
:102D30000DD52046BDE8704001F01BBC2046FFF7D2
:102D400090FF70BDFFF78DFF0020E06370BD0306AC
:102D500006D50B0604D52046BDE8704001F0AABD9B
:102D60004006F3D54806F1D5D168204621F0400150
:102D7000D160202184F8391000F0E0FA70BD000025
:102D8000A544000870B5040004D094F8390000256B
:102D900010B106E0012070BD84F83850204600F0E4
:102DA00023F8242084F839002068C16821F40051F8
:102DB000C160204601F028FC2068016921F490419F
:102DC00001612068416921F02A0141612068C168E0
:102DD00041F40051C160E563202084F8390084F893
:102DE0003A00002070BD00002DE9F04F87B0054685
:102DF00014216846FDF7A4FACA48DFF82483103886
:102E0000D5F800C0C74F0321022201230024061574
:102E10004FF040094FF0006AC4454CD1D7F800C0CC
:102E20004CF4002CC7F800C03F6807F40027059752
:102E3000076847F001070760006800F0010005908F
:102E40008DE80E000820CDE903106946B648FEF76C
:102E5000C9FFB74FB5483860C7E901A4C7E90346C1
:102E60007C61BC61FC613C6238467C62FEF7F0FE2E
:102E700008B1FEF761F96F63BD63AD4FAB486037D2
:102E80003030C7F80890C7E903467C61BC61FC613B
:102E90003C627C62C7E9000A3846FEF7D9FE08B1F9
:102EA000FEF74AF92F63002205213420BD63FFF7A6
:102EB00019F934205CE0DFF87C82DFF868E24FF03B
:102EC000070B0EF1040EC44557D1DEF800C04CF0DC
:102ED000100CCEF800C0DEF8007007F01007059760
:102EE000076847F002070760076807F002070597C1
:102EF000076847F0010707600068884600F0010096
:102F0000059080200090022001900120CDE9020868
:102F10005F466946CDF810B08748FEF763FF4FF46F
:102F200000700090022001900120CDE9020869465E
:102F300004977D48FEF756FF7D4F8048C037C7F89D
:102F40000890C7E903467C61BC61FC613C627C621D
:102F5000C7E9000A3846FEF77BFE08B1FEF7ECF839
:102F60002F63002206212520BD63FFF7BBF8252033
:102F7000FFF7AAF807B0BDE8F08FDFF8C481C445B9
:102F800051D1D7F800C04CF4003CC7F800C03F68EE
:102F900007F400370597076847F0080707600068DF
:102FA000CDE9023100F0080005906020CDE9000273
:102FB000CDF810B069466348FEF714FF5B48624FD6
:102FC00048304FF400383860C7E901A4C7E9034628
:102FD0007C61BC61C7E9074838467C62FEF738FE71
:102FE00008B1FEF7A9F86F63BD63574F4F486037CC
:102FF0006030C7F80890C7E903467C61BC61C7E947
:1030000007487C62C7E9000A3846FEF721FE08B18E
:10301000FEF792F82F63002206212620BD63FFF7FA
:1030200061F82620A4E7DFF82481C44522D13C685A
:1030300044F480243C603C6804F4802405940468D3
:1030400044F0080404600068CDE9023100F0080093
:1030500005904FF44070CDE90002CDF810B06946FC
:103060003848FEF7BFFE002205212720FFF73AF877
:1030700027207DE7364FBC457FF47CAFDEF800C0EB
:103080004CF0200CCEF800C0DEF8007007F02007EE
:103090000597076847F040070760006800F04000A8
:1030A00005904FF484408DE80D000820CDE9031011
:1030B00069462848FEF796FE234F2048C0379038CF
:1030C00038604FF02068C7E90184C7E903467C6196
:1030D000BC61FC613C6238467C62FEF7B9FD08B118
:1030E000FEF72AF86F63BD631B4F1448C7E9034618
:1030F0007C61BC61FC613C6218387C6287E801033A
:103100003846FEF7A5FD08B1FEF716F82F6300223A
:1031100006214720BD63FEF7E5FF472028E70000B2
:10312000004C004040380240000002404060024035
:103130002C0400200010014000040240B86402404A
:1031400000440040000C02404C05002000480040B4
:1031500000140140001802406C060020F8B5044637
:1031600090F83A0020283CD1C1B3BAB394F83800A3
:10317000012836D0012084F83800A162A2850025FC
:10318000E563222084F83A00636B1748D863636BC9
:1031900016481864636B1648D864606B134605655F
:1031A0000846666B216802463046091DFEF7DDFDC4
:1031B000206801684168009184F83850C16841F482
:1031C0008071C1602068416941F00101416120685E
:1031D000416941F0400141610020F8BDFFE7012055
:1031E000FBE70220F9E70000FF4400083B45000828
:1031F000B544000890F83A30202B22D1F9B1F2B151
:1032000090F83830012B1CD081628285C285002164
:10321000C163222280F83A2080F838100168CA6819
:1032200042F48072CA6001684A6942F001024A6150
:103230000068C16841F02001C16000207047012092
:10324000704702207047000008B5006809498842AD
:103250000FD109480078FDF707FF084800680168AA
:1032600040680090BDE80840012203490348FFF789
:10327000C1BF08BD00480040EC440020AC03002062
:1032800070472DE9F843044690F839001F4616466A
:103290000D46202850D1A5B19EB194F838000128E0
:1032A0004AD0012084F838004FF00008C4F83C8070
:1032B000212084F83900FEF787FEA6848146E68443
:1032C00026E00120BDE8F883E08C401EE084A06881
:1032D0004B46B0F5805F4FF000024FF08001204672
:1032E000009703D001F017FBE8B90DE001F013FBE4
:1032F000C8B928882168C0F308004860206908B16F
:103300006D1C05E0AD1C03E0216815F8010B486059
:10331000E08C0028D8D14B4600224021204600975F
:1033200001F0F9FA08B10320CCE7202084F8390035
:1033300084F838800020C5E70220C3E77047FEE725
:10334000074A10B552F8213002F13404C31A44F888
:10335000213042F8210001D0012010BD002010BD15
:10336000EC4A0020104810B50E490160032141606D
:1033700000214FF400228160C0E903124FF4401293
:1033800042610122027641768276C17601774277E8
:10339000FEF775F9002803D0BDE81040FDF7CCBE5C
:1033A00010BD000000640040DC010020104810B592
:1033B0000E4901600321416000214FF40022816029
:1033C000C0E903124FF440124261012202764176B5
:1033D0008276C17601774277FEF751F9002803D053
:1033E000BDE81040FDF7A8BE10BD00000068004019
:1033F00004020020254808B5016841F4001101606D
:10340000016801F400110091016841F4800101603C
:103410000068002200F48000009005210D20FEF7D6
:1034200061FE0D20FEF750FE002205210F20FEF761
:1034300059FE0F20FEF748FE002205211020FEF75E
:1034400051FE1020FEF740FE002205211120FEF75C
:1034500049FE1120FEF738FE002205213920FEF733
:1034600041FE3920FEF730FE002205214520FEF7FF
:1034700039FE4520FEF728FE002206214620FEF7F1
:1034800031FEBDE808404620FEF71EBE303802403F
:1034900010B5A4B0142227496846FCF738FF002174
:1034A000684603F0DBFF244C2249142220601431CB
:1034B00005A8FCF72CFF002105A803F0CFFF1D494C
:1034C0006060142228310AA8FCF721FF00210AA815
:1034D00003F0C4FF1749A06014223C310FA8FCF789
:1034E00016FF00210FA803F0B9FF1249E060142273
:1034F000503114A8FCF70BFF002114A803F0AEFF15
:103500000C4920611422643119A8FCF700FF002146
:1035100019A803F0A3FF07496061142278311EA89F
:10352000FCF7F5FE00211EA803F098FFA06124B06F
:1035300010BD00006481000804000020F0B587B0D1
:1035400014216846FCF7FCFE31480024016841F074
:1035500040010160016801F040010591016841F0FE
:1035600001010160016801F001010591016841F06C
:1035700002010160016801F002010591016841F05A
:1035800008010160016801F008010591016841F43A
:1035900080710160016801F480710591016841F05A
:1035A00080010160016801F080010591016841F02E
:1035B00020010160016801F020010591016841F0DE
:1035C000100101600068134E00F010004FF48045B8
:1035D0000590002229463046FEF7F1FC0E4F0022EE
:1035E00080213846FEF7EBFC00950125CDE901541A
:1035F000694630460394FEF7F5FB80200090CDE944
:103600000154694638460394FEF7ECFB07B0F0BD61
:1036100030380240001402400010024010B58AB059
:10362000002407941C2168460894FCF789FE224870
:10363000204901605321C0E9011440F6C311C0E9DB
:1036400003148461FFF779FA08B1FDF775FD07945B
:1036500007A919480894FFF711F808B1FDF76CFDA8
:103660006020CDE9000402940022694612480494C7
:10367000FFF7FBF908B1FDF75FFD042269460E482C
:10368000FFF7F3F908B1FDF757FD082269460A482C
:10369000FFF7EBF908B1FDF74FFD0C22694606482C
:1036A000FFF7E3F908B1FDF747FD0348FFF7B2F96B
:1036B0000AB010BD000800402C02002010B58CB0EC
:1036C00024216846FCF73CFE002414480994124962
:1036D0000A94C0E900148460C4600461846101201C
:1036E000CDE90004CDE902040494CDE90540079436
:1036F00069460A480894FFF70FF808B1FDF71CFD6A
:10370000099409A905480A94FEF7B8FF002801D0DA
:10371000FDF712FD0CB010BD000C00406C02002043
:1037200010B58CB024216846FCF70AFE0024154829
:10373000099413490A94C0E900148460C4600461C8
:10374000446184610120CDE90004CDE902040494C0
:10375000CDE90540079469460A480894FEF7DCFF66
:1037600008B1FDF7E9FC099409A906480A94FEF797
:1037700085FF002801D0FDF7DFFC0CB010BD000074
:1037800000040140AC0200200C4810B50A49016059
:103790004FF4E1314160002181600C22C160C0E939
:1037A00004128161C161FFF7EDFA002803D0BDE882
:1037B0001040FDF7C1BC10BD004C0040EC020020E1
:1037C0000C4810B50A4901604FF4E1314160002115
:1037D00081600C22C160C0E904128161C161FFF700
:1037E000D1FA002803D0BDE81040FDF7A5BC10BDFC
:1037F000001001402C0300200C4810B50A4901605C
:103800004FF4E1314160002181600C22C160C0E9C8
:1038100004128161C161FFF7B5FA002803D0BDE849
:103820001040FDF789BC10BD004400406C0300202F
:103830000C4810B50A4901604FF4E13141600021A4
:1038400081600C22C160C0E904128161C161FFF78F
:1038500099FA002803D0BDE81040FDF76DBC10BDFB
:1038600000480040AC0300200C4810B50A49016034
:103870004FF4E1314160002181600C22C160C0E958
:1038800004128161C161FFF77DFA002803D0BDE811
:103890001040FDF751BC10BD00140140EC030020A6
:1038A000FEE7000010B5B0EE621A2DED048BB0EE0D
:1038B000408AB0EE613A9FED1F0A1F49F0EE423A8E
:1038C00071EE002A9FED1D0AF0EE608A12EE900A5A
:1038D000884201DD72EEC02A194912EE900A884230
:1038E00001D972EE802AF0EE630AB0EE430AF0EEE0
:1038F000481AB0EE682AB0EE609AF0EE409AFDF7F2
:1039000065F9B0EE601A70EE290A31EE091AB6EECA
:10391000000A60EE800A21EE000A70EEC80A30EE5E
:10392000680A01F0EFF8DFED070ABDEC048B20EE2A
:10393000200A10BD0000B442000034430000B4432C
:10394000000034C3E62E65427047000010B5FFF753
:103950002FF903494FF47A700860091D086010BD03
:1039600034080040F0B514460E460746FDF7E5FB67
:103970000346384600F0A2FB0146002002E03A5C14
:103980003254401C9842FADB0025F554581C06E0DE
:10399000A0EB030C3A5CA444401C0CF8012C8842B8
:1039A000F6DB65545B1C04D131463846FDF778FAE6
:1039B0002570F0BD012003F03BFDFBE72DED028BF0
:1039C00088B0DFF8CC81734C734E744F4FF01409FC
:1039D000B0EE008A0125A06A002850D02068012896
:1039E00002D002284BD1C9E0E06AE8B3DFF8B0A109
:1039F000616840F2EE20CDE900019AED010ABDEECA
:103A0000C00A10EE103A9AED000ABDEEC00A10EEA0
:103A1000102A9FED640A5F496348083104F04EF8AC
:103A20004FF4C87041F27071CDE90310CDE905760D
:103A3000DAED000A5C48A1689AED010A00EB810208
:103A4000FDEEE00ABDEEC00AD2F890310093CDED54
:103A5000010A8DED020A92EDC80A50F82130DAED24
:103A6000020A524A524900E00AE0524802F008FDB8
:103A7000D4E90101814202DB2068401C206082E021
:103A8000A06920B1012825D002284CD14DE098F83A
:103A9000042098F8031098F8000002F055FF10EE8B
:103AA000100AFCF724FE9FED441B53EC112BFCF78E
:103AB000F3FCFCF72FFE00EE100A40F2523384EDC7
:103AC000070ACDF8009098F800103748626803F0B4
:103AD0007DF925E0CDF8009098F8001094ED070AE4
:103AE0004FF4C8633048626803F070F9606894ED81
:103AF000070A00EE900A182130EE481AF8EEE00AA4
:103B000090FBF1F021EE201AC1EE000A00EE100A3F
:103B1000B8EEC00A30EE800ABDEEC00A84ED020A9B
:103B2000A069401CA061E562A2E7CDF8009098F87A
:103B3000001094ED070A4FF461731B48626803F0AC
:103B400045F9606894ED070A00EE900A0C2130EE0A
:103B5000481AF8EEE00A90FBF1F061EE200A80EEE0
:103B6000801A00EE100AB8EEC00A31EE000ABDEE6F
:103B7000C00A84ED020AA069401ED3E7104805730D
:103B80000020F860F060022003F052FC23E7000000
:103B9000C0010020A8000020B84C0020904C00205C
:103BA000184600200000C843E04C0020A851002027
:103BB000D04B0020904B00209A9999999999B93F40
:103BC000E8510020DFF8E090384D394C394E4FF085
:103BD000FF3A4FF001080027A06A00285FD040F2AA
:103BE000EE21354803F0AEF8344A3549324802F048
:103BF0007FFD3148D0E90621D0E9043CD01A61EBC1
:103C00000C01FCF780FB40F6B831884246DC2D48B9
:103C100003F03EFA70732C4886F80E800421006889
:103C2000FFF78EFBC9F80000717B012906D002293D
:103C30000AD003290BD0042931D114E0E9780229F4
:103C400005D1317B51B102E0E9780129F9D0012891
:103C500025D16878012822D1A87800BB16495046A2
:103C600003F000FF1BE0206A411C2162B0F5FA7FDF
:103C700015DB2762307B012806D10F49504603F03F
:103C8000F1FE307B012801D0276108E02069411C4A
:103C90002161032803DBC4E9047800E0B773022044
:103CA00003F0C6FB98E70000D0010020C00100200F
:103CB000A8000020E8510020684B0020504C002054
:103CC000104C002008440020C80100201CB5094CFD
:103CD00000264FF40075208C002300B2CDE90006C9
:103CE0001A4629460448FCF732FF022003F0A0FBE5
:103CF000F1E70000684B0020DC010020DFF86CA039
:103D0000174D184E184C41F270774FF0010940F2F0
:103D1000E2480AF1040B00BF95ED000A144886ED55
:103D2000000A95ED010A86ED010A95ED020A86ED7D
:103D3000020A03F061FEA06A70B902F0A9FD03F067
:103D400043FE606A411C6162B84205DBC4F82890FA
:103D5000CAF80080CBF80080022003F069FBDBE7A3
:103D600018460020E8510020A80000203408004038
:103D7000EC02002086B0DFF8D0A000BFDAF82800FF
:103D800000285CD03148006840B980213048FEF7F7
:103D90000FF94FF480412F48FEF70AF92E48C16809
:103DA000009190E80E002DA000F060FE3348417BAA
:103DB00033A000F05BFE3648016836A000F056FEE6
:103DC0003948D0E90612CDE90012D0E90423B0F950
:103DD000001036A000F04AFE3D4C606BFCF787FCFB
:103DE00006460F46206AFCF782FCDFF8E8B004467E
:103DF0000D46DBF83400FCF77AFC80468946DBF898
:103E00002000FCF774FC41EC100B02A953EC102BC2
:103E100081E8F00030A0CDE9008900F027FE3BA04A
:103E2000DAF8001000F022FE3B4802790178CDE973
:103E3000001283784278C17838A000F017FEC820BD
:103E400003F0F6FA9AE70000A800002064010020C1
:103E5000001002400014024008440020747970658C
:103E6000202564206C7578202564206374256420E7
:103E7000636F6C6F722025640D0A0000E85100200A
:103E800062616C6C636F6C6F722025640D0A0000B8
:103E90006C0100206261636B5F636F756E74202537
:103EA00064200D0A00000000684B00207472616EEF
:103EB000732073706420256420706F7320256C6CF0
:103EC000642074617267657420256C6C640D0A004F
:103ED000504C0020104C0020706F73706964206596
:103EE000727220252E3266206F757420252E326660
:103EF000207370647069642065727220252E3266AA
:103F0000206F757420252E32660D0A00737465705B
:103F10002025640D0A000000C00100207265636561
:103F200069766520425F5720256420726561647957
:103F3000202564206C617374202564207374617281
:103F400074202564206275636B65742025640D0AF6
:103F500000000000094E0A4C0125A06A48B1FDF797
:103F6000F9F8282205490748FDF7C8F8B07800B9E4
:103F7000E560052003F05CFAEFE70000544B0020F9
:103F8000A8000020A84A00202DE9F04106462DEDAA
:103F9000088B4FF000089FED438B4446B0EE489AE3
:103FA000F0EE689A305D58B1A0F130010A2903D3D0
:103FB0002E2801D02D2803D1641CE4B20A2CF1D3A1
:103FC000002504E0705D2E2803D06D1CEDB2A542E3
:103FD000F8D300279FED35AB15E0F05D2D2818D004
:103FE0003038FCF740FB41EC1B0B53EC1A2B51EC27
:103FF000190BFCF757FA53EC1B2BFCF7ACF941EC0F
:10400000190B7F1CFFB2AF42E7D37F1CFDB22F46D6
:1040100018E04FF00108F4E7705D30380A2813D239
:10402000FCF721FB41EC1B0B53EC1A2B51EC180B4A
:10403000FCF738FA53EC1B2BFCF78DF941EC180B0D
:104040006D1CEDB2A542E7D300259FED1AABE41B32
:104050000AE000BF53EC1A2B51EC180BFCF722FAC4
:1040600041EC180B6D1CEDB2AC42F3DC53EC182B99
:1040700051EC190BFCF76FF941EC100BB8F1000F84
:1040800005D051EC100B81F0004141EC100B51ECCC
:10409000100BFCF73FFBBDEC088B00EE100ABDE8EF
:1040A000F08100000000000000000000000000009F
:1040B000000024409A9999999999B93F01460020A6
:1040C0000A5C401C002AFBD1401E704770B50B46AD
:1040D000074C04E0E618C55C761A5B1C3570934209
:1040E000F8DB00202244511A0870014870BD00001E
:1040F0002047002010B5FDF76DFFBDE8104003F02C
:10410000A3B9000030B593B030216846FCF718F928
:1041100014210CA8FCF714F91A480025016841F095
:1041200080510160006800F08050119016480168CD
:1041300021F4404141F4804101600068022400F410
:104140004040119001200090000401908001CDE9D1
:10415000064006200890A820CDE9090404200B9011
:104160006846FEF7FBF80F20CDE90C0480200E9086
:104170004001CDE90F0502210CA8FDF7E5FF13B0C2
:1041800030BD000040380240007000401048016817
:1041900041F4700101600F48016841F001010160C4
:1041A0000C4A00210832116002680B4B1A40026071
:1041B000031D0A4A1A60026822F480220260054840
:1041C0000C300160024958068039086070470000D1
:1041D00088ED00E000380240FFFFF6FE10300024BA
:1041E0000148FEF764BB00002C0200200148FEF7E6
:1041F0005EBB00006C0200200148FEF758BB0000C7
:10420000AC0200200148FEF752BB0000AC020020C7
:104210000148FEF74CBB0000AC0200200148FEF74D
:1042200046BB0000AC020020F0B50268254C264DCC
:10423000264E274F274B4FF0804CA04209D06045B7
:1042400007D0A84205D0B04203D0B84201D098426E
:1042500004D122F0700E4A6842EA0E02A0421BD03E
:10426000604519D0A84217D0B04215D0B84213D03B
:10427000984211D0184DA8420ED0184DA8420BD02C
:10428000174DA84208D0174DA84205D0164DA84298
:1042900002D0164DA84203D122F44075CA682A43C1
:1042A0004D6922F080022A4302608A68C2620A686D
:1042B0008262A04201D0984201D1096901630121C3
:1042C0004161F0BD000001400004004000080040D2
:1042D000000C004000040140004001400044014047
:1042E0000048014000180040001C00400020004031
:1042F00010B501F01F030121046A99408C43046248
:10430000016A9A401143016210BD0000F0B5026AD3
:1043100022F001020262036A42688469124E24F0AC
:1043200073050C682C4323F002058B682B430D4D5D
:10433000A84201D0B04205D123F00807CB683B4327
:1043400023F00403A84201D0B04205D14D6922F404
:10435000407215438A692A43426084614968416317
:104360000362F0BD0000014000040140F0B5026AA4
:1043700022F010020262026A436884690D6824F424
:10438000E64444EA05248D6822F0200242EA051240
:104390000F4D104EA84201D0B04206D1CF6822F096
:1043A000800242EA071222F04002A84201D0B04245
:1043B00007D14D6923F4406343EA85038D6943EADD
:1043C000850343608461496881630262F0BD000037
:1043D0000000014000040140F0B5026A22F480723E
:1043E0000262026A4368C46922F4007224F0730511
:1043F0000C68124E2C438D6842EA05220E4DA842ED
:1044000001D0B04206D1CF6822F4006242EA07220E
:1044100022F48062A84201D0B04207D14D6923F452
:10442000405343EA05138D6943EA05134360C461B1
:104430004968C1630262F0BD000001400004014010
:1044400030B5026A22F480520262046A4268C3698B
:104450000D6823F4E64343EA05238D6824F40054F1
:1044600044EA0534084DA84202D0084DA84204D1C0
:104470004D6922F4804242EA85124260C361496874
:104480000164046230BD00000000014000040140EE
:1044900008220249024800F0BDBA00005045002041
:1044A000EC02002010B5806B0021C185C184FEF7AD
:1044B000D8FB10BD70B5846B2068406994F8391042
:1044C000C0F3C0100025212904D118B1E58420468D
:1044D00000F046F82068406994F83A10C0F3801064
:1044E000222904D118B1E585204600F02BF8E06BB5
:1044F00040F01000E0632046FEF7B3FB70BD10B53E
:104500000146806B09680968C90513D40021C1857B
:104510000168CA6822F48072CA6001684A6922F0A0
:1045200001024A6101684A6922F040024A61202181
:1045300080F83A10FEF788FE10BD10B5806BFEF7CC
:104540009FFE10BD0168CA6822F49072CA600168BB
:104550004A6922F001024A61202180F83A1070472E
:104560000168CA6822F0C002CA60202180F83910B0
:10457000704710B590F83A10222901D0022010BDE2
:104580008168B1F5805F11D00169002901681FD0F1
:10459000496801F07F03816A4A1C82620B70C18DF9
:1045A000491E0904090CC18518D02BE00269816AF3
:1045B000002A0268526805D0D2B20A80816A491C7A
:1045C0008162ECE7C2F308020A80816A891CF7E77E
:1045D0004A68816A4B1C83620A70E0E70168CA6816
:1045E00022F02002CA600168CA6822F48072CA60A0
:1045F00001684A6922F001024A61202180F83A10DC
:10460000FEF722FE002010BD2DE9F04104460068AF
:104610000169E26821F44051114301612169A068F8
:10462000E26908436169114322680843D16849F28D
:104630000C6399430143D16020684169A26921F468
:10464000407111434161E2696425B2F5004F97481A
:10465000974922684FF032083FD08A4201D0824207
:104660007CD1FDF739FE00EBC00101EB0010616861
:104670008900B0FBF1F6FDF72FFE00EBC00101EB66
:10468000001061688900B0FBF1F0B0FBF5F06FF04D
:104690001801484306EB800108EB0110B0FBF5F070
:1046A00000F0F006FDF718FE00EBC00101EB001072
:1046B00061688900B0FBF1F0B0FBF5F006EB001685
:1046C000FDF70AFE00EBC00101EB001061688900F4
:1046D000B0FBF1F7FDF700FED2E08A4201D0824242
:1046E0003DD1FDF7F9FD00EBC00101EB0010616861
:1046F0004900B0FBF1F0B0FBF5F00601FDF7ECFD71
:1047000000EBC00101EB001061684900B0FBF1F75C
:10471000FDF7E2FD00EBC00101EB0010616849000C
:10472000B0FBF1F0B0FBF5F06FF01801484307EB78
:10473000800108EBC100B0FBF5F000F0F80006EBDB
:104740004006FDF7C9FD00EBC00101EB00106168F8
:104750004900B0FBF1F7FDF7BFFD3CE055E0FDF788
:10476000ABFD00EBC00101EB001061684900B0FB3C
:10477000F1F0B0FBF5F00601FDF79EFD00EBC00186
:1047800001EB001061684900B0FBF1F7FDF794FD03
:1047900000EBC00101EB001061684900B0FBF1F0D3
:1047A000B0FBF5F06FF01801484307EB800108EB10
:1047B000C100B0FBF5F000F0F80006EB4006FDF795
:1047C0007BFD00EBC00101EB001061684900B0FB0C
:1047D000F1F7FDF771FD00EBC00101EB001061681E
:1047E0004900B0FBF1F0B0FBF5F06FF01801484361
:1047F00007EB800108EBC100B0FBF5F000F007000B
:10480000216830448860BDE8F081FDF755FD00EB7C
:10481000C00101EB001061688900B0FBF1F6FDF703
:104820004BFD00EBC00101EB001061688900B0FB9B
:10483000F1F0B0FBF5F06FF01801484306EB800192
:1048400008EB0110B0FBF5F000F0F006FDF734FDC9
:1048500000EBC00101EB001061688900B0FBF1F0D2
:10486000B0FBF5F006EB0016FDF726FD00EBC001EE
:1048700001EB001061688900B0FBF1F7FDF71CFD4A
:1048800000EBC00101EB001061688900B0FBF1F0A2
:10489000B0FBF5F06FF01801484307EB800108EB1F
:1048A0000110B0FBF5F000F00F00A9E70014014083
:1048B0000010014090F83910212901D002207047E2
:1048C0008168B1F5805F016A0BD04A1C0262026800
:1048D00009785160C18C491E0904090CC1840ED0AD
:1048E00017E009880268C1F30801516001690029D5
:1048F000016A02D0491C0162ECE7891CFBE70168F0
:10490000CA6822F08002CA600068C16841F04001B4
:10491000C160002070472DE9F041984617460E46C9
:104920000446069D1DE0681C1BD02DB1FDF74CFB15
:10493000A0EB0800A84214D92068C16821F4D07106
:10494000C1602068416921F001014161202084F8A3
:10495000390084F83A00002084F838000320BDE8CC
:10496000F0812068006836EA000004D00020B842D8
:10497000D9D00020F3E70120F9E700000148FEF755
:1049800079B900002C0300200B220249024800F0F4
:1049900041B80000884400206C0300200148FEF765
:1049A00069B90000AC0300201C220249024800F053
:1049B00031B80000B4450020EC0300202DE9F0419F
:1049C000044600680F461D46416816463846FDF706
:1049D000A9F92068416941F0400141612068C1683E
:1049E00041F01001C1602A4631462046FEF7B6FB71
:1049F0002068416941F001014161BDE8F08110B5D5
:104A000004460122FEF7F6FB2068416941F00101EE
:104A1000416110BDF8B503680446154618680E4696
:104A2000C043C0060CD41868586800902046FEF7B2
:104A3000ECF82A4631462046BDE8F840FEF78EBB2A
:104A4000F8BDFEE730B50C4605000CD0022C0AD9A3
:104A5000FF22611EFCF796FB291911F8011C814207
:104A600001D1012030BD002030BD00000FB4054B46
:104A700010B503A9044A029801F056F910BC5DF87C
:104A800014FB00002D710008D401002003B401982C
:104A90004100009850EAC12018BF04204A0D18BFF9
:104AA00040F0010040F2FF72B2EB515F08BF40F0EE
:104AB0000200012808BF052002B07047410008022B
:104AC00018BF04200A0E18BF40F001004FF07F42CB
:104AD00032EA010108BF40F00200012808BF0520AA
:104AE00070470907090E002804DB00F1E02080F878
:104AF0000014704700F00F0000F1E02080F8141D52
:104B00007047000010EE100A10B510EE901A4FF02A
:104B1000684202EB40032DED028BB3F1654F3CBFC1
:104B200002EB4102B2F1654F7CD200BFC0F3C75324
:104B3000C1F3C7529A1A1B2A09DD10F0004F14BFA7
:104B40009FED6E0A9FED6E0ABDEC028B10BD12F157
:104B50001A0F1BDA11F0004F09D010F0004F0CBFF4
:104B60009FED680A9FED680ABDEC028B10BD80EED8
:104B7000208A18EE100AFFF7A1FF042808BF00F0F2
:104B8000F3FFB0EE480ABDEC028B10BD4200B2EB61
:104B9000410F37D910F0004F19BFDFED5C1A9FEDC0
:104BA0005C1ADFED5C1A9FED5C1AB0EE602A0A46D3
:104BB000F1EE400A80F00041B0EE420A10460A1AB7
:104BC0005200B2F1807F34D2484010F0004FDFED48
:104BD000532A9FED533A1DBFBEEE002A71EEE21A32
:104BE00031EE431AB6EE002A04BF71EEA21A31EE7E
:104BF000031AF0EE402A42EE602A40EE020A82EEEC
:104C0000A02A18E011F0004F04BF9FED461AF0EE05
:104C1000411AD4D010F0004F1CBFDFED431A9FEDB6
:104C2000431A00E026E004BFDFED411A9FED411A70
:104C3000C5E780EE202A22EE020ADFED3F0ADFED13
:104C40003F2ABDEC028B40EE202ADFED3D0A40EE0C
:104C5000220ADFED3C2A40EE202ADFED3B0A40EE3F
:104C6000220A22EE000A00EE201A31EE020A30EE8D
:104C7000210A10BD4FF07F42B2EB400F28BFB2EBCC
:104C8000410F05D2BDEC028BBDE8104000F068BFBB
:104C900040EA01035B0008BF41F0FF410BD0B2EBDB
:104CA000400F08BFB2EB410F08D120F0804000EE6A
:104CB000100A21F0804100EE901A37E7B2EB400F66
:104CC00012BF5FEA410240F0FF4001F000413FF4B3
:104CD0002DAF4A0092EA40033FF528AF002AACBF4F
:104CE0009FED1A1A9FED1A1A20EE010A60EE810A52
:104CF00010EE100A10EE901A18E70000DB0FC9BF83
:104D0000DB0FC93FDB0F4940DB0F49C00000C9BFC3
:104D100022AAFDB90000C93F22AAFD390060ED3E7C
:104D2000C30ACE3700000000000049C022AA7DBAA5
:104D30000000494022AA7D3A2DAD65BD8FB8D53D12
:104D40000FB511BE61C84C3EA8AAAABE0000804F94
:104D50000000802F0000000010B52F499FED2C1B94
:104D60002DED020B84B0059820F000408842D8BF9A
:104D70009DED040B2DDD2949884209D1049840B9E5
:104D80004FF0010000F008FF00F0CAFE06B010BDB1
:104D900005DB9DED040B00F0B7FE06B010BD6846C4
:104DA0009DED040B00F020F910F0030004BF9DED11
:104DB000021B9DED000B0CD001280ED09DED021BB7
:104DC0009DED000B022817D0012000F05DFC06B01D
:104DD00010BD00F025FB06B010BD9DED021B9DED42
:104DE000000B012000F050FC51EC100B81F0004151
:104DF00006B041EC100B10BD00F012FB51EC100B93
:104E000081F0004106B041EC100B10BD0000000025
:104E10000000000000000000FB21E93F0000F07FDF
:104E200010B52F499FED2C1B2DED020B84B005987A
:104E300020F000408842DCBF00209DED040B32DDF5
:104E40002849884209D1049840B94FF0010000F088
:104E5000A3FE00F065FE06B010BD05DB9DED040B62
:104E600000F052FE06B010BD68469DED040B00F048
:104E7000BBF810F0030011D0012818D09DED021BE3
:104E80009DED000B02281AD000F0CAFA51EC100B6D
:104E900081F0004106B041EC100B10BD9DED021BEE
:104EA0009DED000B012000F0EFFB06B010BD9DED65
:104EB000021B9DED000B00F0B3FA06B010BD0120FF
:104EC00000F0E2FB51EC100B81F0004106B041EC28
:104ED000100B10BD000000000000000000000000EA
:104EE000FB21E93F0000F07F00B52DED048BB0EE13
:104EF000409AF0EE609A83B051EC190BFBF701FD7C
:104F000041EC180B18EE100A18EE901A8DED008B7C
:104F1000002818BF0120084320F00040C0F17F6046
:104F200000F1E040C00F14D019EE101A19EE900AEB
:104F30008DED009B002918BF0121084320F000409F
:104F4000C0F17F6000F1E040C00F04BF012000F01D
:104F500023FEB0EE480A03B0F0EE680ABDEC048B05
:104F600000BD00000000000010B51D499FED1A1B98
:104F70002DED020B84B0059820F000408842DCBF84
:104F800001209DED040B21DD1649884209D10498CA
:104F900040B94FF0010000F0FFFD00F0C1FD06B088
:104FA00010BD05DB9DED040B00F0AEFD06B010BD9D
:104FB00068469DED040B00F017F800F00100012198
:104FC000A1EB40009DED021B9DED000B00F0F4FBFA
:104FD00006B010BD0000000000000000000000004E
:104FE000FB21E93F0000F07F2DE9F14F04462DED54
:104FF000020B2DED088B8AB09FEDE70B80ED020BC5
:10500000139EE74826F0004585420ADC9DED120B11
:10501000002084ED000B0AB0BDEC088B03B0BDE8A6
:10502000F08FE0489FEDE0AB9FEDE1BBA84247DD8C
:10503000E14F9FEDE39B9FEDE48B9DED120B53EC55
:105040001A2B51EC100B002E1CDDFBF725FA41EC5E
:10505000100BBD4208D053EC1B2B51EC100BFBF78F
:105060001BFAC4E900010BE053EC192B51EC100BB7
:10507000FBF712FA53EC182BFBF70EFAC4E9000108
:105080000120C8E7FBF767F941EC100BBD4208D0DF
:1050900053EC1B2B51EC100BFBF75DF9C4E900013D
:1050A0000BE053EC192B51EC100BFBF754F953ECBC
:1050B000182BFBF750F9C4E900014FF0FF30AAE7C5
:1050C000C348A84279DB9DED120B51EC100B02F0A6
:1050D00021F841EC180B9FEDC00B53EC102BFBF7A4
:1050E000E1F99FEDBF1B53EC112BFBF734F9FBF7F4
:1050F000DFFA0746FBF7B7FA41EC190B53EC1A2B12
:10510000FBF7D0F953EC182BFBF7C9F941EC180B5E
:1051100053EC1B2B51EC190BFBF7C4F9DFF8C8A2B9
:1051200041EC100B4FEA15580125FA4453EC102BB3
:1051300051EC180BFBF7B0F9032DC4E900013DD089
:10514000C1F30A5005EB4511A8EB0000113981426B
:1051500034DA0AEB051BB0EE48AA9BED000BF0EE2B
:1051600068AA53EC102B51EC190BFBF79BF941EC9F
:105170001B0B51EC1A0B53EC1B2BFBF78DF941EC7D
:10518000180B51EC1A0B53EC182BFBF785F953EC69
:105190001B2BFBF781F99BED020B41EC1A0B53EC37
:1051A000102B51EC190BFBF77DF953EC1A2BFBF785
:1051B00073F941EC100B6D1CB8E70EE0002EA8BF90
:1051C0003846BFF628AF94ED000B51EC100B81F080
:1051D0000041C4E9000178421DE7C6F3130040F422
:1051E000801EC6F30A50A0F2F530471100F01F05EB
:1051F000C5F12000DDF848B0089000200690079027
:105200000520EC467949002D07EB0002794408BFE0
:1052100051F8221009D051F8223001EB8201AB4045
:105220004A68089922FA01F11943A1FB0E26A1FB55
:105230000B131A449A4234BF0123002303EB0608E0
:105240000CEB8003D3E901A60E448E4234BF01214A
:10525000002192448A4411B1924502D903E092455B
:1052600001D2012100E00021C3E901A641444CF82C
:105270002010011EA0F10100C4DC029800F10050D2
:10528000850F0298DDE903678000DDF81480FBF7E5
:10529000EAF941EC1A0B3046FBF7C6FB9FED541BB5
:1052A00053EC112BFBF7FEF841EC1B0B3846FBF7D8
:1052B000BBFB9FED511B53EC112BFBF7F3F841ECBB
:1052C000180B4046FBF7B0FB9FED4D1B53EC112B29
:1052D000FBF7E8F841EC190B51EC180B53EC192BC8
:1052E000FBF739F853EC1B2BFBF735F853EC1A2B73
:1052F000FBF731F8CDE90801002008909DED080B7F
:1053000053EC1A2B51EC100BFBF7C6F853EC1B2B8C
:10531000FBF7C2F853EC182BFBF7BEF853EC192B34
:10532000FBF7BDF89FED381B53EC112BFBF7BAF8D8
:105330009FED370B41EC180B53EC102B9DED080B38
:1053400051EC100BFBF7AEF853EC182BFBF703F8FE
:105350009FED310B41EC180B53EC102B9DED080B1E
:1053600051EC100BFBF79EF853EC182BFAF7F3FFF8
:1053700041EC100B139810F0004F06D06D4251EC29
:10538000100B81F0004141EC100B284684ED000B1E
:1053900041E60000000000000000000000000000E6
:1053A000FB21E93F7CD9024000004054FB21F93F3A
:1053B0003163621A61B4D03DFB21F93F0000000067
:1053C0000000601A61B4D03D7370032E8A19A33BAC
:1053D000FB2139410000000083C8C96D305FE43F04
:1053E000000000000000E03F1234000060330000C5
:1053F000000000000000103E000000000000103C13
:10540000000000000000103A182D4454FB21F93D23
:105410003326A611460B113C00000054FB21F93D38
:1054200010B52DED040B2DED088B82B0B0EE419A36
:10543000F0EE619A0B9820F000449FED4BABB4F175
:10544000795F11DA9DED0A0B51EC100BFBF730F987
:10545000002801BFB0EE4A0AF0EE6A0A02B0BDECC5
:10546000088B04BF04B010BD9DED0A0B53EC102B4C
:1054700051EC100BFBF716F841EC180B3C480621D9
:10548000B0EE480AF0EE680A784400F081F853EC78
:10549000182B51EC100BFBF705F89DED0A0B41ECB6
:1054A0001B0B53EC192B51EC100BFAF7FBFF41ECE3
:1054B000190B53EC1B2B51EC180BFAF7F3FF53ECC1
:1054C000192BFAF7E9FF9FED2C0B41EC190B53EC6C
:1054D000102B51EC180BFAF7E5FF41EC100B2848A4
:1054E000844210DA53EC192B51EC100BFAF7D4FF6D
:1054F00053EC1A2BFAF7D3FF41EC100B02B0BDECC2
:10550000088B04B010BD1F48A042BCBF9FED1E1BFE
:105510008DED001B06DBA4F500100190002000902B
:105520009DED001B51EC100B53EC112BFAF7B4FF5F
:105530009DED000B41EC180B53EC102B51EC1A0BAA
:10554000FAF7AAFF41EC1A0B53EC192B51EC180B8C
:10555000FAF7A2FF53EC1A2BFAF7A1FF41EC100B5C
:10556000CCE7000000000000000000000000F03F59
:105570008430000000000000000000000000E03F58
:105580003333D33F0000E93F000000000000D23F6A
:1055900070B504462DED028B4D1E00EBC500B0EE3C
:1055A000408AF0EE608A90ED000B35F0060017D0CF
:1055B00053EC182B51EC100BFAF774FF41EC100B65
:1055C0006D1E04EBC50090ED001B51EC100B53EC6D
:1055D000112BFAF7C0FE41EC100B35F00600E7D1B5
:1055E000022D36D0042D1CD0062D1CBFBDEC028B25
:1055F00070BD53EC182B51EC100BFAF753FF94EDE0
:105600000A1B53EC112BFAF7A6FE53EC182BFAF7F2
:1056100049FF94ED081B53EC112BFAF79CFE41EC6B
:10562000100B53EC182B51EC100BFAF73BFF94EDD9
:10563000061B53EC112BFAF78EFE53EC182BFAF7DE
:1056400031FF94ED040B53EC102BFAF784FE41EC80
:10565000100B53EC182B51EC100BFAF723FF94EDC1
:10566000021B53EC112BFAF776FE53EC182BFAF7CA
:1056700019FF94ED001B53EC112BFAF76CFEBDECF7
:10568000028B41EC100B70BD31B504462DED040BBF
:105690002DED0A8BB0EE41BAF0EE61BA0B989DED9C
:1056A0000A0B20F00040B0F1795F0DDA51EC100BDD
:1056B000FFF7ECF9042808BF00F042FA9DED0A0B51
:1056C000BDEC0A8B05B030BD53EC102B51EC100B28
:1056D000FAF7E8FE41EC180B9DED0A0B53EC182B82
:1056E00051EC100BFAF7DEFE41EC190B2C48B0EE32
:1056F000480AF0EE680A05217844FFF749FF9FED5C
:105700002ACBB0EE40AAF0EE60AA9CB353EC1C2B5F
:1057100051EC190BFAF7C6FE41EC1C0B53EC1A2B9B
:1057200051EC190BFAF7BEFE9FED210B41EC190B62
:1057300053EC102B51EC1B0BFAF7B4FE53EC192B66
:10574000FAF7AAFE53EC182BFAF7ACFE53EC1B2B1E
:10575000FAF7A2FE53EC1C2BFAF79EFE9DED0A1BF6
:1057600053EC112BFAF79BFEBDEC0A8B05B041EC14
:10577000100B30BDFFE753EC1A2B51EC180BFAF766
:1057800091FE53EC1C2BFAF7E6FD53EC192BFAF7BC
:1057900089FE9DED0A1B53EC112BFAF7DCFDE3E7C4
:1057A0000C2F000000000000495555555555C5BF48
:1057B000000000000000E03FF1B506462DED040BAF
:1057C000BD482DED0C8B8AB0B0EE418AF0EE618AB7
:1057D000179D25F000449FEDBABB9FEDBBCB8442E3
:1057E00008DA9DED160B51EC100BFAF761FF00285B
:1057F00000F0E980B64FA74231DC002D0DDA9DEDB7
:10580000160B51EC100B81F00041CDE9160151EC63
:10581000180B81F0004141EC180B9FEDAF0B53ECDE
:10582000102B9DED160B51EC100BFAF738FE53ECD4
:10583000182B9FEDAB0BCDE9040151EC100BFAF7DF
:105840002BFE41EC100B53EC102B9DED040B51EC97
:10585000100BFAF780FD9FEDA48BCDE916019DEDAD
:10586000160B53EC102B51EC100BFAF71BFECDE985
:1058700004019DED040B53EC102B51EC100BFAF7C7
:1058800011FE41EC190B9A480621B0EE490AF0EEE0
:10589000690A7844FFF77CFE9648B0EE40DAF0EEF5
:1058A00060DAB0EE490AF0EE690A06217844FFF7A3
:1058B0006FFE9DED041B51EC100B53EC112BFAF70E
:1058C000F1FD9DED040B41EC1A0B53EC102B9DEDFB
:1058D000160B51EC100BFAF7E5FD41EC190B53ECEC
:1058E0001A2B51EC1D0BFAF736FD53EC192BFAF776
:1058F000D9FD53EC182BFAF72EFD9DED041B53EC4C
:10590000112BFAF7CFFD53EC182BFAF724FD41ECDD
:10591000180B9FED790B51EC190B53EC102BFAF788
:10592000C1FD53EC182BFAF716FD41EC190B9DED58
:10593000160B53EC192B51EC100BFAF70CFD41EC44
:10594000180BA74269DC3046FAF78DFE41EC1A0BC2
:1059500051EC180B53EC1A2BFAF7FDFC41EC1B0B26
:1059600053EC182B51EC180BFAF79CFD53EC1B2B46
:10597000FAF70AFE53EC192BFAF78EFD9DED161B74
:1059800053EC112BFAF78BFD9FED5D1B53EC112BA4
:10599000FAF788FD53EC1A2BFAF781FD41EC180B4E
:1059A000022000EAA570C0F10100FAF75CFE53EC9A
:1059B000182BFAF777FD00BF41EC100B0AB0BDECD5
:1059C0000C8B05B0F0BD711C1698214308430CD018
:1059D0009DED160B012E1CBF53EC102B51EC1C0B34
:1059E00010D000BFFAF7D0FDE6E79DED160B51ECA5
:1059F000100B01F08FFB41EC100B51EC1B0B53EC27
:105A0000102BEFE751EC100BFFF740F8042808BF0C
:105A100000F096F89DED160BD0E7012E04BFB0EE16
:105A2000480AF0EE680AC9D08DED048B0024049476
:105A30009DED040B53EC102B9DED160B51EC100B50
:105A4000FAF72DFD53EC192BFAF729FD41EC190B50
:105A500053EC182B51EC1C0BFAF796FD41EC180B8C
:105A60008DED008B00949DED040B53EC102B9DED00
:105A7000000B51EC100BFAF715FD53EC1B2BFAF74A
:105A80006AFC9DED000B41EC1A0B53EC192B51EC09
:105A9000100BFAF707FD53EC1A2BFAF75CFC53ECEA
:105AA000182BFAF7FFFC9DED001B53EC112BFAF7B6
:105AB00052FC81E7000000000000303E00000000C2
:105AC000000000000000F03F000000000000F0BFF8
:105AD0002894E53F00000000182D4454FB21E93FC5
