:020000040800F2
:10000000A04A002081020008832B0008AF260008C8
:10001000812B0008190900085D3600080000000067
:10002000000000000000000000000000C101000806
:10003000650D0008000000001D020008852E000864
:100040009B0200089B0200089B0200089B0200081C
:100050009B0200089B0200089B0200089B0200080C
:100060009B0200089B0200089B0200089B020008FC
:100070009B0200089B0200089B0200089B020008EC
:10008000AD0B0008B90B00089B0200082909000805
:100090001D0900089B0200089B0200089B02000843
:1000A0009B0200089B0200089B0200089B020008BC
:1000B0009B0200089B0200086D2F00089B020008AD
:1000C0009B0200089B0200089B0200089B0200089C
:1000D0009B020008F935000815360008453600086F
:1000E0009B0200089B0200089B020008852F000865
:1000F000A92F00089D2F0008912F00089B020008DF
:100100009B0200089B020008792F00089B02000850
:100110009B0200089B0200089B0200089B0200084B
:100120009B0200089B0200089B0200089B0200083B
:100130009B0200089B0200089B020008410900087E
:10014000350900089B0200089B0200089B0200087A
:100150009B0200089B020008C50B000851360008EE
:100160009B0200089B0200089B0200089B020008FB
:100170009B0200089B0200089B0200080000000090
:100180009B0200089B0200089B0200089B020008DB
:100190009B0200089B0200089B0200089B020008CB
:1001A00000000000000000009B020008DFF80CD0F7
:1001B00000F0A0FB0048004769420008A04A002068
:1001C0002C4B19680868B0E8F04F80F30988BFF33A
:1001D0006F8F4FF0000080F311887047000000001F
:1001E00008480068006880F308884FF0000080F33A
:1001F000148862B661B6BFF34F8FBFF36F8F00DF15
:1002000000BF00BF08ED00E0DFF80C00016841F41A
:1002100070010160704700BF88ED00E0EFF30980D6
:10022000BFF36F8F134B1A681EF0100F08BF20ED3D
:10023000108A20E9F04F106009B44FF0500080F3AD
:100240001188BFF34F8FBFF36F8F04F063FC4FF043
:10025000000080F3118809BC19680868B0E8F04F05
:100260001EF0100F08BFB0EC108A80F30988BFF3AE
:100270006F8F704730000020EFF30580704700005B
:100280000648804706480047FEE7FEE7FEE7FEE730
:10029000FEE7FEE7FEE7FEE7FEE7FEE7192F0008B0
:1002A000AD0100082DE9F05F0546002092469B460F
:1002B00088460646814640241BE02846414647467C
:1002C000224600F0C2F953465A46C01A914110D353
:1002D00011461846224600F0A9F92D1A67EB0108CD
:1002E0004F4622460120002100F0A0F917EB00093B
:1002F0004E41201EA4F10104DFDC484631462A4667
:100300004346BDE8F09F40EA01039B0703D009E0A4
:1003100008C9121F08C0042AFAD203E011F8013BF1
:1003200000F8013B521EF9D27047D2B201E000F84A
:10033000012B491EFBD270470022F6E710B5134689
:100340000A4604461946FFF7F0FF204610BD2DE986
:10035000FE4F804681EA0300C00F0C46009021F05A
:10036000004123F00045B8EB0200A94105D2404608
:10037000214690461C460B46024623F0004010439F
:1003800047D0270DC7F30A00C3F30A510290401A61
:10039000019040286BDAC3F3130040F4801B0098EF
:1003A000924620B10023D2EB030A63EB0B0B0198BA
:1003B0005946C0F14002504600F038F906460D4655
:1003C00050465946019A00F050F910EB080061417F
:1003D000002487EA115284EAE7731A4340D0009A56
:1003E00062B3019A012A4FEA075215DC001B61EB48
:1003F00002014FF0004202EA0752CDE90042001C20
:1004000041F5801132462B4600F087F903B0BDE874
:10041000F08F40462146F9E7001B61EB0201001C0A
:1004200041F5801300185B412018A2F5001747EB37
:10043000030140EAD570B6196D4111E06D084FEA2D
:10044000360645EAC0754FEA0752001B61EB020110
:10045000001C41F5801149084FEA30000019514154
:1004600032462B4603B0BDE8F04F00F047B9009884
:10047000012240000023D0EB020263EBE0730098FE
:1004800021464FEAE074B8EB000061EB0401E9E7B4
:1004900083F000435BE781F0004158E72DE9FE4F10
:1004A00081EA030404F0004421F0004100944FF07D
:1004B000000B23F0004350EA01045ED052EA03042B
:1004C0005BD0C3F30A54C1F30A552C44A4F2F334AD
:1004D0000194A0FB0254C1F3130141F48011C3F352
:1004E000130343F4801301FB024400FB034E840A10
:1004F000970A44EA815447EA8357A4FB07680295A8
:100500008D0A05FB07854FEA932C04FB0C54270545
:10051000029D4FEA065847EA1637B5EB08056EEB21
:10052000070C870E920E47EA811742EA8312A7FB57
:100530000201B6EB0B0164EB00042B0D43EA0C3314
:100540005E1844EB1C50DA465146E7FB0201C5F346
:1005500013044FEA0B3343EA14534FEA0432019C6D
:1005600043EA0603A4F10C040294009CCDE900B414
:1005700000F0D3F803B0BDE8F08F00200146F9E7A2
:100580000EB5C10F80EAE0700844CA07002140F2AE
:1005900033438DE80E000A460B4600F0BEF803B068
:1005A00000BD00F0004230F000400AD0C10D01F55E
:1005B0006071C0F3160042EA0151C20840071143BE
:1005C000704700200146704701F0004330B421F02D
:1005D000004150EA010206D00A0DA2F56072C1F393
:1005E0001301002A02DC30BC00207047440F44EAAB
:1005F000C104C100E01830BC00EBC25000F047B8A5
:1006000030B50B46014600202022012409E021FAE2
:1006100002F59D4205D303FA02F5491B04FA02F5DF
:100620002844151EA2F10102F1DC30BD202A04DBB2
:10063000203A00FA02F1002070479140C2F12003F5
:1006400020FA03F3194390407047202A04DB203A34
:1006500021FA02F00021704721FA02F3D040C2F1E2
:1006600020029140084319467047202A06DBCB1729
:10067000203A41FA02F043EAE07306E041FA02F35D
:10068000D040C2F12002914008431946704700292A
:10069000A8BF7047401C490008BF20F00100704708
:1006A00010B4B0FA80FC00FA0CF050EA010404BF68
:1006B00010BC704749B1CCF1200421FA04F411FABE
:1006C0000CF118BF012121430843A3EB0C01CB1D02
:1006D0004FEA00614FEA102042BF002010BC704773
:1006E00000EBC35010440029A4BF10BC7047401C4D
:1006F000490008BF20F0010010BC704710B5141E5F
:1007000073F1000408DA401C41F1000192185B41CA
:100710001A4301D120F0010010BD2DE9F04D9246A1
:100720009B4611B1B1FA81F202E0B0FA80F22032B8
:100730009046FFF77BFF04460F4640EA0A0041EA75
:100740000B0153465A46084313D0114653EA0100A1
:1007500019D0C8F140025046FFF777FF05460E4614
:10076000504659464246FFF761FF084305D0012035
:1007700004E020463946BDE8F08D0020054346EAF6
:10078000E0762C4337430A986305E40AA0EB08009F
:100790000022FD0A44EA47540A3002D500200146EF
:1007A000E9E7010510196941DDE9084500196941CA
:1007B000BDE8F04DA2E72DE9F04D81EA030404F015
:1007C000004B21F0004514464FF0000A23F0004191
:1007D00050EA050220D054EA01021DD0C5F30A57A1
:1007E0000246C5F31303C1F31300C1F30A5640F4E4
:1007F000801543F48013A7EB0608101BD64608F2B9
:10080000FD3873EB050002D308F1010801E09218EE
:100810005B41B8F1000F03DA00200146BDE8F08D1E
:1008200000204FF48011064684460EE0171B73EB40
:10083000050705D3121B63EB050306434CEA010CC5
:1008400049084FEA300092185B4150EA0107EDD1A8
:1008500052EA030012D082EA040083EA0501084349
:1008600005D0101BAB4106D20122002306E0002276
:100870004FF0004302E06FF0010253101AEB060044
:100880004CEB085110EB0A0041EB0B01BDE8F04DB9
:10089000FFF734BFC1F30A52C1F3130140F2FF3333
:1008A00041F480119A4202DA00200146704740F27A
:1008B00033439A42A2F2334202DC5242FFF7C5BEF2
:1008C000FFF7B4BE30B5041E71F1000404DB4FF035
:1008D0000044404264EB0101141E73F1000405DB87
:1008E0001C464FF00043524263EB0403994208BF99
:1008F000904230BD064C074D06E0E06840F0010331
:1009000094E8070098471034AC42F6D3FFF752FC46
:10091000904F0008B04F0008FEE70000014800F0CB
:1009200030BA000024010020014800F02ABA00007B
:1009300024010020014800F024BA00004C010020EE
:10094000014800F01EBA00004C01002070B50C46B2
:10095000054664A100F006F918B1204603F0AEFC8C
:10096000B9E061A1284600F0FDF818B1204603F077
:10097000D9FCB0E05DA1284600F0F4F818B120469B
:1009800003F004FDA7E05AA1284600F0EBF818B1E7
:10099000204603F02DFD9EE056A1284600F0E2F827
:1009A0000028DDD154A1284600F0DCF80028D7D17A
:1009B00052A1284600F0D6F80028D1D150A12846EF
:1009C00000F0D0F80028CBD14EA1284600F0CAF89C
:1009D0000028C5D14CA1284600F0C4F800287AD1DF
:1009E0004AA1284600F0BEF8002874D148A1284644
:1009F00000F0B8F800286ED146A1284600F0B2F801
:100A0000002868D144A1284600F0ACF8002862D143
:100A100042A1284600F0A6F800285CD140A1284653
:100A200000F0A0F8002856D13EA1284600F09AF820
:100A3000002850D13CA1284600F094F800284AD163
:100A40003AA1284600F08EF8002844D138A1284663
:100A500000F088F800283ED136A1284600F082F840
:100A6000C8BB35A1284600F07DF8A0BB33A12846BD
:100A700000F078F878BB32A1284600F073F850BB3C
:100A800030A1284600F06EF810B103F0E5FB22E03B
:100A90002DA1284600F066F8E8B92CA1284600F000
:100AA00061F8C0B92AA1284600F05CF898B929A1DC
:100AB000284600F057F870B927A1284600F052F8F0
:100AC00048B926A1284600F04DF820B924A12846AF
:100AD00000F048F808B1002070BD2146284603F018
:100AE00049FAF8E72A3100002A3200002A330000D0
:100AF0002A3400002A3500002A3600002A37000078
:100B00002A3800002A390000233100002332000077
:100B10002333000023340000233500002336000077
:100B200040310000403200004033000040340000FB
:100B300040350000403600004037000040380000DB
:100B4000403900002431000024320000243300002A
:100B5000243400002436000024370000243800002C
:100B60002439000030B50C46054602F06FF9034603
:100B7000204602F06BF983420AD1002004E0295C90
:100B8000225C914204D1401C9842F8DB012030BD28
:100B9000002030BD0022835C23B18B54521C642A98
:100BA000F9DB00E08B54012070470000014800F0A1
:100BB0001FBB000094030020014800F019BB000097
:100BC000F4030020014800F013BB000034030020B0
:100BD00001681823CAB2103AB2FBF3F2054B6FF367
:100BE0000901032A9B5CC36500D9091D816508467C
:100BF000704700001C4F000810B5014600208B69AB
:100C00008A6A4FF0C07453B1B3F5005F15D072B16A
:100C1000012A0CD0022A0AD0032A09D104E01AB111
:100C2000012A06D0022A03D1C96AC90100D50120D0
:100C300010BDC96AA142FAD010BD002AF7D0012A1E
:100C4000F2D0022AF3D0032AF3D010BD2DE9F047E9
:100C500081460027012602F0F9F8051E34D0002451
:100C6000DFF868802DE0621C2146484602F0F6F865
:100C700017A1FFF777FF88B122463946484602F0B0
:100C8000EDF802F049F810EE100AFFF78AFC08EBC5
:100C9000C602671CC2E90001761C11E0281B01286E
:100CA0000ED12A463946484602F0D8F802F034F808
:100CB00010EE100AFFF775FC08EBC602C2E900014E
:100CC000641CAC42CFDB3046BDE8F0878043002097
:100CD0002000000070B52149214B28280A780BD04C
:100CE00012B19854521C0A7029280BD10024D0B29A
:100CF00025461C540C700BE0002AF2D128201870F5
:100D00000120087070BD5819407858556D1CEDB21F
:100D1000134802F09BF8401EA842F4DC104802F091
:100D200095F818440E4A00F8024C503AA2F114010A
:100D30000B4801F061FF0A485038FFF787FF014672
:100D400007486438FFF702FE0549002050390C546B
:100D5000401CC0B26428FAD370BD00009800002087
:100D6000B44200207047704702460020431E115CC9
:100D7000202904D011B1401C6428F8DB18467047C4
:100D800070472DE9F05F0546006800244669D0F8F9
:100D900004908768D0F80CB0D0F810A0D0F8188074
:100DA000F10748D0F90714D001218160B80703D5B5
:100DB000284600F005FA0CE0780702D54FF40064ED
:100DC00007E0380702D54FF4805402E0284600F0CF
:100DD000F6F9F80516D529684FF480708860B805D3
:100DE00003D5284600F0EEF90CE0780502D544F46E
:100DF000005407E0380502D544F4804402E0284658
:100E000000F0DFF9F80316D529684FF480308860C8
:100E1000B80303D5284600F0D7F90CE0780302D5D3
:100E200044F4004407E0380302D544F4803402E07F
:100E3000284600F0C8F9300707D55FEACB6004D533
:100E40002968102044F40074C86070074FF0080748
:100E500007D55FEA0B7004D52868C760284600F004
:100E6000A9F9B00706D52868C068800702D02846CF
:100E700000F0A1F9700607D55FEACA6004D52968B9
:100E8000102044F480640861B00607D55FEA0A7058
:100E900004D528680761284600F08EF9F00606D5CB
:100EA00028680069800702D0284600F086F9B00360
:100EB00008D55FEAC96005D5296810204860284632
:100EC00000F07CF9F00307D55FEA097004D52868C3
:100ED0004760284600F079F9300446D55FEA49704A
:100EE00040D5F00504D55FEAC87001D044F0010494
:100EF000B00504D55FEA887001D544F0020470059E
:100F000004D55FEA487001D544F00404300529D5C2
:100F100018F0700F26D008F07000402815D006DCBD
:100F2000102809D020280AD0302816D10AE05028ED
:100F30000ED0602811D10EE044F008040DE044F01A
:100F400010040AE044F0200407E044F0400404E008
:100F500044F0800401E044F480742868816921F041
:100F600070018161296804204860002C05D0686AFE
:100F7000204368622846FFF703FFBDE8F09F70B585
:100F8000040003D094F8200010B104E0012070BDEB
:100F9000204600F081F82068016821F0020101601C
:100FA00000F052FB0546052604E000F04DFB401B17
:100FB0000A2811D8206840688007F6D420680168A4
:100FC00041F00101016000F03FFB05460BE000F03D
:100FD0003BFB401B0A2806D9606A40F4003060627F
:100FE00084F82060D2E720684068C007EFD0207EF8
:100FF0000128206801683DD021F080010160607EF9
:1010000001282068016838D021F040010160A07EED
:1010100001282068016833D021F020010160E07EC2
:101020000128206801682ED041F010010160207F66
:1010300001282068016829D021F008010160607F43
:1010400001282068016824D021F004010160D4E95E
:1010500002010843D4E90412114308436168491EA0
:1010600008432168C86100206062012084F82000E4
:10107000002070BD41F08001C0E741F04001C5E7AC
:1010800041F02001CAE721F01001CFE741F008014B
:10109000D4E741F00401D9E7F0B587B00446142144
:1010A0006846FFF749F93E4B3E48DFF8F0E0196823
:1010B000D4F800C03B4A032502260927103000243B
:1010C000491CF4452AD11960012907D1016841F072
:1010D00000710160006800F000700590106840F039
:1010E000080010601068CDE9005600F00800CDE956
:1010F000047069462C48CDE9024500F0B3F900229E
:101100000521132000F02EFB132000F01DFB002210
:101110000521142000F026FB14203BE0DFF88CE0D2
:10112000F44539D1D0F800C04CF0806CC0F800C054
:10113000D0F800C001290CF0806CCDF814C0196003
:1011400007D1016841F000710160006800F0007093
:101150000590106840F002001060106802AB00F0CB
:10116000020005904FF44050CDE9000683E8B0003E
:1011700069460F4800F076F9002207213F2000F071
:10118000F1FA3F2000F0E0FA00220721402000F0B1
:10119000E9FA402000F0D8FA07B0F0BD0064004042
:1011A0000000002030380240000C0240006800407F
:1011B000000402407047704770477047704770479F
:1011C00070477047704770477047704790F8351008
:1011D000022903D08021416501207047052180F854
:1011E00035100068016821F001010160002070479E
:1011F0002DE9F84304464FF00009CDF8009063480C
:101200004FF41651A56D0068B0FBF1F72E6894F805
:101210005C10082000FA01F131420FD021680A6801
:1012200052070BD50A6822F004020A6094F85C1099
:101230008840A860606D40F00100606594F85C1023
:101240004FF0010808FA01F0304208D021684969DE
:10125000090604D5A860606D40F00200606594F84E
:101260005C1004208840304208D021680968890752
:1012700004D5A860606D40F00400606594F85C10CF
:1012800010208840304218D021680968090714D519
:10129000A86020680168490304D50068000308D5E8
:1012A000A16C07E00168C90503D4016821F00801B9
:1012B0000160216C09B12046884794F85C10202019
:1012C0008840304231D021680968C9062DD5A86010
:1012D00094F8350005282068016806D0490347D5F1
:1012E000006800031DD4616C1CE021F01601016050
:1012F0002068416921F080014161206C08B9A06C2F
:1013000020B12068016821F00801016094F85C10A8
:101310003F208840A86084F8349084F83580216D9F
:101320001FE0E16B09B120468847606D00282BD093
:10133000606DC00714D0052084F83500206801686E
:1013400021F0010101600098401C0090B84203D8D0
:1013500020680068C007F6D184F8349084F835809E
:10136000E16C002910D001B02046BDE8F0430847E9
:101370000168C905D5D4016821F01001016084F825
:10138000349084F83580CCE7BDE8F8832C00002049
:101390002DE9F041044600F057F906465CB10025FE
:1013A00084F83450022084F835002068016821F068
:1013B000010101600DE00120BDE8F08100F044F979
:1013C000801B052805D920206065032084F835009E
:1013D000F2E720680068C007F0D122681168204851
:1013E0000140D4E901031843D4E9033633431843D9
:1013F00063691843A3691843E3691843236A1843D0
:101400000843616A042903D1D4E90B131943084343
:10141000106020684069666A20F0070130460E437C
:10142000012704280CD1A06A0643E06A40B1204697
:10143000FFF7E2FB20B14020606584F83570BAE721
:10144000206846612046FFF7C3FB94F85C203F21EB
:1014500091408160656584F835700020ACE700003C
:101460003F8010F02DE9F84FDFF890B100224FF0E7
:1014700001084FF0030A4FF00F090BF1040E00BFF3
:101480000B6808FA02F42340A3426ED14D68022D86
:1014900001D0122D0ED1D50800EB850CDCF82050C0
:1014A0005607F70E09FA07F6B5430E69BE402E43FC
:1014B000CCF82060066855000F790AFA05FC07F0A1
:1014C000030726EA0C06AF40374307604E68012E3B
:1014D00005D0022E03D0112E01D0122E0ED1876816
:1014E000CE6827EA0C07AE403E4386604668A643B6
:1014F0000C79C4F30014944034434460C4688E688B
:1015000024EA0C04AE402643C6604C68E4006FD564
:101510003B4C256845F480452560246822F003058E
:1015200004F480440094374C2E19D6F808489507E7
:101530002F0F09FA07F5AC43334DA84201D100251E
:101540002EE0324DA84201D1012529E0304DA842BC
:1015500001D1022524E02F4DA84201D103251FE02F
:101560002D4DA84202D104251AE041E02B4DA8429E
:1015700001D1052514E02A4DA84201D106250FE02E
:10158000284DA84201D107250AE0274DA84201D1E4
:10159000082505E0254DA84201D1092500E00A25CE
:1015A000BD402543C6F80858DBF800405D464E684C
:1015B0009C43F60300D51C432C60DEF800407546C2
:1015C0004E689C43B60300D51C432C600B4D083578
:1015D0002C684E689C43F60200D51C432C60074DD6
:1015E0000C352C684E689C43B60200D51C432C6019
:1015F000521C102AFFF444AFBDE8F88F003C0140B4
:101600004438024000300140000002400004024023
:1016100000080240000C024000100240001402408A
:1016200000180240001C024000200240002402403A
:10163000426931EA020200D10904816170470AB1AE
:10164000816170470904FBE701488068704700002A
:1016500020000020024881680278114481607047B0
:10166000200000200B4810B5016841F400710160B2
:10167000016841F480610160016841F4807101609A
:10168000032000F08FF80F2000F006F800F040F87B
:10169000002010BD003C024010B500220146541E3F
:1016A00088B0204600F05EF8204600F04DF814485F
:1016B0000024016841F010010160006805A900F0F4
:1016C00010000690684600F017F900F035F90D4952
:1016D0004000B0FBF1F10D480B4A491E026040F298
:1016E000E732C0E90324C0E9011400F028FB10B17F
:1016F000012008B010BD054800F03DFBF9E70000EF
:101700004038024040420F000010004054040020C6
:101710000C4882B0016841F480410160006800F427
:10172000804000900748001F016841F0805101602F
:101730000068002200F0805000900F21901E02B03F
:1017400000F010B844380240002809DB00F01F0206
:10175000012191404009800000F1E020C0F8001113
:1017600070470000F0B40E4B1B680C46C3F3022315
:10177000C3F10705042D00D90425191D072901D23D
:10178000002300E0DB1E012606FA05F1491E214078
:1017900099409E40761E16403143F0BC01F070BF68
:1017A0000CED00E0064900F0070208684FF6FF0361
:1017B000184040EA0220034A1043086070470000C6
:1017C0000CED00E00000FA052DE9F0470E4605009B
:1017D00065D0DFF81481D8F80000F7B200F00F00F0
:1017E000B04207D288F80070D8F8000000F00F006F
:1017F000B04254D128683D4C810712D5400703D52B
:10180000206840F4E05020602878000703D5206865
:1018100040F4604020602068A96820F0F000084390
:1018200020602878C0072DD0304968680839012821
:1018300012D0022813D0032811D009688907002983
:101840002DDA216821F0030101432160FFF7FCFE3E
:10185000814641F2883A0EE009688903EFE709689A
:101860008901ECE7FFF7F0FEA0EB0901514502D931
:101870000320BDE8F0872068696800F00C00B0EB39
:10188000810FEFD1D8F80010404601F00F01B142AE
:1018900007D90770006800F00F00B04201D00120A6
:1018A000E7E72878400705D52068E96820F4E0508C
:1018B000084320602878000706D52068296920F4AD
:1018C000604040EAC100206000F056F82168084AF4
:1018D000C1F30311515CC840064908600F20FFF7AF
:1018E000DBFE0020C5E70000003C02400838024053
:1018F000244F00082C0000200F2202600C4A1368BD
:1019000003F003034360136803F0F003836013687C
:1019100003F4E053C36012684FF4E05303EAD202C9
:1019200002610448006800F00F0008607047000082
:1019300008380240003C0240044805490068096834
:10194000044AC1F38221515CC84070472C0000203A
:1019500008380240344F0008044805490068096807
:10196000044AC1F34231515CC84070472C0000204A
:1019700008380240344F0008154810B5006810F0D0
:101980000C02144813D01449042A0FD0082A0ED18F
:101990000F4C241F2268236802F03F025B0207D528
:1019A0002068C0F38810A0FB010106E0084610BDC6
:1019B0002168C1F38811A1FB00010023FEF772FC2E
:1019C0002168C1F30141491C4900B0FBF1F010BD91
:1019D000083802400024F400001BB7002DE9F84F3E
:1019E000050076D02878DFF8F8B2BE4CC00749D0A1
:1019F000DBF800105846C1F38101012908D00068C6
:101A0000C0F3810002280AD1201D0068400206D5DB
:101A10002068800336D568680028E2D032E0686824
:101A2000B0F5803F10D0B0F5A02F206810D020F482
:101A300080302060206820F4802020606868A0B199
:101A4000FFF702FE06460CE0206840F48030F4E721
:101A500040F480202060F7E7FFF7F6FD801B642844
:101A600073D820688003F7D50CE0FFF7EDFD06463C
:101A700005E000BFFFF7E8FD801B6428F0D8206870
:101A80008003F7D42878DFF8608280074FF00009E0
:101A90003ED5DBF80010584611F00C0F09D0006855
:101AA000C0F3810002280BD18D48001F006840025E
:101AB00006D42068800715D5E868012809D111E00F
:101AC000E868B8B10120C8F80000FFF7BDFD064680
:101AD00005E002E1FFF7B8FD801B0228C0D82068AE
:101AE0008007F7D52068296920F0F80040EAC10096
:101AF00020600DE0C8F80090FFF7A6FD064604E060
:101B0000FFF7A2FD801B02281FD820688007F7D4AA
:101B10002878000722D5724E744869696C3671B115
:101B200001210160FFF790FD074604E0FFF78CFDFF
:101B3000C01B022809D830688007F7D50EE0C0F82E
:101B40000090FFF781FD074605E083E0FFF77CFD8D
:101B5000C01B02287ED830688007F7D42878400759
:101B600068D5DFF87CA100270AF1380ADAF800000E
:101B7000C0000BD4DAF8001041F08051CAF8001010
:101B8000DAF80000012700F080500090584E3068CD
:101B9000C00510D4306840F480703060FFF754FD09
:101BA000009005E0FFF750FD0099401A022851D837
:101BB0003068C005F6D54A4EA868683601280FD0AF
:101BC0000528306810D020F001003060306820F027
:101BD00004003060A868B8B1FFF736FD00900FE050
:101BE000306840F00100F4E740F004003060F7E7AF
:101BF000FFF72AFD0099411A41F28830814264D8EA
:101C000030688007F4D50EE0FFF71EFD009007E076
:101C1000FFF71AFD0099411A41F28830814254D8E9
:101C200030688007F4D42FB1DAF8001021F0805129
:101C3000CAF80010A869C0B3DBF80010C1F3810135
:101C400002294AD00228484607D0C8F86000FFF7AA
:101C5000FBFC00E039E005463AE04746C8F8600082
:101C6000FFF7F2FC064604E0FFF7EEFC801B0228BB
:101C70002BD820688001F7D4D5E907010843A96A69
:101C80001C4A490802EB01416A6A41EA8211084391
:101C900095F82C1040EA01611148001F01600120F5
:101CA0003866FFF7D1FC054605E014E0FFF7CCFCF1
:101CB000401B022809D820688001F7D50BE000BF3F
:101CC000FFF7C2FC401B022802D90320BDE8F88FB1
:101CD00020688001F4D40020F8E70120F6E7000036
:101CE000083802400038024000004742800E474258
:101CF000007000400000FFFF7047704770B590F81B
:101D00003C20012A19D0012400F83C4F02224270E5
:101D100050F83C3C5A689D6822F070060A68496891
:101D2000324325F0800529435A6050F83C2C9160DD
:101D3000447000210170084670BD022070BD10B5CE
:101D4000040003D094F83D0010B107E0012010BD5D
:101D5000002084F83C00204600F00CF8022084F8B3
:101D60003D00211D206801F025F9012084F83D0087
:101D7000002010BD70470168CA6842F00102CA60C5
:101D80000068816801F00701062903D0016841F06D
:101D900001010160002070472DE9F0410D4604006B
:101DA00003D094F83D0018B108E00120BDE8F081AF
:101DB000002084F83C00204600F03AF8022084F825
:101DC0003D002068816844F2070291438160211D33
:101DD000206801F0EFF8226890689169166A2B6814
:101DE000AF69034340F20330814341EA0721A86809
:101DF000EF6908434FF6FC418843E96840EA072051
:101E0000014328692F6A000140EA073008436968E6
:101E10006D6926F0AA0646EA0515294393602268F3
:101E2000906120680162012084F83D000020BDE738
:101E300010B586B0044614216846FEF77DFA226884
:101E4000354C002135480223A24223D1334A1032B7
:101E5000146844F008041460126802F00802059245
:101E6000026842F080020260006800F08000059085
:101E70004FF440600090CDE90131CDE9031369468C
:101E80002748FFF7EFFA002205213220FFF76AFC0E
:101E900032203DE0234CA2423CD1204A1432146847
:101EA00044F002041460126802F002020592026813
:101EB00042F480720260006800F480700590602037
:101EC0000090CDE901310320CDE9031069461648A1
:101ED000FFF7C8FA002205212B20FFF743FC2B2037
:101EE000FFF732FC002205212C20FFF73BFC2C20C1
:101EF000FFF72AFC002205212D20FFF733FC2D20BF
:101F0000FFF722FC002205212E20FFF72BFC2E20BC
:101F1000FFF71AFC06B010BD000C0040303802403C
:101F2000001C02400004014000200240704770B5D0
:101F30000446006801694FF00005C943890715D4BC
:101F4000C168C943890711D4E91E016101202077C6
:101F5000206880698007204602D0FFF7E7FF04E091
:101F600000F0C2F8204600F061F925772068016989
:101F7000C943490717D4C168C943490713D46FF04F
:101F800004010161022020772068806910F4407FFD
:101F9000204602D0FFF7CAFF04E000F0A5F8204673
:101FA00000F044F9257720680169C943090716D470
:101FB000C168C943090712D46FF008010161042008
:101FC00020772068C0698007204602D0FFF7AEFF67
:101FD00004E000F089F8204600F028F92577206811
:101FE0000169C943C90617D4C168C943C90613D4D6
:101FF0006FF010010161082020772068C06910F49B
:10200000407F204602D0FFF791FF04E000F06CF81B
:10201000204600F00BF9257720680169C943C907FC
:1020200008D1C168C943C90704D1891E016120468E
:1020300000F0FEF820680169C943090609D4C168A7
:10204000C943090605D46FF0800101612046FFF7FE
:1020500053FE20680169C943490609D4C168C943D0
:10206000490605D46FF040010161204600F0EAF80E
:1020700020680169C94389060BD4C168C943890630
:1020800007D46FF0200101612046BDE87040FFF7E2
:1020900034BE70BD10B586B0044614216846FEF704
:1020A0004BF90E492068884215D10D48002102687D
:1020B00042F008020260006800F0080005904FF44A
:1020C000704000900220CDE90101CDE9031069467E
:1020D0000448FFF7C7F906B010BD00000008004033
:1020E00030380240000C0240704770B5044690F84A
:1020F0003C000D4601280DD0012684F83C600220EA
:1021000084F83D0042B1042A18D0082A2AD00C2AAB
:102110004DD139E0022070BD206800F0AFFF20688B
:10212000816941F0080181612068816921F0040121
:102130008161206881692A69114311E0206800F0FB
:10214000CDFF2068816941F4006181612068816967
:1021500021F480618161206881692A6941EA022154
:10216000816124E0206800F0EFFF2068C16941F040
:102170000801C1612068C16921F00401C1612068C2
:10218000C1692A69114311E0206801F011F8206843
:10219000C16941F40061C1612068C16921F48061B5
:1021A000C1612068C1692A6941EA0221C16184F8DC
:1021B0003D60002084F83C0070BD10B5040003D0E1
:1021C00094F83D0010B107E0012010BD002084F814
:1021D0003C00204600F00CF8022084F83D00211D50
:1021E000206800F0E7FE012084F83D00002010BDCB
:1021F00008B500680B49884212D10B48016841F0CC
:10220000040101600068002200F004000090062133
:102210001E20FFF7A7FABDE808401E20FFF794BA7A
:1022200008BD000000080040403802407047000030
:1022300000680349884201D1FFF70CBA70470000DB
:1022400000100040704708B5C16B082903D1006831
:1022500001684068009008BD70B5026804461068C7
:10226000D168536910F00F0F51D003F0010501F44C
:10227000907635435DD0C20705D0CA0503D5E26B21
:1022800042F00102E263420705D5DA0703D0E26BB0
:1022900042F00202E263820705D5DA0703D0E26B5F
:1022A00042F00402E263020705D5DA0703D0E26BCD
:1022B00042F00802E263E26B002A34D0800604D5C3
:1022C000880602D5204600F0B1FF20684069E16B26
:1022D000C0F3801001F008010143204624D000F033
:1022E00097FF2068416949061AD5416921F04001EC
:1022F0004161606BA0B11B490165606BFEF766FF31
:10230000002810D0606B016DBDE87040084783065F
:102310000FD58B060DD52046BDE8704000F086BF76
:102320002046FFF790FF70BDFFF78DFF0020E063B0
:1023300070BD030606D50B0604D52046BDE87040E7
:1023400001F016B94006F3D54806F1D5D16820460C
:1023500021F04001D160202184F8391000F0A6F965
:1023600070BD00000132000870B5040004D094F87C
:102370003900002510B106E0012070BD84F8385006
:10238000204600F023F8242084F839002068C16832
:1023900021F40051C160204600F094FF20680169DB
:1023A00021F4904101612068416921F02A014161D5
:1023B0002068C16841F40051C160E563202084F8C1
:1023C000390084F83A00002070BD00002DE9F04F7C
:1023D00087B0064614216846FDF7AEFF854884495C
:1023E0003468DFF810C214380222012303250727BE
:1023F0004FF000094FF0006A4FF4806B8C424FD1D0
:10240000DCF800104C4641F01001CCF80010DCF86C
:10241000001001F010010591016841F00201016016
:10242000016801F002010591016841F001010160BC
:102430000068029300F0010005908020CDE90002C1
:10244000CDE903579146984669466B48FFF70AF86D
:102450004FF40070CDE90009CDF80880CDE90357AD
:1024600069466648FEF7FEFF664D6548E5E8020AE4
:102470004020A5E81108634845F81449AC61EC61B7
:102480002C626C62FEF784FF08B1FEF76CFC3563CA
:10249000002206212520AE63FFF764F9252058E0CD
:1024A0005449DFF86481091FDFF860E1444555D1E4
:1024B000D1F800C04C464CF4003CC1F800C009689B
:1024C00001F400310591016841F0080101600068E4
:1024D000694600F00800059060208DE8AD00704668
:1024E000FEF7C0FF474D4A4860354FF40039286079
:1024F000C5E901A4C5E9034B6C61AC61C5E90749B5
:102500005746D84628466C62FEF742FF08B1FEF7F0
:102510002AFC7563AE633B4D3D48C0351830E5E895
:1025200002074020A5E81101364845F81449C0309B
:10253000AC61C5E907496C62FEF72AFF08B1FEF7F6
:1025400012FC3563002206212620AE63FFF70AF94C
:102550002620FFF7F9F807B0BDE8F08F2D4EB44202
:102560001ED10C6844F480240C60096801F48021B9
:102570000591016841F0080101600068694600F0BA
:10258000080005904FF440708DE8AD007046FEF7EE
:1025900069FF002205212720FFF7E4F82720D8E76C
:1025A0001D498C42D7D1DCF8001041F02001CCF855
:1025B0000010DCF8001001F020010591016841F0E5
:1025C000400101600068694600F0400005904FF44A
:1025D00084408DE82D00082004901048FEF742FF4B
:1025E000002206214720FFF7BDF84720B1E7000091
:1025F0000010014044380240000402400000024044
:10260000B86402403403002000440040000C024043
:102610008860024000480040001401400018024059
:1026200090F83A30202B22D1F9B1F2B190F838303D
:10263000012B1CD081628285C2850021C1632222C8
:1026400080F83A2080F838100168CA6842F4807235
:10265000CA6001684A6942F001024A610068C168C3
:1026600041F02001C1600020704701207047022026
:102670007047000008B50068094988420FD1094831
:102680000078FEF727FB0848006801684068009062
:10269000BDE80840012203490348FFF7C1BF08BD58
:1026A00000480040E8410020B40200207047FEE7E7
:1026B000114810B50F490160032141604FF080417E
:1026C000816000214FF40022C0E903124FF4401250
:1026D0004261017641768176C176017701214177A9
:1026E000FEF74DFC002803D0BDE81040FEF73BBBD1
:1026F00010BD00000064004024010020114810B506
:102700000F490160032141604FF080418160002149
:102710004FF40022C0E903124FF4401242610176E7
:1027200041768176C176017701214177FEF727FC5A
:10273000002803D0BDE81040FEF715BB10BD000017
:10274000006800404C010020154808B5016841F4BC
:1027500000110160016801F400110091016841F469
:10276000800101600068002200F4800000900521D3
:102770001020FEF7F7FF1020FEF7E6FF00220521EC
:102780001120FEF7EFFF1120FEF7DEFF00220621E9
:102790004620FEF7E7FFBDE808404620FEF7D4BF1D
:1027A0003038024010B5A4B0142227496846FDF71E
:1027B000AAFD0021684601F065FE244C224914223E
:1027C0002060143105A8FDF79EFD002105A801F049
:1027D00059FE1D496060142228310AA8FDF793FDB7
:1027E00000210AA801F04EFE1749A06014223C31D6
:1027F0000FA8FDF788FD00210FA801F043FE124944
:10280000E0601422503114A8FDF77DFD002114A8CA
:1028100001F038FE0C4920611422643119A8FDF73B
:1028200072FD002119A801F02DFE074960611422F4
:1028300078311EA8FDF767FD00211EA801F022FED9
:10284000A06124B010BD0000904E000804000020DC
:10285000F0B587B014216846FDF76EFD31480024BD
:10286000016841F040010160016801F040010591FB
:10287000016841F001010160016801F00101059169
:10288000016841F002010160016801F00201059157
:10289000016841F008010160016801F0080105913B
:1028A000016841F480710160016801F48071059153
:1028B000016841F080010160016801F0800105912B
:1028C000016841F020010160016801F020010591DB
:1028D000016841F0100101600068134E00F0100023
:1028E0004FF480450590002229463046FEF7A7FEAA
:1028F0000E4F002280213846FEF7A1FE00950125EB
:10290000CDE90154694630460394FEF7ABFD8020C3
:102910000090CDE90154694638460394FEF7A2FDC4
:1029200007B0F0BD303802400014024000100240F1
:1029300010B58AB0002407941C2168460894FDF75E
:10294000FBFC2348214901605921C0E9011440F6EC
:10295000C311C0E903148461FFF72FFC08B1FEF72F
:1029600002FA079407A91A480894FFF7C7F908B1B3
:10297000FEF7F9F9602000904FF47A70CDE9010478
:102980000022694612480494FFF7AFFB08B1FEF736
:10299000EAF9042269460E48FFF7A7FB08B1FEF7E3
:1029A000E2F9082269460A48FFF79FFB08B1FEF7E3
:1029B000DAF90C2269460648FFF797FB08B1FEF7E3
:1029C000D2F90348FFF766FB0AB010BD00080040CB
:1029D0007401002010B58CB024216846FDF7ACFCD2
:1029E00000241448099412490A94C0E90014846030
:1029F000C460046184610120CDE90004CDE90204D2
:102A00000494CDE90540079469460A480894FFF705
:102A1000C3F908B1FEF7A7F9099409A905480A9472
:102A2000FFF76CF9002801D0FEF79DF90CB010BD3E
:102A3000000C0040B401002010B58CB02421684681
:102A4000FDF77AFC00241548099413490A94C0E95B
:102A500000148460C4600461446184610120CDE994
:102A60000004CDE902040494CDE9054007946946C9
:102A70000A480894FFF790F908B1FEF774F9099431
:102A800009A906480A94FFF739F9002801D0FEF792
:102A90006AF90CB010BD000000040140F4010020F0
:102AA0000C4810B50A4901604FF4E1314160002142
:102AB00081600C22C160C0E904128161C161FFF72D
:102AC00053FC002803D0BDE81040FEF74CB910BD00
:102AD00000100140340200200C4810B50A49016082
:102AE0004FF4E1314160002181600C22C160C0E9F6
:102AF00004128161C161FFF737FC002803D0BDE8F3
:102B00001040FEF730B910BD0044004074020020B0
:102B10000C4810B50A4901604FF4E13141600021D1
:102B200081600C22C160C0E904128161C161FFF7BC
:102B30001BFC002803D0BDE81040FEF714B910BDFF
:102B400000480040B40200200C4810B50A4901605A
:102B50004FF4E1314160002181600C22C160C0E985
:102B600004128161C161FFF7FFFB002803D0BDE8BB
:102B70001040FEF7F8B810BD00140140F402002028
:102B8000FEE770473EB518A4C1EB812138CC8DE833
:102B900038008DF802004FF49670B1FBF0F3B1FBF2
:102BA000F0F08DF80630000A124C00228DF8070074
:102BB000022020706D46C0B2295C401CC0B2114496
:102BC000CAB220700828F6D3D0438DF80800002040
:102BD0002070C0B2285C00F015FD2078401CC0B207
:102BE00020700928F5D33EBDFFFF0005031E00003D
:102BF000FF00000090000020F0B514460E46074686
:102C0000FEF7B2F80346384600F020F901460020EE
:102C100002E03A5C3254401C9842FADB0025F5543D
:102C2000581C06E0A0EB030C3A5CA444401C0CF8D2
:102C3000012C8842F6DB65545B1C04D131463846D2
:102C4000FDF7A8FF2570F0BD012001F005FCFBE7B2
:102C50001FB5DFF86CA01B4C1B4D1C4E1C4F4FF4D6
:102C6000804B4FF052084FF0A00980215046FEF7EC
:102C7000DFFC59461748FEF7DBFC2068A0281AD075
:102C80004846C4F8009001460020FFF77BFF95ED11
:102C9000000B11A08DED020B96ED000B8DED000BDE
:102CA00097ED000B53EC102B00F0DAFC4FF47A7028
:102CB00001F0D2FBD9E74046C4F80080E3E700000A
:102CC0000010024094000020B0000020A800002066
:102CD000A0000020001402405020252E316620491B
:102CE00020252E3166204420252E31660D0A000055
:102CF000012001F0B1FBFBE7012001F0ADFBFBE798
:102D0000012001F0A9FBFBE7012001F0A5FBFBE797
:102D1000012001F0A1FBFBE72DE9F04106462DED76
:102D2000088B4FF000089FED438B4446B0EE489A65
:102D3000F0EE689A305D58B1A0F130010A2903D352
:102D40002E2801D02D2803D1641CE4B20A2CF1D323
:102D5000002504E0705D2E2803D06D1CEDB2A54265
:102D6000F8D300279FED35AB15E0F05D2D2818D086
:102D70003038FDF705FC41EC1B0B53EC1A2B51ECE2
:102D8000190BFDF78BFB53EC1B2BFDF7E0FA41EC25
:102D9000190B7F1CFFB2AF42E7D37F1CFDB22F4659
:102DA00018E04FF00108F4E7705D30380A2813D2BC
:102DB000FDF7E6FB41EC1B0B53EC1A2B51EC180B07
:102DC000FDF76CFB53EC1B2BFDF7C1FA41EC180B24
:102DD0006D1CEDB2A542E7D300259FED1AABE41BB5
:102DE0000AE000BF53EC1A2B51EC180BFDF756FB11
:102DF00041EC180B6D1CEDB2AC42F3DC53EC182B1C
:102E000051EC190BFDF7A3FA41EC100BB8F1000FD0
:102E100005D051EC100B81F0004141EC100B51EC4E
:102E2000100BFDF7D1FBBDEC088B00EE100ABDE8DE
:102E3000F081000000000000000000000000000021
:102E4000000024409A9999999999B93F0146002028
:102E50000A5C401C002AFBD1401E704770B50B462F
:102E6000074C04E0E618C55C761A5B1C357093428B
:102E7000F8DB00202244511A0870014870BD0000A0
:102E80001843002010B5FEF7E5FBBDE8104001F047
:102E9000EFBA000030B593B030216846FDF74CFA28
:102EA00014210CA8FDF748FA19480025016841F0E3
:102EB00080510160006800F0805011901548016851
:102EC00041F4404101600068022400F44040119048
:102ED00001200090000401908001CDE90640062009
:102EE0000890A820CDE9090404200B906846FEF75D
:102EF00075FD0CA90F2081E831004FF4A0500F9010
:102F0000E002109005210CA8FEF75EFC13B030BD66
:102F100040380240007000401048016841F47001E0
:102F200001600F48016841F0010101600C4A002175
:102F30000832116002680B4B1A400260031D0A4AF6
:102F40001A60026822F48022026005480C30016099
:102F500002495806803908607047000088ED00E09B
:102F600000380240FFFFF6FE103000240148FEF753
:102F7000DEBF0000740100200148FEF7D8BF00004A
:102F8000B40100200148FEF7D2BF0000F401002088
:102F90000148FEF7CCBF0000F40100200148FEF715
:102FA000C6BF0000F40100200148FEF7C0BF0000CA
:102FB000F4010020F0B50268254C264D264E274F1F
:102FC000274B4FF0804CA04209D0604507D0A84263
:102FD00005D0B04203D0B84201D0984204D122F0CB
:102FE000700E4A6842EA0E02A0421BD0604519D01A
:102FF000A84217D0B04215D0B84213D0984211D091
:10300000184DA8420ED0184DA8420BD0174DA8421B
:1030100008D0174DA84205D0164DA84202D0164D33
:10302000A84203D122F44075CA682A434D6922F0B0
:1030300080022A4302608A68C2620A688262A042F1
:1030400001D0984201D10969016301214161F0BDBC
:10305000000001400004004000080040000C004057
:10306000000401400040014000440140004801408C
:1030700000180040001C004000200040F0B5026A2B
:1030800022F001020262036A42688469124E24F04F
:1030900073050C682C4323F002058B682B430D4D00
:1030A000A84201D0B04205D123F00807CB683B43CA
:1030B00023F00403A84201D0B04205D14D6922F4A7
:1030C000407215438A692A434260846149684163BA
:1030D0000362F0BD0000014000040140F0B5026A47
:1030E00022F010020262026A436884690D6824F4C7
:1030F000E64444EA05248D6822F0200242EA0512E3
:103100000F4D104EA84201D0B04206D1CF6822F038
:10311000800242EA071222F04002A84201D0B042E7
:1031200007D14D6923F4406343EA85038D6943EA7F
:10313000850343608461496881630262F0BD0000D9
:103140000000014000040140F0B5026A22F48072E0
:103150000262026A4368C46922F4007224F07305B3
:103160000C68124E2C438D6842EA05220E4DA8428F
:1031700001D0B04206D1CF6822F4006242EA0722B1
:1031800022F48062A84201D0B04207D14D6923F4F5
:10319000405343EA05138D6943EA05134360C46154
:1031A0004968C1630262F0BD0000014000040140B3
:1031B00030B5026A22F480520262046A4268C3692E
:1031C0000D6823F4E64343EA05238D6824F4005494
:1031D00044EA0534084DA84202D0084DA84204D163
:1031E0004D6922F4804242EA85124260C361496817
:1031F0000164046230BD0000000001400004014091
:1032000010B5806B0021C185C184FFF71CF810BD8B
:103210000168CA6822F49072CA6001684A6922F0A3
:1032200001024A61202180F83A10704710B590F8E9
:103230003A10222901D0022010BD8168B1F5805FCB
:1032400011D00169002901681FD0496801F07F038E
:10325000816A4A1C82620B70C18D491E0904090CE7
:10326000C18518D02BE00269816A002A0268526881
:1032700005D0D2B20A80816A491C8162ECE7C2F3B0
:1032800008020A80816A891CF7E74A68816A4B1C38
:1032900083620A70E0E70168CA6822F02002CA600F
:1032A0000168CA6822F48072CA6001684A6922F023
:1032B00001024A61202180F83A10FFF7DBF9002073
:1032C00010BD00002DE9F041044600680169E26884
:1032D00021F44051114301612169A068E26908436A
:1032E0006169114322680843D16849F20C6399432C
:1032F0000143D16020684169A26921F44071114302
:103300004161E2696425B2F5004F97489749226808
:103310004FF032083FD08A4201D082427CD1FEF782
:103320001BFB00EBC00101EB001061688900B0FBE2
:10333000F1F6FEF711FB00EBC00101EB0010616834
:103340008900B0FBF1F0B0FBF5F06FF018014843D5
:1033500006EB800108EB0110B0FBF5F000F0F00681
:10336000FEF7FAFA00EBC00101EB0010616889007A
:10337000B0FBF1F0B0FBF5F006EB0016FEF7ECFA4F
:1033800000EBC00101EB001061688900B0FBF1F7B0
:10339000FEF7E2FAD2E08A4201D082423DD1FEF746
:1033A000DBFA00EBC00101EB001061684900B0FBE3
:1033B000F1F0B0FBF5F00601FEF7CEFA00EBC0012C
:1033C00001EB001061684900B0FBF1F7FEF7C4FAA9
:1033D00000EBC00101EB001061684900B0FBF1F0A7
:1033E000B0FBF5F06FF01801484307EB800108EBE4
:1033F000C100B0FBF5F000F0F80006EB4006FEF768
:10340000ABFA00EBC00101EB001061684900B0FBB2
:10341000F1F7FEF7A1FA3CE055E0FEF78DFA00EB7C
:10342000C00101EB001061684900B0FBF1F0B0FB96
:10343000F5F00601FEF780FA00EBC00101EB001089
:1034400061684900B0FBF1F7FEF776FA00EBC001C6
:1034500001EB001061684900B0FBF1F0B0FBF5F042
:103460006FF01801484307EB800108EBC100B0FB87
:10347000F5F000F0F80006EB4006FEF75DFA00EB11
:10348000C00101EB001061684900B0FBF1F7FEF7E5
:1034900053FA00EBC00101EB001061684900B0FB7A
:1034A000F1F0B0FBF5F06FF01801484307EB800135
:1034B00008EBC100B0FBF5F000F0070021683044D4
:1034C0008860BDE8F081FEF737FA00EBC00101EB40
:1034D000001061688900B0FBF1F6FEF72DFA00EBF1
:1034E000C00101EB001061688900B0FBF1F0B0FB96
:1034F000F5F06FF01801484306EB800108EB01106E
:10350000B0FBF5F000F0F006FEF716FA00EBC00194
:1035100001EB001061688900B0FBF1F0B0FBF5F041
:1035200006EB0016FEF708FA00EBC00101EB0010F5
:1035300061688900B0FBF1F7FEF7FEF900EBC0010E
:1035400001EB001061688900B0FBF1F0B0FBF5F011
:103550006FF01801484307EB800108EB0110B0FB46
:10356000F5F000F00F00A9E7001401400010014041
:1035700090F83910212901D0022070478168B1F5F7
:10358000805F016A0BD04A1C0262026809785160B0
:10359000C18C491E0904090CC1840ED017E00988AA
:1035A0000268C1F30801516001690029016A02D073
:1035B000491C0162ECE7891CFBE70168CA6822F03C
:1035C0008002CA600068C16841F04001C16000200B
:1035D0007047000010B5012205490648FFF720F8A2
:1035E00004480068416941F00101416110BD0000DB
:1035F00084410020340200200148FEF72DBE000067
:103600003402002002490A685206FCD5486070471F
:10361000001001400148FEF71FBE000074020020A8
:1036200010B5012205490648FEF7FAFF0448006874
:10363000416941F00101416110BD0000E8410020F5
:10364000B40200200148FEF707BE0000B4020020CB
:103650000148FEF701BE0000F4020020FEE7000072
:103660000FB4054B10B503A9044A029800F0EAF81C
:1036700010BC5DF814FB000041420008200100204E
:103680000907090E002804DB00F1E02080F800148F
:10369000704700F00F0000F1E02080F8141D704723
:1036A00002E008C8121F08C1002AFAD1704770470B
:1036B000002001E001C1121F002AFBD17047000069
:1036C0002DE9FF5F82B00021DDE90430020DDDF855
:1036D00040B0034318D044F61050A2F2FF324243E8
:1036E0001514119801281FD0A5EB0B00401C5FEAB0
:1036F000000A4FF000064E4FDFF83891B0465046B2
:1037000015D5CAF1000413E0119801244AA3012839
:1037100001D16FEA0B010298119AC0E90031C0E9AA
:10372000024206B0BDE8F09FCBF10000DFE704469F
:103730000021404A491842EB0450CDE9001012E044
:10374000E00707D032463B4640464946FCF7A6FE16
:103750008046894632463B4610461946FCF79EFE97
:1037600006460F466410002CEAD1DDE90401DDE9CC
:103770000023BAF1000F06DAFCF790FE42464B46F2
:10378000FCF78CFE05E0FDF716F842464B46FDF7C8
:1037900012F804460E460022284BFDF793F803D892
:1037A0004FF0FF30014607E00022254B204631460E
:1037B000FCF7CDFDFDF76EF8102409E0002C0ADBC4
:1037C0000A220023FCF76EFD039B30321A55641E5B
:1037D00050EA0102F2D1641C039AC4F111031444AB
:1037E000119A012A03D0012208430DD10AE00843AF
:1037F00004D000204FF0110B119072E7A3EB0B05E2
:103800006D1E0DE05B4504DD4FF0000205F1010582
:1038100004E003DA4FF00002A5F10105002AECD024
:1038200002981199C0E90231C0E9004579E700002A
:10383000000014400000F03F300000000000F043A2
:103840000000E03F2DE9FF4F95B09B4689460646B4
:1038500000250FE2252877D100242746F84A0121C8
:10386000059400E0044316F8013F203B01FA03F001
:103870001042F7D130782A2811D06FF02F0330781A
:10388000A0F13002092A16D8059A44F0020402EB8E
:10389000820203EB42021044761C0590EFE759F8D0
:1038A000042B0592002A03DA504244F40054059098
:1038B00044F00204761C30782E2816D116F8010F39
:1038C00044F004042A280DD06FF02F023078A0F1C4
:1038D0003003092B09D807EB870302EB4303C71812
:1038E000761CF3E759F8047B761C30786C280FD0EF
:1038F00006DC4C2817D068280DD06A2814D104E0C3
:10390000742810D07A280FD10DE044F400140AE096
:1039100044F4801401E044F440147278824202D1ED
:1039200004F58014761C761C307866280BD013DCE6
:10393000582877D009DC002875D04528F6D04628CD
:10394000F4D047281AD19DE118E0632835D06428C7
:1039500079D0652812D195E1702873D008DC6728EA
:10396000F1D069286FD06E280DD06F2806D1B5E050
:1039700073282CD0752875D0782874D05A4617999A
:1039800090476D1C75E1C4F30250022809D003284A
:103990000DD0D9F8001004280DD00D6009F10409EC
:1039A00067E1D9F80010EA17C1E90052F6E7D9F843
:1039B00000100D80F2E70D70F0E719F8041B8DF888
:1039C000001000208DF80100EA46012003E059F8BC
:1039D00004AB4FF0FF3061074FF0000102D40DE05F
:1039E00008F101018846B9420FDA8045F8DB1AF880
:1039F00008100029F4D108E008F10101884681424D
:103A0000FADB1AF808100029F6D105985B46A0EBFE
:103A1000080721463846179A00F094FA284400EB2C
:103A2000080507E04DE029E10DE01AF8010B5A46C0
:103A300017999047B8F10108F7D25B4621463846FE
:103A4000179A13E142E00A220092C4F302524FF0A7
:103A5000000A022A08D059F804CB032A4FEAEC7175
:103A60000AD00DE029E02AE009F1070121F0070260
:103A7000F2E802C1914609E00FFA8CFC4FEAEC71C2
:103A8000042A03D14FFA8CFC4FEAEC71002907DAC3
:103A90000A460021DCF1000C61EB02012D2202E05C
:103AA000220504D52B228DF80420012203E0E20731
:103AB00001D02022F7E7904659E00A2102E01022C7
:103AC0000DE010214FF0000A00910BE010224FF0A2
:103AD000000A44F004040827009203E008224FF093
:103AE000000A0092C4F30252022A05D059F804CB0E
:103AF0000021032A08D009E009F1070121F007029B
:103B0000F2E802C1914605E01FFA8CFC042A01D1BB
:103B10000CF0FF0C4FF00008220728D5702806D0C3
:103B2000009B83F0100353EA0A0305D00EE0402205
:103B30008DF80420012208E05CEA010206D0302260
:103B40008DF804208DF8050002229046009B83F03A
:103B5000080353EA0A030AD15CEA010201D16207B1
:103B600005D530228DF804204FF001087F1E58281B
:103B700004D034A003900EA802900DE036A0F9E71F
:103B800053466046009AFCF78DFB84460398825C9E
:103B90000298401E029002705CEA0100F0D1029887
:103BA00006A9081A00F1200A600702D524F480341F
:103BB00000E00127574502DDA7EB0A0000E00020E6
:103BC00000EB0A01009005984144401A0590E0037B
:103BD00006D45B462146179A059800F0B3F90544D0
:103BE000002706E001A85A46C05D179990476D1C52
:103BF0007F1C4745F6DBE0030CD55B462146179A50
:103C0000059800F09FF9054404E030205A461799C2
:103C100090476D1C0099481E00900029F5DC08E0D3
:103C2000029802995A460078491C029117999047C8
:103C30006D1CBAF10001AAF1010AF1DC65E1000096
:103C40000928010030313233343536373839616272
:103C50006364656600000000303132333435363736
:103C600038394142434445460000000000F058F90D
:103C70000544761C307800287FF4ECAD19B0284656
:103C8000BDE8F08F620700D4062709F1070222F091
:103C9000070CFCE80223E14603F000485FEA080C49
:103CA00002D00FF2702C0DE05FEA045C02D50FF237
:103CB000682C07E05FEAC47C02D00FF2602C01E0C0
:103CC000AFF2700C4FF0FF3823F00043CDF850C036
:103CD00065280CD006DC452809D046281DD0472889
:103CE0003DD13DE0662818D067287ED138E000211C
:103CF000112F01DB112000E0781CCDE9000106A99D
:103D00000EA8FFF7DDFCDDE90F010E9A03910021FB
:103D1000009207F1010A04914DE04FF00040009736
:103D2000CDE9011006A90EA8FFF7CAFCDDE90F02D4
:103D300003920E9B11990022DDF80CA000930492CF
:103D400011B9791C00EB010AB7EB0A0004D4C0F1E9
:103D5000FF3007F1010A0490AAEB0700019044E04C
:103D6000012F00DA01270021112F01DD112000E0D1
:103D70003846CDE9000106A90EA8FFF7A1FCDDE950
:103D80000F010E9A0391002104910092BA46210777
:103D90000CD40399514500DA8A46BAF1010F05DDCA
:103DA000009AAAF10101515C302908D0B84202DA28
:103DB00010F1040F06DA0121CDE9011015E0AAF196
:103DC0000101E9E7002805DC049901440491AAEB0C
:103DD000000102E0411C514500DD8A460499401A69
:103DE000401C01904FF000400290200704D401983D
:103DF000504501DBCDF8048000208DF84F0002987B
:103E00000DF14F07B0F1004F25D02B200E900298F6
:103E10004FF0020800280CDA404202902D200E904C
:103E200007E00A210298FCF7EBFB3031029007F81B
:103E3000011DB8F10001A8F10108F2DC0298002888
:103E4000EFD1791E0E980870307800F0200040F015
:103E5000450007F8020D12A8C01B00F107081498CE
:103E6000007800B1012000EB0A01019801EBE0713C
:103E700005984144401A401E0590E00306D45B4675
:103E80002146179A059800F05DF8054414980078CB
:103E900018B15A46179990476D1CE00324D55B462C
:103EA0002146179A059800F04DF805441CE0049847
:103EB000002807DBDDE90301884203DD0098405C50
:103EC000179901E0179930205A469047049805F158
:103ED0000105401C04900198401E019004D12E2041
:103EE0005A46179990476D1CBAF10001AAF1010AD0
:103EF000DDDC05E017F8010B5A46179990476D1C59
:103F0000B8F10001A8F10108F4DC5B462146179ADC
:103F10000598ABE62D0000002B00000020000000FB
:103F20002DE9F041044600251E461746880404D4B6
:103F300005E039462020B0476D1C641EF9D528469F
:103F4000BDE8F0812DE9F041044600251E4690466B
:103F5000C80301D5302700E02027880404D505E0F8
:103F600041463846B0476D1C641EF9D52846BDE869
:103F7000F08100007FB505468DA1FCF7F3FD9FEDB4
:103F80008D0B8E4C40B153EC102B94ED0A0B51EC81
:103F9000100BFCF7DCF92EE089A12846FCF7E2FDC6
:103FA0009FED881B60B194ED0C0B53EC112B51EC81
:103FB000100BFCF7CCF938E053EC102B83A0F1E0A8
:103FC00088A12846FCF7CEFD40B153EC102B94EDB0
:103FD0000E0B51EC100BFCF7BAF93CE082A128461D
:103FE000FCF7C0FDA0B153EC102B94ED0A0B51EC83
:103FF000100BFCF74DFA41EC100B84ED0A0B94ED1D
:104000000E1B8DED021B94ED0C1B8DED001BD3E7F9
:1040100076A12846FCF7A6FD80B194ED0C0B53EC7D
:10402000112B51EC100BFCF733FAC4E90C0194EDA1
:104030000E0B8DED020BCDE9000114E06CA12846BA
:10404000FCF790FD90B153EC102B94ED0E0B51EC5E
:10405000100BFCF71DFAC4E90E01CDE9020194ED45
:104060000C0B8DED000B94ED0A0BA5E761A1284622
:10407000FCF778FD9FED600B50B184ED0A0B84EDE9
:104080000C0B84ED0E0B8DED020B8DED000B93E709
:104090005BA12846FCF766FD9FED5A1B40B194EDED
:1040A000020B53EC112B51EC100BFCF750F92DE0E7
:1040B00056A12846FCF756FD9FED552B40B194EDD7
:1040C000040B53EC122B51EC100BFCF740F937E0CA
:1040D00051A12846FCF746FD58B194ED060B53EC70
:1040E000112B51EC100BFCF732F93FE094ED020B71
:1040F00055E04AA12846FCF735FDA0B194ED020B2E
:1041000053EC112B51EC100BFCF7C2F941EC100BE6
:1041100084ED020B94ED061B8DED021B94ED041B48
:104120008DED001B3BE03EA12846FCF71BFD80B156
:1041300094ED040B53EC122B51EC100BFCF7A8F987
:10414000C4E9040194ED060B8DED020BCDE90001ED
:10415000CCE734A12846FCF705FD80B194ED060BB1
:1041600053EC112B51EC100BFCF792F9C4E906014A
:10417000CDE9020194ED040B8DED000BB6E72AA109
:104180002846FCF7EFFC00280FD084ED020B84EDED
:10419000040B84ED060B8DED020B8DED000B53EC43
:1041A000102B22A0FFF75CFA002004B070BD0000C5
:1041B00071000000000000000000F03F98000020A7
:1041C000770000007B14AE47E17A843F70703D2594
:1041D00066202069693D2566202064643D25660DC2
:1041E0000A0000006500000061000000730000008C
:1041F00064000000720000000000000000000000E9
:10420000750000009A9999999999B93F6900000041
:10421000FCA9F1D24D62503F6F0000006A0000001F
:104220006B0000006C00000070000000503D25662F
:104230002020493D25662020443D25660D0A0000CA
:1042400004490A685206FCD5024AC1B2121D116027
:10425000704700000048004001A0FFF701BA0000CD
:10426000476F310D0A000000FDF7FCF9FEF712FE62
:10427000FEF7EEFAFEF768FAFEF71AFAFEF73EFAD4
:10428000FEF756FBFEF7A6FBFEF7D6FBFEF724FC77
:10429000FEF73EFCFEF758FCFEF702FCFFF79AF92A
:1042A000FFF7BEF9FEF77EFA00F0DDF8FEE7014603
:1042B0000020842900D0C81C7047000000B51048B9
:1042C000104987B090ED022B81ED022B90ED041B7D
:1042D00053EC122B81ED041B90ED060B81ED060BC8
:1042E00090ED083B08A081ED083B8DED043B8DED82
:1042F000020B8DED001BFFF7B3F907B000BD000006
:104300008043002098000020503D25662020493D34
:1043100025662020443D2566205631203D25660D2A
:104320000A00000000B51048104987B090ED022B3C
:1043300081ED0A2B90ED041B53EC122B81ED0C1B2D
:1043400090ED060B81ED0E0B90ED083B08A081ED82
:10435000103B8DED043B8DED020B8DED001BFFF747
:104360007FF907B000BD00008043002098000020C6
:10437000703D25662020693D25662020643D256628
:104380002056323D2566200D0A00000000B5104879
:10439000104987B090ED022B81ED122B90ED041B9C
:1043A00053EC122B81ED141B90ED060B81ED160BD7
:1043B00090ED083B08A081ED183B8DED043B8DEDA1
:1043C000020B8DED001BFFF74BF907B000BD00009D
:1043D0008043002098000020413D25662020423D7A
:1043E00025662020433D256620453D25660D0A00B3
:1043F00000B51148114987B090ED022B81ED1A2BC1
:1044000090ED041B53EC122B81ED1C1B90ED060B61
:1044100081ED1E0B90ED083B01F1800080ED003B2B
:104420008DED043B8DED020B8DED001B04A0FFF71D
:1044300017F907B000BD000080430020980000205D
:10444000613D256620623D256620633D2566206529
:10445000203D25660D0A000010B500B9012000F0CE
:10446000F7FA002010BD10B500F018FB002010BDB9
:1044700010B500F039FC012803D0BDE8104000F071
:10448000F1BB10BD3EB504460D46B0F90800FFF77C
:104490000EFF02A9CDE90001208A2B4682B2D4E9A1
:1044A000001000F0F5FB012801D000203EBD02986D
:1044B0003EBD00002DE9F041184C0F4605466669E7
:1044C0002068001D00F00AFA38B9206890F82C1016
:1044D00001208840A1698143A161681C07D137B1DF
:1044E0002168BDE8F0410E48091D00F030BA20688F
:1044F0003544B5424560216805D2A068BDE8F04169
:10450000091D00F00CBA6068091D00F008FA206B64
:10451000854200D22563BDE8F08100003000002014
:10452000700500202DE9F041054600F01DFA2E4CE3
:104530002069401C206120682C4F10B1E06940B315
:104540002DE025602069012829D1002606EB860090
:1045500007EB800000F0D5F9761C072EF6D3234830
:104560008C3000F0CEF92148A03000F0CAF91F4885
:10457000B43000F0C6F91D48C83000F0C2F91B483D
:10458000DC3000F0BEF919488C3060601430A06057
:1045900005E02068E96AC06A884200D82560E06AC0
:1045A000401CE062E96A0120A26988401043A061D2
:1045B00001EB810007EB8000291D00F0C8F900F035
:1045C000F3F9E06900280CD02068E96AC06A8842E3
:1045D00007D207494FF080500860BFF34F8FBFF3F9
:1045E0006F8FBDE8F08100003000002094040020AF
:1045F00004ED00E010B50446006B00F0E9F9204638
:10460000BDE8104000F0E4B910484FF47051420783
:1046100006D0C01D0D4920F00700411AC1F57051A8
:104620000B4A00230144C2E900030839103A21F083
:10463000070111604B600B600B1AC0E90013936017
:104640004FF000405360D0607047000084050020A8
:104650007C000020144E154CA6F1C8074FF080587E
:10466000DFF84C9012E000BF00F07EF9F068C568FA
:10467000281D00F033F92069401E2061E068401ECB
:10468000E06000F091F92846FFF7B4FFE0680028E9
:10469000EAD138680128F9D9C9F80080BFF34F8FF3
:1046A000BFF36F8FF2E700005C05002030000020B0
:1046B00004ED00E02DE9F0479A46DDE909848146E2
:1046C0006FF00303206B03EB82021044089D20F07F
:1046D0000706700707D0502080F31188BFF34F8F73
:1046E000BFF36F8FFEE723180A5C83F834200A5C5F
:1046F00012B1401C1028F6D3002784F84370072D10
:1047000000D30625E562C4E91157201D00F004F925
:1047100004F1180000F000F92461C5F1070064629B
:10472000A061E76484F8507052464946304600F074
:10473000BFF82060B8F1000F01D0C8F80040BDE814
:10474000F087000030B5114900E011460A68824246
:10475000FBD34B685C18844203D14068184448601E
:10476000084643681C18944209D1084C103C246840
:10477000A24209D052681A4442600A681268026074
:10478000814200D0086030BD0460F9E77C00002061
:1047900006484168096829B14168C968C96849681B
:1047A000016370474FF0FF31FAE70000300000204E
:1047B00008484068401C4FF0500080F3118804D036
:1047C000BFF34F8FBFF36F8FFEE7BFF34F8FBFF382
:1047D0006F8FFEE7840000202DE9F0410546002799
:1047E00000F090F9314E306808B9FFF70DFFF0681E
:1047F00005424BD1C5B3083568070ED005F0070058
:10480000C0F108000544680707D0502080F31188E4
:10481000BFF34F8FBFF36F8FFEE72DB370688542F4
:1048200034D82248103001460C6801E020460C467E
:104830006168A94202D221680029F7D131688C420F
:1048400024D007682168016060680837411B10297F
:104850000FD96019420708D0502080F31188BFF3A8
:104860004F8FBFF36F8FFEE710E041606560FFF789
:1048700069FF61687068401A7060B268904200D247
:10488000B060F06801430020C4E9000100F09EFA26
:10489000780707D0502080F31188BFF34F8FBFF304
:1048A0006F8FFEE73846BDE8F08100006C00002005
:1048B00010B5031F4FF080741C601B1F21F0010115
:1048C0001960191F044B0B6014390A60091F6FF03F
:1048D000020244380A6010BDB1470008D0E9013235
:1048E00001699A60D0E901235A604A68824201D185
:1048F00082684A60002202610868401E08600868F9
:10490000704700F108014FF0FF32C0E90112C160A9
:10491000016100210160704700210161704730B5DD
:104920000B685A1C02D000F1080202E0026904E0A0
:104930002246546825689D42FAD953684B609960B5
:104940008A60516008610168491C016030BD42689D
:104950004A6093688B609368596091600861016850
:10496000491C016070470000502080F31188BFF39C
:104970004F8FBFF36F8F0A494868401C4860012879
:104980000CD10848006810F0FF0F07D0502080F3CA
:104990001188BFF34F8FBFF36F8FFEE770470000A2
:1049A0008400002004ED00E00849486828B1401E5A
:1049B000486001D180F311887047502080F311883E
:1049C000BFF34F8FBFF36F8FFEE70000840000201E
:1049D00070B5002827D0144DA0F108046168E8687C
:1049E000014207D1502080F31188BFF34F8FBFF3EE
:1049F0006F8FFEE722683AB1502080F31188BFF331
:104A00004F8FBFF36F8FFEE78143616000F07AF84C
:104A100060686968084468602046FFF793FEBDE857
:104A2000704000F0D3B970BD6C0000204FF0E02062
:104A300000210161816105494FF47A720968B1FB77
:104A4000F2F1491E41610721016170472C000020ED
:104A500010B5020014D00F48806B38B1502080F39D
:104A60001188BFF34F8FBFF36F8FFEE700F04AF856
:104A700000211046FFF71EFD00F0A8F9002807D11D
:104A800005494FF080500860BFF34F8FBFF36F8F21
:104A900010BD00003000002004ED00E01CB51548FA
:104AA0000024CDE900402346802213A1144800F0E1
:104AB000EFF8012809D0401C1AD1502080F311884A
:104AC000BFF34F8FBFF36F8FFEE7502080F3118845
:104AD000BFF34F8FBFF36F8F06484FF0FF3134386D
:104AE00001630121C1614461BDE81C4000F040B890
:104AF0001CBD00006400002049444C45000000003B
:104B0000554600080248816B491C816370470000CC
:104B1000300000201448816B11B1012141627047BF
:104B2000002141628169B1FA81F1C1F11F0101EBFC
:104B300081020E4951F822306BB101EB820101F183
:104B400008034A6852684A609A4201D152684A6032
:104B5000D16801607047502080F31188BFF34F8FF8
:104B6000BFF36F8FFEE700003000002094040020A8
:104B70001CB537480168374A914207D1502080F36D
:104B80001188BFF34F8FBFF36F8FFEE70068314985
:104B9000491E884207D1502080F31188BFF34F8F00
:104BA000BFF36F8FFEE72C4908780190FF20087053
:104BB00008788DF800009DF800009DF8002000F0B6
:104BC000F000904207D0502080F31188BFF34F8F40
:104BD000BFF36F8FFEE79DF80000204B00F0500000
:104BE00018700720986005E09DF8002052008DF8AD
:104BF0000020401E9DF800201206F5D4986003287E
:104C000007D0502080F31188BFF34F8FBFF36F8F11
:104C1000FEE74FF440709860019808700C4820300F
:104C2000016841F470010160016841F07041016068
:104C3000FFF7FCFE00205860FBF7E6FA0848016821
:104C400041F040410160FBF7CBFA00201CBD0000A1
:104C500000ED00E071C20F4100E400E0840000209C
:104C600034EF00E010B5502080F31188BFF34F8F70
:104C7000BFF36F8F00F046F818B104494FF0805031
:104C80000860002080F3118810BD000004ED00E0F2
:104C90002DE9FF5F8346DDE90E87994616468A4671
:104CA0009000FFF799FD05001AD05420FFF794FDFE
:104CB000040012D025630021CDE90241CDE900872F
:104CC0004B46324651465846FFF7F4FC2046FFF764
:104CD00029FC012004B0BDE8F09F2846FFF778FECC
:104CE0004FF0FF30F6E700000548C16919B1806B4D
:104CF00018B1002070470120704702207047000063
:104D0000300000202DE9F0412E4C0027A06B40B16F
:104D1000206A401C2062606A00B101273846BDE865
:104D2000F0816669761C666113D16068006838B1ED
:104D3000502080F31188BFF34F8FBFF36F8FFEE7D2
:104D40006068A1686160A060A06A401CA062FFF773
:104D50001FFD206BDFF87080864209D36068006811
:104D600080B16068C068C568686886420DD22063FB
:104D70002068C06A00EB800158F821000128CAD9D8
:104D80000127C8E74FF0FF30F1E7281DFFF7A6FD28
:104D9000A86A18B105F11800FFF7A0FDE86A012123
:104DA000A26981401143A16100EB800108EB810001
:104DB000291DFFF7CCFDE86A2168C96A8842CDD376
:104DC0000127CBE730000020940400202DE9F047B4
:104DD0002C4D00242746A86B38B1FFF7C5FDA86B02
:104DE000401EA863A86B40B146E0502080F31188B4
:104DF000BFF34F8FBFF36F8FFEE72969224E01206B
:104E0000D1B3A6F1B40980463068E8B1F068C4684F
:104E100004F11800FFF762FD201DFFF75FFDE06A57
:104E2000AA6908FA00F11143A96100EB800109EBBE
:104E30008100211DFFF78BFDE06A2968C96A88425D
:104E4000E2D3C5F82480DFE70CB1FFF7A1FC2C6AA0
:104E500044B14646FFF756FF00B16E62641EF9D1B9
:104E600000202862686A38B10849012738070860BD
:104E7000BFF34F8FBFF36F8FFFF796FD3846BDE846
:104E8000F0870000300000204805002004ED00E01D
:104E9000844F0008492C00080000000000000000BA
:104EA000800000003C4F0008512C00080300000067
:104EB0000000000000010000484F0008F12C00082D
:104EC000020000000000000000010000544F000834
:104ED000F92C0008010000000000000000010000A3
:104EE000604F0008012D00080000000000000000D5
:104EF000000100006C4F0008092D0008FFFF0000B2
:104F00000000000000010000784F0008112D00088B
:104F1000FEFF000000000000000100000006101667
:104F2000000610160000000000000000010203044B
:104F30000607080900000000010203046D795461AE
:104F4000736B3032000000006D795461736B303345
:104F5000000000006D795461736B30340000000074
:104F60006D795461736B3035000000006D795461C8
:104F7000736B3036000000006D795461736B30370D
:104F80000000000064656661756C745461736B00A9
:104F9000B04F00080000002024010000A0360008E7
:104FA000D4500008240100207C490000B0360008DD
:104FB00000000000000000000000000000000000F1
:104FC00000000000000000000000000000000000E1
:104FD0000100000010000000000000000024F400A8
:104FE00000000000000000000000000000000000C1
:104FF00000000000000000000000000000000000B1
:1050000000000000000000000000000000000000A0
:105010000000000000000000000000000000000090
:105020000000000000000000000000000000000080
:105030000000000000000000AAAAAAAA00000000C8
:105040000000000000000000000000000000000060
:105050000000000000000000000000000000000050
:105060000000000000000000000000000000000040
:105070000000000000000000000000000000000030
:105080000000000000000000000000000000000020
:105090000000000000000000000000000000000010
:1050A0000000000000000000000000000000000000
:1050B00000000000000000000000000000000000F0
:1050C00000000000000000000000000000000000E0
:0450D00000000000DC
:04000005080001AD41
:00000001FF
